:1000000080314D28023008007E1480310030860097
:10001000003087000B1F0D280E284B282100111ED1
:10002000122813281F282000111E172818281F28FF
:1000300022005F088A005E080A0080314B282100F8
:10004000911E2328242830282000911E28282928A2
:10005000302822005D088A005C080A0080314B28A5
:100060002100921C342835283E282000921C392873
:100070003A283E28A1318F2180314B282100911C44
:10008000422843284B282000911C472848284B2809
:10009000A131802180317E10090080314F2821005C
:1000A000A031F6208031EF002200A031FF20803106
:1000B000EB00A13100218031EC00A1310121803120
:1000C000ED00A13102218031EE00F801F901FA01C1
:1000D000FB01FC01FD012000EF012100EE01483091
:1000E0008400013085002330A13113218031A030FC
:1000F0008400013085004E30A13113218031203041
:100100008400023085004A30A13113218031A030B3
:100110008400023085004030A1311321803120302D
:100120008400033085004030A13113218031A0309C
:100130008400033085004030A1311321803120300C
:100140008400043085004030A131132180317E10BD
:1001500020009331C12B0A302000E100B530E200CD
:100160002100260834072000EC006C08053E8600BC
:10017000013087000108ED00EE016D08E3006E0814
:10018000E400A131DB21803101302100A6073408D1
:10019000043E86000130870001082602031CD12896
:1001A000D228AB281A302000E100AE30E200A131A5
:1001B000DB218031B62F2000A301A30A21003308E0
:1001C000A5312425803121003408033E860001300A
:1001D000870081013408043E8600013087008101D8
:1001E0003408860001308700013081006230200031
:1001F000E100B130E20021003308013E2000E300BD
:10020000003003180130E400A131DB218031B62F2A
:1002100021003408023E8600013087000103031DDF
:1002200012291329B62F340A8600013087000108ED
:10023000031D1B291C29B62F2000A3012100330810
:10024000A5312425803121003408033E8600013089
:1002500087000130810058302000EC000230ED00B2
:1002600021003408153E86000130870020006C080C
:10027000C03F6D08C13F210034088600013087006F
:1002800002308100C3302000E100AE30E2002100E6
:100290003308013E2000E300003003180130E40081
:1002A000A131DB218031B62F21003408023E8600C7
:1002B000013087000103031D5E295F297F29340A6D
:1002C0008600013087000108031D672968297F29FE
:1002D0003408033E86000130870001308107583022
:1002E0002000EC000230ED0021003408153E8600AD
:1002F0000130870020006C08C03F6D08C13F21001D
:10030000340A8600013087000103031D88298929EA
:10031000632A3408153E8600013087001600010468
:10032000031D93299429632A3408033E8600013073
:100330008700010803199D299E29632A3408033E7A
:100340008600013087000A3001060319A829A9296F
:10035000BA293408033E86000130870001082000D6
:10036000EC00ED016C082100A00020006D082100C8
:10037000A100BC29A001A1012008A8003408043E66
:10038000860001308700010834072000EC006C086B
:10039000053E8600013087002100280881003408CE
:1003A000043E860001308700013081073408033E97
:1003B000860001308700810191302000E100B230D9
:1003C000E20021003308013E2000E3000030031862
:1003D0000130E400210028082000EC00ED016C0849
:1003E000E5006D08E600A131DB21803121003408F1
:1003F000043E8600013087000103031D002A012A04
:10040000242A6F0A0319052A062A242A28086F06B7
:10041000031D0B2A0C2A242A34081C3E86000130B6
:100420008700013081009D302000E100AA30E20009
:1004300021003308013E2000E300003003180130A2
:10044000E400A131DB218031210034081C3E86000C
:1004500001308700010803192E2A2F2A522A340856
:10046000043E86000130870010300102031C392A47
:100470003A2A412A3408860001308700033081007F
:10048000632AB8302000EC000B30ED002100340866
:10049000173E86000130870020006C08C03F6D08C1
:1004A000C13F632A3408043E8600013087000230D1
:1004B0000102031C5C2A5D2A632A3408860001308D
:1004C0008700033081002100340A86000130870054
:1004D0000103031D6C2A6D2AB62F3408153E8600D1
:1004E0000130870016000104031D772A782AB62FF1
:1004F0003408033E8600013087000108031D812A6D
:10050000822AB62F34081C3E86000130870001087D
:1005100003198B2A8C2AB62F3408043E860001303A
:10052000870002300102031C962A972AB62F34084E
:10053000173E86000130870016000104031DA12A22
:10054000A22AB62F01302000E100AE30E2002100E7
:100550003308013E2000E300003003180130E400BE
:10056000A131DB2180312100340886000130870071
:1005700003308100B62F210034081C3E8600013074
:10058000870001080319C52AC62AE12BFF30B000F5
:10059000AE01F42A15302000A00021002E08A2315F
:1005A00033228031223E8600023087000103031D82
:1005B000DA2ADB2AF12A21002E082000EC0005307F
:1005C000EC35890BE02A6C08AE3E860001308700CE
:1005D0000108031DEC2AED2AF12A21002E08B000A3
:1005E000FC2A01302100AE0722006D0821002E02F6
:1005F000031CFB2AFC2ACA2A300A0319002B012BF0
:10060000C02B34081B3E8600013087003008810073
:1006100030082000EC000530EC35890B0C2B6C0801
:10062000C93E860001308700210033088100200088
:10063000A30121003308A53124258031210034088D
:100640008600013087000430810030082000EC0073
:100650000530EC35890B292B6C08CB3E8600013028
:10066000870001308100210030082000EC000530B7
:10067000EC35890B382B6C08CC3E860001308700A6
:100680008101210030082000EC000530EC35890B99
:10069000462B6C08CD3E8600013087008101643016
:1006A000EC000030ED00210030082000EE000530A5
:1006B000EE35890B582B6E08C53E86000130870049
:1006C0006C08C03F6D08C13F210030082000EC00DD
:1006D0000530EC35890B692B6C08AE3E8600013085
:1006E00087000A3081006030E100AB30E200210079
:1006F0003308013E2000E300003003180130E4001D
:1007000021003008013E2000E500003003180130D0
:10071000E600A131DB21803101302100A700AC2BA4
:100720000A302000E100B530E2002100270834073C
:100730002000EC006C08053E8600013087000108AF
:10074000ED00EE016D08E3006E08E400A131DB214D
:10075000803101302100A7073408043E86000130B3
:10076000870001082702031CB62BB72B902BED3016
:100770002000E100B530E200A131DB218031B62F4D
:1007800003302000A30021003308A5312425803147
:100790002100340886000130870007308100743062
:1007A0002000E100B230E20021003308013E2000C9
:1007B000E300003003180130E400A131DB21803177
:1007C000B62F3408063E8600013087000A3020002C
:1007D000A00021003408053E840001308500000897
:1007E000A2313322803101072100A500FF30B10082
:1007F000AC01122C15302000A00021002C08A231E1
:1008000033228031203E860002308700010821001B
:100810002506031D0C2C0D2C102C2C08B1001A2CB5
:100820000130AC0722006D0821002C02031C192C9A
:100830001A2CFA2B310A03191E2C1F2C362C3108C6
:1008400033060319242C252C362C15302000A0004B
:1008500021003108A23133228031223E860002304D
:1008600087000103031D352C362C602C033020003B
:10087000A30021003308A53124258031210034084C
:100880008600013087000730810030302000E10011
:10089000AB30E20021003308013E2000E3000030CD
:1008A00003180130E400210025082000EC00ED01D0
:1008B0006C08E5006D08E600A131DB218031B62F20
:1008C000210031082000EC000530EC35890B652C47
:1008D0006C08AE3E8600013087000108031D712CB4
:1008E000722CC92C210034081B3E86000130870081
:1008F0003108810031082000EC000530EC35890B0F
:100900007E2C6C08C93E8600013087002100330828
:10091000810002302000A30021003308A5312425E6
:1009200080312100340886000130870004308100C6
:100930002000A301A30A2100310898310020803152
:10094000210031082000EC000530EC35890BA52C86
:100950006C08AE3E86000130870005308100E9302A
:10096000E100AE30E20021003308013E2000E30048
:10097000003003180130E40021003108013E20005E
:10098000E500003003180130E600A131DB218031A1
:10099000B62F210031082000EC000530EC35890B22
:1009A000CE2C6C08AE3E860001308700093001066F
:1009B000031DDB2CDC2C302D210034081B3E86006F
:1009C000013087003108810031082000EC0005303B
:1009D000EC35890BE82C6C08C93E86000130870095
:1009E0002100330881002000A30121003308A53134
:1009F000242580312100340886000130870006302C
:100A0000810034081B3E8600013087000108A400E5
:100A10003308013E2000A80021002408013E2000E8
:100A2000A90001309B313923803140302000E100A2
:100A3000AC30E20021003308013E2000E30000302A
:100A400003180130E40021003108013E2000E500D8
:100A5000003003180130E600A131DB218031B62FD0
:100A60000330A30021003308A53124258031210063
:100A70003408860001308700073081000E302000E6
:100A8000E100B030E20021003308013E2000E30025
:100A9000003003180130E40021003108013E20003D
:100AA000E500003003180130E600A131DB21803180
:100AB000B62F21003408023E86000130870001086D
:100AC000031D632D642DB62F340A86000130870084
:100AD0000103031D6C2D6D2DB62F2000A3012100F5
:100AE0003308983100208031210034081B3E8600F5
:100AF000013087000108AD002000A30121002D086E
:100B0000A5312425803121003308013E2000A800B2
:100B100021002D08013E2000A90001309B3139231E
:100B200080312100340886000130870006308100C2
:100B30002D082000EC000530EC35890B9C2D6C084D
:100B4000AE3E86000130870006308100B330E10000
:100B5000AD30E20021003308013E2000E300003008
:100B600003180130E40021002D08013E2000E500BB
:100B7000003003180130E600A131DB218031B62FAF
:100B800021003408173E860001308700160001045A
:100B9000031DCB2DCC2DB62F34081B3E8600013013
:100BA00087000108AF002F0A0319D72DD82DEA2D91
:100BB0002F082000EC000530EC35890BDC2D6C088B
:100BC000AE3E860001308700043001060319E92D8E
:100BD000EA2DF82D2000A3012100330898310020D0
:100BE0008031210034088600013087008101B62F52
:100BF000210034081F3E8600013087000108031DD4
:100C0000022E032E872E34081D3E860001308700F9
:100C10002F082000EC000530EC35890B0C2E6C08F9
:100C2000B23E840001308500000801020318192E2D
:100C30001A2E702E210034081D3E860001308700D8
:100C40002F082000EC000530EC35890B242EB33042
:100C50006C07ED006D080107860001308700010870
:100C60002100A90029080319362E372E432E290802
:100C70002000EC00ED016C082100A20020006D08AE
:100C80002100A300472E0A30A2000030A300340840
:100C90001E3E8600013087002208810034081F3E76
:100CA00086000130870001308100BD302000E10066
:100CB000AB30E20021003308013E2000E3000030A9
:100CC00003180130E400210029082000EC00ED01A8
:100CD0006C08E5006D08E600A131DB218031872E2C
:100CE000210034088600013087000B30810020008D
:100CF000A301210033089831002080310230200008
:100D0000A30021002F08A53124258031B62F210012
:100D100034081F3E8600013087000103031D912E19
:100D2000922EB32E2000A301A30A2100330898318C
:100D30000020803114302000EC000030ED00210054
:100D40003408173E86000130870020006C08C03F41
:100D50006D08C13F210034081F3E86000130870026
:100D600002308100B62F34081F3E86000130870014
:100D700002300106031DBD2EBE2EB62F2000A3019A
:100D800021003308983100208031210034081E3EB4
:100D90008600013087000130810234081E3E860043
:100DA0000130870001080319D62ED72EF02E1430FB
:100DB0002000EC000030ED0021003408173E8600D2
:100DC0000130870020006C08C03F6D08C13F210042
:100DD00034081F3E86000130870001308100B62FA5
:100DE0002C302000EC000130ED0021003408173ECB
:100DF00086000130870020006C08C03F6D08C13FAD
:100E0000210034081F3E860001308700810134082C
:100E10001D3E86000130870001308107B62F21007A
:100E20003408023E8600013087000108031D192F97
:100E30001A2FB62F340A8600013087000103031DE4
:100E4000222F232FB62F34081B3E86000130870047
:100E50000108AA002000A30121002A08A5312425A9
:100E6000803121003308013E2000A80021002A081B
:100E7000013E2000A90001309B313923803121003F
:100E80003408860001308700063081002A082000DF
:100E9000EC000530EC35890B4A2F6C08AE3E86001D
:100EA0000130870006308100DA30E100AD30E20029
:100EB00021003308013E2000E30000300318013018
:100EC000E400A131DB218031B62F21003408173E28
:100ED00086000130870016000104031D702F712F5A
:100EE000B62F2000A30121003308A531242580312D
:100EF000210034088600013087008101B62F2100CF
:100F0000340886000130870001082000EC00ED0164
:100F10006D08003A03198D2FB62F6C08003A03199B
:100F2000C32F013A03190829033A03195429013A36
:100F30000319BB2A073A0319B62F013A0319592D91
:100F4000033A0319B62F013A0319B62F0F3A0319C2
:100F5000B62F013A0319B62F033A0319C02D013AEF
:100F600003190F2F073A0319652FB62F21003408F4
:100F7000023E860001308700340A8400013085007B
:100F80000008810008009D31BC2D21009112F6302F
:100F90002200DC002530DD0021001112EE3022009D
:100FA000DE002230DF00483023009F0090309D009B
:100FB00026309E0040309B0003309C00F330200020
:100FC000A0002030A100A1319E218731F730200000
:100FD000A0002030A100A131AD2187312200D20133
:100FE000D301FB012100EE012030FA00F901F801E4
:100FF0002200E80121009116080031009511080037
:101000006030320099009B019D0107309F009E01D6
:101010009C0108002000A3010630A0002308A23193
:1010200033228831A03E86000130870081010630DE
:101030002000A0002308A23133228831A13E86007F
:1010400001308700810106302000A0002308A23172
:1010500033228831A23E8600013087000030C03F35
:10106000C13F06302000A0002308A231332288317E
:10107000A43E860001308700810106302000A000D8
:101080002308A23133228831A53E86000130870033
:1010900081012000A0012308A3319823883120007A
:1010A000A0012308A3317B23883101302000A3074E
:1010B00002302302031C5D285E280C2822008E10BB
:1010C0000E120C1118302000A0001230A100A13126
:1010D0002A21883108002100B30033082000EC00E9
:1010E0000530EC35890B71286C08AE3E2100B40048
:1010F000340A8600013087003308A2315B22883130
:1011000081002100340A8600013087000108031D98
:101110008A288C2887317F2F3408023E86000130D0
:1011200087000103031D95289628A628E830200093
:10113000EC000330ED0021003408193E8600013038
:10114000870020006C08C03F6D08C13F21003408B3
:10115000193E86000130870016000104031DB128E6
:10116000B2288A2834088600013087000108031954
:10117000BA28BB288A283408860001308700053049
:1011800001060319C428C5288A28340886000130BE
:1011900087000A3001060319CE28CF288A28340890
:1011A0008600013087000B3001060319D828D928A2
:1011B0008A2834088600013087000C3001060319A4
:1011C000E228E3288A2834081B3E86000130870085
:1011D000010A0319EC28EE289D31842D34081B3EAA
:1011E0008600013087000108B20034088600013013
:1011F000870004300106031DFE2800299C31F32CD2
:101200002000A301210032089831002088311530D8
:101210002000A00021003208A23133228831223E72
:101220008600023087000103031D1729182946296B
:1012300003302000A30021003208A5312425883185
:10124000F4302000EC000130ED00210032082000D5
:10125000EE000530EE35890B2A296E08C53E860062
:10126000013087006C08C03F6D08C13F2100320883
:101270002000EC000530EC35890B3B296C08AE3EB4
:101280008600013087000C3081005429210032088B
:101290002000EC000530EC35890B4B296C08AE3E84
:1012A0008600013087008101210032082000EC0017
:1012B0000530EC35890B59296C08C93E8600013090
:1012C0008700FF3081000430E100AA30E2002100F5
:1012D0003308013E2000E300003003180130E40031
:1012E00021003208013E2000E500003003180130E3
:1012F000E600A131DB218831EC286C08A0004A30DF
:10130000A100B530A2000830A3000030A400A6312F
:1013100047268931200020082104031D90299129A6
:101320001E2A6C08083E8600033087000108CF3E65
:101330002200B1006D08310203189F29A029022A5A
:1013400020006C08093E860003308700203001062B
:10135000031DAB29AC29022A6C080A3E8600033023
:10136000870030300102031CB629B729022A6C0815
:101370000A3E8600033087003A3001020318C12973
:10138000C229022A6C080B3E8600033087000A300F
:10139000A0006C080A3E8400033085000008A231DA
:1013A000332289310107F03E2200AE0015302000C3
:1013B000A00022003108A23133228931203E86006C
:1013C0000230870022002E08810028302000E10032
:1013D000AE30E20022003108013E2000E300003080
:1013E00003180130E40022002E08A000A10120080B
:1013F0002000E500220021082000E600A131DB21C9
:101400008931FF2FBD302000E100B330E200A1316F
:10141000DB21893142302000E100AA30E2002200C5
:101420006D08A000A10120082000E300220021088F
:101430002000E400A131DB218931FF2F6C08A000DE
:101440006530A100B530A2000730A3000030A40031
:10145000A63147268931200020082104031D312AA6
:10146000322ADE2A6C08073E860003308700010816
:10147000CF3E2200B700B20120006C08093EA00058
:101480002030A100B630A2000230A3000030A4003A
:10149000A63147268931200020082104031D512A46
:1014A000522A562A02302200B2006E2A6C08093EE7
:1014B000A0001C30A100B630A2000330A300003011
:1014C000A400A63147268931200020082104031DED
:1014D0006A2A6B2A6E2A01302200B20022006D08AF
:1014E00037020318742A752AC22A32080319792A86
:1014F0007A2AC22A3203031D7E2A7F2A9D2A3708B0
:10150000A0000530A035890B822A2008AE3E860057
:101510000130870081015A302000E100AF30E20045
:1015200022003708013E2000E3000030031801309C
:10153000E400A131DB218931FF2F02303206031D87
:10154000A22AA32AFF2F3708A0000530A035890B57
:10155000A62A2008AE3E86000130870009308100AF
:10156000E9302000E100AB30E20022003708013E04
:101570002000E300003003180130E400A131DB213A
:101580008931FF2FBD302000E100B330E200A131EE
:10159000DB21893135302000E100AF30E20022004C
:1015A0006D08A000A10120082000E300220021080E
:1015B0002000E400A131DB218931FF2F6C08A0005D
:1015C000D130A100B430A200A431C124893120005F
:1015D00020082104031DED2AEE2A032BD630E1005A
:1015E000B330E200A131DB21893129302200A10092
:1015F0009630A0007F30890BFB2AA00BFB2AA10BA1
:10160000FB2A0100FF2F6C08A000D130A100B530EB
:10161000A2000630A3000030A400A631472689317D
:10162000200020082104031D162B172BA22C6C0868
:10163000063EA000F530A100B530A2000430A300A2
:101640000030A400A631472689312000200821045B
:10165000031D2B2B2C2BC42B6C080A3E8600033059
:1016600087000108D03E2200B30020006C080C3E29
:101670008600033087000108D03E2200B40020001D
:101680006C080B3E86000330870020300106031DE6
:101690004A2B4B2BA92B1C30E100B230E200220078
:1016A0003308A000A10120082000E3002200210847
:1016B0002000E40022003408A200A3012208200038
:1016C000E500220023082000E60022003408A400E0
:1016D000A50124082000E700220025082000E800DA
:1016E00022003308A600A70126082000E9002200F6
:1016F00027082000EA00A131DB21893122003308CC
:101700002000A800220034082000A90001309B31ED
:10171000392389313C302000E100AD30E200220065
:101720003308A000A10120082000E30022002108C6
:101730002000E40022003408A200A30122082000B7
:10174000E500220023082000E600A131DB218931D9
:10175000FF2FE730E100B230E200A131DB21893117
:1017600095302000E100AC30E20022006D08A000BE
:10177000A10120082000E300220021082000E4004D
:10178000A131DB218931FF2F6C08063EA000F0302B
:10179000A100B530A2000430A3000030A400A6319F
:1017A00047268931200020082104031DD82BD92B7E
:1017B000712C6C080A3E8600033087000108D03E79
:1017C0002200B50020006C080C3E86000330870024
:1017D0000108D03E2200B60020006C080B3E8600B7
:1017E0000330870020300106031DF72BF82B562C01
:1017F000FE30E100B130E20022003508A000A10176
:1018000020082000E300220021082000E40022003C
:101810003608A200A30122082000E50022002308C8
:101820002000E60022003608A400A50124082000BC
:10183000E700220025082000E80022003508A60065
:10184000A70126082000E900220027082000EA005E
:10185000A131DB218931220035082000A8002200B7
:1018600036082000A90000309B313923893113301C
:101870002000E100AD30E20022003508A000A10107
:1018800020082000E300220021082000E4002200BC
:101890003608A200A30122082000E5002200230848
:1018A0002000E600A131DB218931FF2FE730E10084
:1018B000B230E200A131DB2189316B302000E10040
:1018C000AC30E20022006D08A000A1012008200039
:1018D000E300220021082000E400A131DB2189314E
:1018E000FF2F6C08063EA000D430A100B430A20047
:1018F000A431C1248931200020082104031D812C3A
:10190000822C922CCA30A100B530A200A231A022B4
:10191000893154302000E100B030E200A131DB21F8
:101920008931FF2FEB30E100AF30E200A131DB2144
:101930008931BC302000E100B030E200A131DB2170
:101940008931FF2F6C08A0006D30A100B530A200D6
:101950000730A3000030A400A631472689312000BB
:1019600020082104031DB52CB62CC42D6C08073E9D
:101970008600033087000108CF3E2200B9006D08C1
:1019800039020318C42CC52CB02D20006C08083E69
:1019900086000330870020300106031DD02CD12C97
:1019A000B02D6C08093EA0001C30A100B630A2008A
:1019B0000330A3000030A400A6314726893120005F
:1019C00020082104031DE52CE62C042D1530A00071
:1019D00022003908A23133228931233E86000230A9
:1019E00087008101C7302000E100AF30E200220013
:1019F0003908013E2000E300003003180130E40004
:101A0000A131DB218931FF2F2200BA01262D1530AB
:101A10002000A00022003908A23133228931243E5F
:101A200022003A07A00020088600023087003A080A
:101A300020006C072200A1002108093E8400033029
:101A400085000008D03E81000130BA073A08200026
:101A50006C072200A0002008093E860003308700A2
:101A600030300102031C352D362D4C2D3A08200054
:101A70006C072200A0002008093E86000330870082
:101A80003A3001020318452D462D4C2D10303A02F4
:101A9000031C4B2D4C2D072D3A080319502D512DA9
:101AA000A72D15302000A00022003908A2313322D2
:101AB0008931233E86000230870022003A088100E7
:101AC00041302000E100B130E20022003908013E3F
:101AD0002000E300003003180130E400A131DB21D5
:101AE00089312200B001982D0A302000E100B53084
:101AF000E2001530A00022003908A23133228931DA
:101B0000243E22003007A000200886000230870013
:101B10000108A100A20121082000E3002200220800
:101B20002000E400A131DB21893101302200B0071F
:101B30003A083002031C9D2D9E2D742DED3020009F
:101B4000E100B530E200A131DB218931FF2F823085
:101B50002000E100B130E200A131DB218931FF2F0B
:101B60006F302000E100A930E20022006D08A000E3
:101B7000A10120082000E300220021082000E40049
:101B8000A131DB218931FF2F6C08A000B430A10006
:101B9000B430A200A431C1248931200020082104DE
:101BA0000319D32DD42DE42D6C08A000C330A1005F
:101BB000B430A200A431C1248931200020082104BE
:101BC000031DE32DE42DF02D993155218931643029
:101BD0002000E100AD30E200A131DB218931FF2F8F
:101BE0006C08A0005330A100B530A2000830A3005B
:101BF0000030A400A63147268931200020082104A6
:101C0000031D032E042E612E6C08083EA0001C301C
:101C1000A100B630A2000330A3000030A400A6311A
:101C200047268931200020082104031D182E192E73
:101C3000252EFF302100EF003B302000E100B330C3
:101C4000E200A131DB218931FF2F6C08083E8600BC
:101C50000330870030300102031C2F2E302E592E06
:101C60006C08083E8600033087003A3001020318F2
:101C70003A2E3B2E592E6C08083E86000330870012
:101C80000108D03E2100EF008C302000E100AD3093
:101C9000E20021006F082200A000A101200820001E
:101CA000E300220021082000E400A131DB2189317A
:101CB000FF2FE030E100B130E200A131DB218931BA
:101CC000FF2F6C08A0001830A100B530A200093029
:101CD000A3000030A400A631472689312000200847
:101CE0002104031D742E752E0B2F6C08093E8600EF
:101CF000033087000108CF3E2200B8006D0838028B
:101D00000318832E842EF72E20006C080A3E8600CE
:101D10000330870020300106031D8F2E902EF72EF2
:101D20006C080B3EA000FA30A100B530A2000430D0
:101D3000A3000030A400A6314726893120002008E6
:101D40002104031DA42EA52EC32E1530A0002200B1
:101D50003808A23133228931223E860002308700C2
:101D60008101A3302000E100AF30E20022003808FA
:101D7000013E2000E300003003180130E400A131EF
:101D8000DB218931FF2F6C080B3EA0002330A1001E
:101D9000B630A2000230A3000030A400A6314726CE
:101DA0008931200020082104031DD72ED82EF72EBC
:101DB0001530A00022003808A23133228931223E9A
:101DC000860002308700013081004F302000E100A2
:101DD000AE30E20022003808013E2000E30000306F
:101DE00003180130E400A131DB218931FF2F1530C8
:101DF0002000E100AC30E20022006D08A000A1014B
:101E000020082000E300220021082000E400A13186
:101E1000DB218931FF2F6C08A0000430A100B6300F
:101E2000A200A431C1248931200020082104031913
:101E30001A2F1B2F2B2F6C08A0002830A100B630C2
:101E4000A200A431C1248931200020082104031DEF
:101E50002A2F2B2FF42F8230E100B430E200A13181
:101E6000DB2189317F302000E100AF30E200A13179
:101E7000DB218931CF302000E100AA30E200A1311E
:101E8000DB21893138302000E100AA30E200220055
:101E90006D08A000A10120082000E3002200210815
:101EA0002000E400A131DB218931BF302000E100B6
:101EB000AC30E200A131DB21893100302000E100AB
:101EC000AB30E20022006D08A000A1012008200034
:101ED000E300220021082000E400A131DB21893148
:101EE0002F302000E100A930E200A131DB2189314F
:101EF00065302000E100A930E20022006D08A0005A
:101F0000A10120082000E300220021082000E400B5
:101F1000A131DB2189310F302000E100AF30E20038
:101F2000A131DB218931DE302000E100B030E20058
:101F3000A131DB21893131302000E100B030E200F5
:101F4000A131DB21893190302000E100AB30E2008B
:101F5000A131DB218931D0302000E100A930E2003D
:101F6000A131DB2189316B302000E100AA30E20091
:101F7000A131DB2189313F302000E100A830E200AF
:101F8000A131DB21893100302000E100A830E200DE
:101F9000A131DB218931BA302000E100A830E20014
:101FA000A131DB218931ED302000E100B530E200C4
:101FB000A131DB218931F6302000E100A830E200B8
:101FC000A131DB218931E9302000E100AC30E200B1
:101FD000A131DB21893179302000E100B330E2000A
:101FE000A131DB218931FF2F2F30E100B430E20035
:101FF0006C08E3000330E400A131DB2189310800E3
:102000007C30280096009501F5302200D600203063
:10201000D70020009210210092140730280097006A
:1020200008002000A4005A28FF30A000B530A1000D
:102030008B285C30A000B530A1008B288530A00033
:10204000B530A1008B289530A000B530A1008B28B9
:102050008D30A000B530A1008B287530A000B530C0
:10206000A1008B287D30A000B530A1008B28133053
:10207000A000B630A1008B289D30A000B530A10093
:102080008B28AD30A000B530A1008B282230A000F5
:10209000B530A1008B282C30A000B530A1008B28D2
:1020A000F730A000B430A1008B28A530A000B530D7
:1020B000A1008B282408A200A3012308003A0319D9
:1020C000622855282208003A03191428013A0319F6
:1020D0001928033A03191E28013A03192328073A3D
:1020E00003192828013A03192D28033A0319322825
:1020F000013A031937280F3A03193C28013A03190A
:102100004128033A03194628013A03194B28073A94
:10211000031950285528080020006C088600033059
:1021200087000108031D9528962898288F31FF2FD6
:10213000ED30E100B530E200A131DB21903120002B
:102140006C08A0000930A100B630A200A431C1245F
:102150009031200020082104031DAF28B1288931C7
:102160007D291930E100B430E200A430E300B4303E
:10217000E400A131DB21903121006F0A031DC12849
:10218000C228CB285A302000E100B430E200A1314F
:10219000DB219031DF2803302000E100B430E20081
:1021A00021006F082200A000A10120082000E30008
:1021B000220021082000E400A131DB2190315630BB
:1021C0002000E100B330E200A131DB219031220098
:1021D000BB01092A15302000A00022003B08A231D3
:1021E00033229031223E8600023087000103031D16
:1021F000FA28FB28082928302000A0000130A1007F
:102200000E30A200B630A300A4311024903114295E
:1022100028302000A0000130A100FA30A200B53023
:10222000A300A43110249031C1302000E100B1306E
:10223000E20022003B08013E2000E30000300318CA
:102240000130E4001530A00022003B08A231332207
:102250009031203E86000230870001082200A00055
:10226000A10120082000E500220021082000E6004E
:102270002830E7000130E80022003B08A2000530CA
:10228000A235890B40292208AE3E86000130870026
:10229000010890311120903120002108EA00200827
:1022A000E900A131DB21903122003B08A00005307C
:1022B000A035890B58292008C93E860001308700C7
:1022C000010A03196429652981296F302000E10082
:1022D000B430E20022003B08A0000530A035890B95
:1022E0006E292008C93E8600013087000108013EA2
:1022F0002000E300003003180130E400A131DB21AD
:10230000903122003B08A0000530A035890B8529BB
:102310002008AF3E8600013087000108031D912987
:1023200092299729E530AC00B530AD009B29D83013
:10233000AC00B530AD000D302000E100B530E2005A
:1023400022002D082000E40022002C082000E300D9
:10235000A131DB21903115302000A00022003B0884
:10236000A23133229031233E8600023087000108DB
:102370000319BB29BC29FE29DF302000E100B4305D
:10238000E200A131DB2190312200AF01EB290A30BC
:102390002000E100B530E2001530A00022003B082B
:1023A000A23133229031243E22002F07A0002008C2
:1023B0008600023087000108A100A2012108200048
:1023C000E300220022082000E400A131DB2190314B
:1023D00001302200AF0715302000A00022003B088A
:1023E000A23133229031233E86000230870001085B
:1023F00022002F02031CFD29FE29C729ED302000F1
:10240000E100B530E200A131DB2190310130220042
:10241000BB076D083B02031C0E2A0F2AEA28703006
:102420002000E100B330E200A131DB219031962899
:10243000F7010630F0007708A23120229231A03E49
:1024400086000130870001080319272A282A052B56
:102450000630F0007708A23120229231A23E860099
:10246000013087000130810741310318810AE82AD1
:10247000F001F00A7708A33126239231052B0630AC
:10248000F0007708A23120229231A23E860001306E
:102490008700403FF500413FF60003307602E83008
:1024A000031975020318552A562A742A203022006F
:1024B0006E02031C5C2A5D2A642AF001F00A770888
:1024C000A33126239231692AF0017708A33126230C
:1024D000923101302200EE026E08031D702A712A2B
:1024E000052B3E30EE00052B0630F0007708A231B8
:1024F00020229231A23E860001308700403FF50045
:10250000413FF6000B307602B8300319750203180C
:102510008A2A8B2A912AF0017708A3312623923147
:10252000052B0630F0007708A23120229231A23E1E
:102530008600013087000030C03FC13F052B0630C8
:10254000F0007708A23120229231A23E86000130AD
:102550008700403FF500413FF60001307602F4303D
:10256000031975020318B52AB62ABD2AF001F00A2C
:102570007708A33126239231052B0630F000770827
:10258000A23120229231A23E860001308700403FD6
:10259000F500413FF60003307602E830031975027A
:1025A0000318D32AD42ADA2AF0017708A331262384
:1025B0009231052B0630F0007708A23120229231AB
:1025C000A23E8600013087000030C03FC13F052B8E
:1025D0000630F0007708A23120229231A03E86001A
:1025E000013087000108F500F6017608003A03196A
:1025F000FA2A052B7508013A0319382A033A0319F8
:102600003F2A013A03199F2A052B0630F00077086C
:10261000A23120229231A13E8600013087000108BC
:102620000319132B142BB82B0630F0007708A231B6
:1026300020229231A23E86000130870001308107BE
:1026400041310318810A0630F0007708A2312022B8
:102650009231A23E860001308700403FF500413FA5
:10266000F60003307602E830031975020318392B9F
:102670003A2B8E2B0630F0007708A23120229231BF
:10268000A43E860001308700013081070630F0004B
:102690007708A23120229231A43E860001308700C3
:1026A00019300102031C552B562BB82B0630F000B5
:1026B0007708A23120229231A43E860001308700A3
:1026C00081010630F0007708A23120229231A53E28
:1026D0008600013087000630F0007708A231202202
:1026E0009231A53E84000130850000080319792B42
:1026F0007B2B01307C2B003081000630F000770806
:10270000A23120229231A53E8600013087000108C7
:10271000F3007708A3310A239231B82B0630F0007A
:102720007708A23120229231A23E86000130870034
:10273000403FF500413FF6000B307602B8300319F8
:1027400075020318A42BA52BAB2BF3017708A3313B
:102750000A239231B82B0630F0007708A2312022EC
:102760009231A23E8600013087000030C03FC13F59
:102770000130F70702307702031CBF2BC02B192A48
:10278000080015302100EB004B30EA00BE30890B09
:10279000C72BEA0BC72BEB0BC72B0000A4319924E6
:1027A00093316E302000A0001830A100A1316021CB
:1027B00093318B170B17EB302000E100B530E200AE
:1027C000A131DB219331A4302000E100B330E200DD
:1027D000A430E300B430E400A131DB219331C030F8
:1027E0002200BC003F30BD0076302000E100AE305A
:1027F000E200C030E3003F30E400A131DB2193313F
:102800009A302000E100B030E2004030E3000030B8
:10281000E400A131DB21933188310A2093318031EA
:10282000022093312200ED001F302000E100B33080
:10283000E20022006D082100EA00EB016A08200096
:10284000E30021006B082000E400A131DB2193317B
:1028500077302000E100B030E200A131DB2193317C
:10286000CA302000A100B530A200A231A0229331CD
:1028700005302100EB000F30EA00F130890B3E2CCF
:10288000EA0B3E2CEB0B3E2C2200BE01662CCA301C
:102890002000A100B530A200A231A0229331053062
:1028A0002100EB000F30EA00F130890B552CEA0BC8
:1028B000552CEB0B552C26302000E100B630E20001
:1028C000A131DB21933102302200BE073E086D02A8
:1028D00003186B2C6C2C472CEF302000E100B43037
:1028E000E200A131DB219331CB302000E100B23096
:1028F000E200A131DB21933101302200C400C72C5A
:102900000130C500BF2C6400220044082000A8004C
:10291000220045082000A90001309B313923933162
:1029200036302000E100B530E200220044082100EA
:10293000EA00EB016A082000E30021006B08200098
:10294000E400220045082100EC00ED016C082000A5
:10295000E50021006D082000E600A131DB21933164
:1029600003302100EB000830EA007730890BB62CE9
:10297000EA0BB62CEB0BB62C02302200C50745083B
:102980006D020318C42CC52C832C0130C4074408E5
:102990006D020318CC2CCD2C802CED302000E100F2
:1029A000B530E200A131DB21933101302200C400B7
:1029B000202D0130C500182D64002200440820009D
:1029C000A800220045082000A90000309B313923CF
:1029D000933102302000E100B530E20022004408CB
:1029E0002100EA00EB016A082000E30021006B08E7
:1029F0002000E400220045082100EC00ED016C08F5
:102A00002000E50021006D082000E600A131DB2157
:102A1000933103302100EB000830EA007730890B56
:102A20000F2DEA0B0F2DEB0B0F2D02302200C507E7
:102A300045086D0203181D2D1E2DDC2C0130C40726
:102A400044086D020318252D262DD92CED302000C9
:102A5000E100B530E200A131DB2193313A302000B2
:102A6000E100B230E200A131DB219331AE30200031
:102A7000E100B230E200A131DB2193312200C60136
:102A8000CB2D46082100EA000530EA35890B452D9B
:102A90006A08AE3E860001308700810122004608A8
:102AA0002100EA000530EA35890B532D6A08AF3E54
:102AB00086000130870022004608A2315B22933154
:102AC0008100220046082100EA000530EA35890B22
:102AD000662D6A08B03E8600013087002200460855
:102AE0002100EB000530EB35890B732D6B08AF3EF1
:102AF0008400013085000008810022004608210082
:102B0000EA000530EA35890B822D6A08B13E86005D
:102B1000013087008101220046082100EA000530CB
:102B2000EA35890B902D6A08B23E86000130870095
:102B30008101220046082100EA000530EA35890BB0
:102B40009E2D6A08C33E8600013087000030C03FDA
:102B5000C13F220046082100EA000530EA35890B12
:102B6000AE2D6A08C53E8600013087000030C03FA8
:102B7000C13F220046082100EA000530EA35890BF2
:102B8000BE2D6A08C93E860001308700FF308100F3
:102B900001302200C6076D084602031CD02DD12D3E
:102BA000412D05302100EB000F30EA00F130890B98
:102BB000D72DEA0BD72DEB0BD72DEC302000E10001
:102BC000B430E200A131DB219331FF302000E1007D
:102BD000B030E200A131DB2193312200C101362E59
:102BE00040302000E100B530E20022004108013E03
:102BF0002000E300003003180130E400A131DB21A4
:102C00009331220041082100EA000530EA35890BA2
:102C1000062E6A08AF3E8600013087000108031DBA
:102C2000122E132E1C2EC3302000E100B530E2001E
:102C3000A131DB219331332E220041082100EA002B
:102C40000530EA35890B212E6A08AE3E8600013038
:102C5000870008308100BC302000E100B530E20080
:102C6000A131DB21933101302200C1076D084102FF
:102C7000031C3B2E3C2EF02D9D302000E100AE3099
:102C8000E200A131DB2193319B31FA239331220001
:102C9000C201972E15302000A00022004208A23168
:102CA00033229331223E8600023087000103031D48
:102CB0005A2E5B2E6D2EED302000E100B330E20085
:102CC00022004208013E2000E300003003180130DA
:102CD000E400A131DB219331942E45302000E10046
:102CE000B430E20022004208013E2000E300003040
:102CF00003180130E4001530A00022004208A23180
:102D000033229331203E86000230870001082100E3
:102D1000EA00EB016A082000E50021006B082000B2
:102D2000E600A131DB21933101302200C2076D089A
:102D30004202031C9C2E9D2E4A2E8A302000E10068
:102D4000B330E200A131DB2193312200C301E92E2F
:102D500015302000A00022004308A2313322933115
:102D6000223E8600023087000103031DB82EB92ED3
:102D7000E62E93302000E100B430E2002200430848
:102D8000013E2000E300003003180130E400A131CF
:102D9000DB21933103302000A30022004308A5313A
:102DA0002425933115302100EB004B30EA00BE3072
:102DB000890BD82EEA0BD82EEB0BD82E0000200062
:102DC000A30122004308A5312425933101302200BC
:102DD000C3076D084302031CEE2EEF2EA82EED3024
:102DE0002000E100B530E200A131DB219331573002
:102DF0002000E100B230E200A131DB219331640018
:102E00002200C0010A2F400888316B209331013025
:102E10002200C0076D084002031C0F2F102F032F44
:102E2000A13121219331003A0319172F182FFF2EBA
:102E3000A3315E2393312200C7006908031D212FAF
:102E4000222F2B2F1B304706031D272F282F2B2F18
:102E50000130E900FF2E6903031D2F2F302F3C2F77
:102E60005B304706031D352F362F392F0230E9001E
:102E7000FF2E2200E901FF2E02306906031D412FBB
:102E8000422F7E2F41304706031D472F482F392FF1
:102E9000BF01552F18302000E100B630E200A1310B
:102EA000DB21933101302200BF076A083F02031C77
:102EB0005A2F5B2F4A2FA0302000A0000330A10022
:102EC0002030A2000430A300A43110249331A0309C
:102ED0002000A000A231712293312000200822009E
:102EE000EA0015302000E100B530E200A030E30038
:102EF0000330E400A131DB219331392F0D30470637
:102F00000319832F842F8A2F0A304706031D892F28
:102F10008A2FBF2F4708A4317324933122006A08F7
:102F2000A03E86000330870081016A080319992FAB
:102F30009A2FA62F20302000A0000430A100A0303E
:102F4000A2000330A300A43110249331A03020004C
:102F5000EC0090318C209331ED302000E100B53051
:102F6000E200A131DB219331DF302000E100B530F8
:102F7000E200A131DB2193312200EA01FF2E08306B
:102F800047060319C42FC52FCB2F7F304706031DDB
:102F9000CA2FCB2FDB2F6A080319CF2FD02FFF2E7C
:102FA0000130EA0218302000E100B630E200A13121
:102FB000DB219331FF2E3F306A020318E02FE12F0F
:102FC000FF2E4708A4317324933161302200470259
:102FD000031CEB2FEC2FF42F7B3047020318F12F4B
:102FE000F22FF42F2030C7026A08A03E860003307B
:102FF0008700470881000130EA07FF2E80314D2805
:103000002000A40002302402031C072808280928F5
:103010006D280630A0002408A23133229831A13E49
:1030200086000130870001082000230603191928B3
:103030001A286D280630A0002408A23133229831C6
:10304000A13E860001308700200023088100063061
:10305000A0002408A23133229831A23E860001301C
:1030600087000030C03FC13F06302000A000240888
:10307000A23133229831A43E8600013087008101BD
:1030800006302000A0002408A23133229831A53E4A
:103090008600013087008101200023080319512890
:1030A00052285D282408031D562857285A28220034
:1030B0008E146D2822000E166D282408031D612829
:1030C0006228652822008E10672822000E12200038
:1030D000A0012408A3317B2398310800F301D828EC
:1030E0007308F0000530F035890B73287008C33E73
:1030F000860001308700160001040319802881280A
:1031000092287308F0000530F035890B8428700888
:10311000C33E86000130870001308102413100301A
:10312000813B7F317308F0000530F035890B95281D
:103130007008C53E8600013087001600010403199F
:10314000A228A328B4287308F0000530F035890BB5
:10315000A6287008C53E8600013087000130810234
:1031600041310030813B7F317308F0000530F0358C
:10317000890BB7287008C73E86000130870016000B
:1031800001040319C428C528D6287308F0000530A7
:10319000F035890BC8287008C73E860001308700CB
:1031A0000130810241310030813B7F310130F30732
:1031B00022006D087302031CDE28DF287028080037
:1031C00001302000C100220049082000C300220075
:1031D00048082000C2001F30C5000030C60024008F
:1031E000E9011929FF30C507FF30C63D3E080F39F8
:1031F000C4000A3044020318FE28FF280229303098
:10320000C40704295730C40745084A3E86000230E7
:10321000870044088100C101FF30C207FF30C33D71
:103220003E0E0F39BE003F0EF039BE043F0E0F397F
:10323000BF0020004608803AC00080304002031DD5
:10324000232902304502031C26292729452920006D
:103250003E083F04031D2D292E29F2284108031D95
:1032600032293329F2284308803AC00080304002D6
:10327000031D3C2901304202031C3F2940294529F6
:103280002000EF1844294529F22820003D08B50008
:103290003C08B40045084A3EB6004308B80042085E
:1032A000B700A5316425983108002C302100E000DA
:1032B0000030E100C030E4003F30E500E801E90102
:1032C00055302000A000AA30A100A1310D21993174
:1032D000DF29E601E701FF30E30068086904031D08
:1032E0007229732976296F08E300A029680369040D
:1032F000031D7B297C297F295A30E300A029680817
:10330000FE3E2000A700FF302100693D2000A800FC
:10331000003028022A300319270203189029912926
:10332000A02920302100E200680862072000A700E1
:103330002708FE3E86000230870001082100E300D6
:10334000210063082000A700A80121006635A03EE7
:103350008600870120002708C03F2808C13F0130B0
:103360002100E8070030E93D0130E6070030E73D85
:1033700000306702203003196602031CC029C129EE
:103380006B298B1365082000A10021006408200030
:10339000A000A331D2239931210065082000A100AB
:1033A000210064082000A000A030A200A531AA25B9
:1033B00099318B1720302100E4070030E53D2100D2
:1033C00061086902031DE62960086802031CE929F7
:1033D000EA296929080020002F08B7002E08B60046
:1033E00036083704031DF529F629FA29B530B60049
:1033F000B530B700B801B901012A0130B807003073
:10340000B93D3608380784003708393D8500120079
:10341000031D0B2A0C2AFD293908B3003808B20015
:10342000220049082000B500220048082000B4000E
:103430006F181B2A1C2A542A2E2A20302000A30091
:103440000030A4002D08A6002C08A500A731A22753
:10345000993101302000B8070030B93D3908803A71
:10346000B0003508803A3002031D382A340838028B
:10347000031C3B2A3C2A1D2A542A3608840037089C
:1034800085000008B000B1013008A3003108A40095
:103490002D08A6002C08A500A731A22799310130DC
:1034A0002000B6070030B73DFF302000B207FF30E4
:1034B000B33D320A031D602A330A031D602A612AC4
:1034C0003D2A6F1C642A652A852A772A203020002D
:1034D000A3000030A4002D08A6002C08A500A731E9
:1034E000A227993101302000B8070030B93D3908D2
:1034F000803AB0003508803A3002031D812A340832
:103500003802031C842A852A662A0800013020001C
:10351000C300BF1B8C2A8E2A01308F2A0030C600C0
:10352000220049082000C500220048082000C400ED
:10353000460803199C2A9D2AB12AFF30C407FF3090
:10354000C53D4608031DA52AA62AAB2A2B30C1007B
:103550000030C200AF2A2D30C1000030C200410847
:10356000C6001F30C7000030C8002400E901ED2A62
:10357000FF30C707FF30C83D47084A3E860002308B
:1035800087000A30A0000030A1003F08A3003E08D9
:10359000A200A63198269A3120002108A700200811
:1035A000A600A2310E229A3120002608303E81006A
:1035B000C301FF30C407FF30C53D0A30A000003012
:1035C000A1003F08A3003E08A200A631EA269A31D6
:1035D00020002108BF002008BE0020004808803AD3
:1035E000C00080304002031DF72A01304702031C4F
:1035F000FA2AFB2A192B20003E083F04031D012B49
:10360000022BB82A4308031D062B072BB82A4508AE
:10361000803AC00080304002031D102B013044026C
:10362000031C132B142B192B2000EF18182B192B0C
:10363000B82A2000460803191E2B1F2B2A2BFF3007
:10364000C707FF30C83D47084A3E86000230870062
:10365000460881003D08B5003C08B40047084A3ED2
:10366000B6004508B8004408B700A53164259A3172
:1036700008002000AC002C03031D3F2B402B432BE4
:103680004330AD00452B5230AD000D30B200B301D8
:103690000A30A0000030A1002808AA00AB012A08C7
:1036A000A2002B08A300A631EA269B3120002008A7
:1036B000303EAE000A30A0000030A1002808AA0069
:1036C000AB012A08A2002B08A300A63198269B3143
:1036D00020002008303EAF000A30A0000030A100DA
:1036E0002908AA00AB012A08A2002B08A300A631D2
:1036F000EA269B3120002008303EB0000A30A000AE
:103700000030A1002908AA00AB012A08A2002B085A
:10371000A300A63198269B3120002008303EB1003E
:103720002D30A1000030A200A231A0229B310B302D
:103730002000AA006230890B9B2BAA0B9B2B000058
:103740000A302000A0000030A1002908AA00AB0127
:103750002A08A2002B08A300A631EA269B312000EC
:103760002008303EAE000A30A0000030A100290839
:10377000AA00AB012A08A2002B08A300A6319826B4
:103780009B3120002008303EAF000A30A0000030FE
:10379000A1002808AA00AB012A08A2002B08A30058
:1037A000A631EA269B3120002008303EB0000A30C6
:1037B000A0000030A1002808AA00AB012A08A2003E
:1037C0002B08A300A63198269B3120002008303E0C
:1037D000B1002D30A1000030A200A231A0229B3107
:1037E0000B302000AA006230890BF42BAA0BF42BBB
:1037F00000000800C0302200A6003F30A700C03003
:103800002000A0003F30A100A131FC219B3120000D
:1038100020082200A0000130A6070030A73D27089D
:103820002000A100220026082000A000A131FC21D8
:103830009B31200020082200A1000130A6070030A3
:10384000A73D5A302106031D262C272C802C20084A
:103850002100EF0020302200A200A301A4012208D1
:10386000230786000230870027082000A1002200DD
:1038700026082000A000A131FC219B312000200857
:10388000810001302200A6070030A73D0130A307C8
:103890000030A43D003024022A3003192302031C07
:1038A000522C532C2F2CA501792C15302000A00070
:1038B00022002508A23133229B31213E86000230AE
:1038C000870009300106031D662C672C762C220028
:1038D00025082000EC000530EC35890B6C2C6C08B9
:1038E000AE3E8600013087000930810001302200A1
:1038F000A5076D082502031C7E2C7F2C552CF22C6D
:10390000FF302100EF002200A80115302000A000A8
:1039100022002808A23133229B31203E860002304B
:103920008700220028080B3E810015302000A000EF
:1039300022002808A23133229B31213E860002302A
:103940008700810115302000A00022002808A23144
:1039500033229B31223E86000230870081011530E0
:103960002000A00022002808A23133229B31233EF0
:10397000860002308700810115302000A00022005F
:103980002808A23133229B31343E86000230870062
:10399000810115302000A00022002808A231332226
:1039A0009B31243E2000A3000030A400A50010306D
:1039B000A6000030A700A23187229B3101302200EF
:1039C000A80702302802031CE62CE72C852C99312D
:1039D00055219B31A2302000E100B130E200A1313D
:1039E000DB219B3108003408860001308700063057
:1039F0000106031DFC2CFD2C842D3308013E200004
:103A0000A80021003208013E2000A90000309B31AF
:103A100039239C31210032082000EC000530EC35C0
:103A2000890B0F2D6C08AE3E8600013087000930EF
:103A3000010603191C2D1D2D5C2D0330A300210050
:103A40003208A53124259C31210032082000EC00E9
:103A50000530EC35890B292D6C08AE3E860001300F
:103A6000870007308100210032082000EC0005307B
:103A7000EC35890B382D6C08C93E86000130870073
:103A8000FF3081009B30E100A930E20021003308C3
:103A9000013E2000E300003003180130E400210063
:103AA0003208013E2000E500003003180130E60036
:103AB000A131DB219C31842D210032082000EC0053
:103AC0000530EC35890B612D6C08C93E860001304C
:103AD0008700FF3081007E30E100A830E200210045
:103AE0003308013E2000E300003003180130E400F9
:103AF00021003208013E2000E500003003180130AB
:103B0000E600A131DB219C312000A3012100330814
:103B1000A53124259C312000A301210033089831D0
:103B200000209C31210034088600013087000930D4
:103B3000010603199C2D9E2D87317F2F34088600A6
:103B400001308700810134081B3E86000130870068
:103B5000FF30810003302000E100B330E20021009B
:103B60003308013E2000E300003003180130E40078
:103B7000A131DB219C319C2D21003408023E8600BE
:103B8000013087000108031DC62DC82D8731B62FCF
:103B9000340A8600013087000103031DD02DD12D8A
:103BA000C62D34081C3E8600013087008101153087
:103BB0002000A00021003308A23133229C31233E93
:103BC00086000230870001080319E72DE92D8031B6
:103BD000DB282100AB010A2E2B0834072000EC0063
:103BE0006C08053E8600013087001530A0002100DA
:103BF0003308A23133229C31243E21002B072000C0
:103C0000ED006D088400023085000008810001305D
:103C10002100AB0715302000A00021003308A2319D
:103C200033229C31233E86000230870001082100A8
:103C30002B02031C1C2E1D2EEC2D3408043E860086
:103C40000130870015302000A00021003308A23188
:103C500033229C31233E840002308500000881001D
:103C600021006F0A0319352E362E492E3408053EE1
:103C700086000130870001086F06031D402E412E8B
:103C8000492E34081C3E8600013087000130810037
:103C90005B2E3408043E86000130870003300102A9
:103CA000031C532E542E5B2E34081C3E860001301C
:103CB000870001308100340886000130870003301E
:103CC000810020302000E100B130E2002100330803
:103CD000013E2000E300003003180130E400A13170
:103CE000DB219C312100A6018031C72820004B0830
:103CF00086008701403FCE00413FCF004E08840040
:103D00004F0885001200253A031D872E882EE52FC7
:103D10004B08860087010130810741310318810A71
:103D20002200C801C90100302000EF00FF3023004D
:103D3000AC00FF30AD002000D601C02E6F144B0840
:103D4000860087010130810741310318810AC02EA6
:103D5000EF149F2E0130D600C02E4B08860087013D
:103D6000403FCE00413FCF004E0884004F08850001
:103D700000082D3A03199E2E1D3A0319A82EAA2ECB
:103D800056080319C42EC52EAD2E6F1CC82EC92E81
:103D9000CB2EFD30EF054B08A6004C08A700A7313D
:103DA00046279E31200027082200C900200026084F
:103DB0002200C800C91FDD2EDE2EE62E20006F1463
:103DC0002200C809C909C80A0319C90A20004B08FA
:103DD00086008701403FD700413FD8005708840044
:103DE000580885001200643A0319F72EF82E022FA6
:103DF00057088400580885001200693A031D012FF6
:103E0000022F282F4C0886004D08870001088400E7
:103E1000850102308107003FD200013FD3005708DF
:103E2000013ECE000030583DCF004B088600870190
:103E30004E08C03F4F08C13F4A08BD004908BC00BA
:103E40005308BF005208BE009A3186229E31FF2FD0
:103E500057088400580885001200783A031D312F56
:103E6000322F622F4C0886004D088700010884001D
:103E7000850102308107003FD200013FD30057087F
:103E8000013ECE000030583DCF004B088600870130
:103E90004E08C03F4F08C13F592F4A08BD0049088E
:103EA000BC005308BF005208BE009831E0209E318C
:103EB000FF2F57088400580885000008783A031936
:103EC0004D2F622FD6014B0886008701403FCE0060
:103ED000413FCF004E0884004F0885001200733A1E
:103EE000031D732F742F7F2F4B088600870101302D
:103EF000810741310318810A0130D600C12F4B08D8
:103F000086008701403FCE00413FCF004E0884002D
:103F10004F08850012006C3A031D8F2F902FC12F80
:103F20004B0886008701403FCE00413FCF00013063
:103F30004E0784004F080318013E850012006C3ABA
:103F4000031DA32FA42FC12F4B0886008701403FDC
:103F5000CE00413FCF0002304E0784004F080318C7
:103F6000013E85001200733A031DB72FB82FC12FF1
:103F70004B08860087010330810741310318810A0D
:103F80007C2F56080319C52FC62FDB2F4A08AD001A
:103F90004908AC004C0886004D08870001088400E1
:103FA000850102308107003FAE00013FAF0099312B
:103FB000EB219E31FF2F20004B0886008701013046
:103FC000810741310318810AFF2F4B0886008701C2
:103FD000403FCE00413FCF004E0884004F0885008F
:103FE0000008D000D1015008A3005108A4004A08DD
:103FF000A6004908A500A731A2279E31DB2F0800A3
:1041E600080008000800FF3423001D121D160800F1
:1041F6008731FD27A0310800A434B43408343E3496
:104206003E00100E890C013908003E001A0E890C7A
:104216000139080020002108FC002008FD000800E4
:10422600640080010131890B142900347A08031DCA
:104236001D291F29013020290030080022006808A6
:10424600031D2629282901302929003008002000CD
:1042560021082200D700200020082200D6000800EE
:10426600200021082200E700200020082200E600A6
:104276000800200021082200E50020002008220076
:10428600E4000800200021082200E30020002008A6
:104296002200E2000800200021082200E1002000A0
:1042A60020082200E0000800200021082200DB0090
:1042B600200020082200DA00080020002108220041
:1042C600D900200020082200D80008002000101085
:1042D6000B140030A0000030A100A1315721A131FC
:1042E600080029009F019A01990198019D019C01EE
:1042F6001A309B0080309E0008002200580859049E
:104306000319862987298C2959088A0058080A0022
:10431600A131200091100800220056085704031905
:10432600952996299B2957088A0056080A00A13123
:104336002000921008002000200821040319A42957
:10434600A529AC2921082200CD0020002008220042
:10435600CC0008002000200821040319B329B42941
:10436600BB2921082200CB00200020082200CA0019
:104376000800BB3028009D009C0100302200D400BC
:104386000030D50020009213073028009E00080058
:104396002000A200A1311921A131003A0319D42924
:1043A600D529CD2920002208A4317324A131080083
:1043B60063302000EB000030D900DA006208DC0030
:1043C6006108DB006B30DD00A331F123A131080069
:1043D6007C3020009E009D01F4302200D800203061
:1043E600D9002000911021009114073020009F0071
:1043F600080020002108310092002000200831002A
:1044060091001513151414082000A100310013089B
:104416002000A00008002000A71B122A132A142A35
:104426001F2A2609A8002709A900A80A0319A90A0C
:104436002808A6002908A7000800F200F101721C4E
:10444600252A262A282A7008F1070310F00D0310E2
:10445600F20C7208031D302A312A222A710808003C
:104466002000A200A101221C392A3A2A3C2A20084F
:10447600A1070310A00D0310A20C2208031D442A55
:10448600452A362A210808002000A00043302006CD
:10449600031D4E2A4F2A522A22000C155A2A523040
:1044A6002006031D572A582A5A2A22000C110800F2
:1044B6002000A000682AA1310321A231702AA1316F
:1044C6000821A231702A0030702A2008003A031908
:1044D6005E2A013A0319622A662A0800200020088B
:1044E600A200772A0130A007200886000330870043
:1044F6000108031D7F2A802A752A22082002A000AF
:10450600A101A01BA103080020002308A800932AEC
:104516002808860002308700240881000130A80799
:104526000130A6020030A73B260A031D9E2A270A51
:10453600031D9E2A9F2A8B2A0800AE2A2108840082
:10454600220885000008A2314722A231013020004E
:10455600A1070030A23D2000210884002208850022
:104566001200031DB72AB82AA12A08003E00A50199
:104576002330A600A701A801A9010230AA0008302D
:10458600AB00AC01AD018530A40000302000A000D6
:104596000030A100A1314521A231200013110800ED
:1045A6003E00AF012330B0000130B100B201B301CB
:1045B6000230B4000830B500B601B7018530AE0050
:1045C60000302000A0000030A100A1314E21A23110
:1045D60020009311080020307A020318F32AF42AE7
:1045E600072B21006E08403E860003308700010835
:1045F60023009A0021006E08013E1F39F000700862
:10460600EE000130FA07092B210011120800F40010
:104616007408031D0F2B102B1B2B73080319142B67
:10462600152B182B22000E15252B22000E11252BDB
:10463600730803191F2B202B232B22008E16252BE4
:1046460022008E120800F1007108031D2B2B2C2B63
:10465600372B70080319302B312B342B21008C1289
:10466600412B21008C16412B700803193B2B3C2B48
:104676003F2B21000C12412B21000C1608000230A2
:104686003E0091002330920006309300940195017C
:1046960002309600143097009801990185309000F9
:1046A60000302000A0000030A100A1313321A33149
:1046B6002000131008007808203E8600033087008B
:1046C60001082000A1007808013E1F39A00020083B
:1046D600F80021009112220068080319732B742B2D
:1046E600762B0130E80221009116200021080800EF
:1046F6002000A1002108031D812B822B8D2B200871
:104706000319862B872B8A2B22000E15972B220046
:104716000E11972B20080319912B922B952B220013
:104726008E16972B22008E1208002000A100210869
:10473600031D9E2B9F2BAA2B20080319A32BA42B0A
:10474600A72B21008C12B42B21008C16B42B200829
:104756000319AE2BAF2BB22B21000C12B42B210068
:104766000C16080002303E009B0023309C000730E8
:104776009D0007309E009F010230A0001430A1006A
:10478600A201A30185309A0000302000A00000306D
:10479600A100A1313C21A3312000931008000B0D8C
:1047A6000B0D01392000A2002108310092002000E3
:1047B6002008310091001513151615158B137D0869
:1047C60096007C08960095142000220C031C8B137F
:1047D60003188B17310015111508080020005C0816
:1047E600E0005B08DF00032C5A08CA005908C9001C
:1047F6005F30CB005D08CC00CD019E317626A3311B
:1048060020005F088400600885001200031D0C2C40
:104816000D2CF72BD901DA01080020002108A7008A
:104826002008A6002708870026088600A60A03197E
:10483600A70A2308A5002208A400A20A0319A30AAE
:1048460024088400250885000008C03F8908031D48
:104856002D2C2E2C152C08002000A401A501201CAF
:10486600352C362C3A2C2208A4072308A53D013006
:10487600A235A30D890B3B2C0130A136A00C890B68
:10488600402C20082104031D492C4A2C322C2508D3
:10489600A1002408A00008002000B201B301662C84
:1048A6003108AF00B0012F08A3003008A4002E087D
:1048B600A6002D08A500A731A227A43101302000AB
:1048C600B2070030B33D2C0832078600023087005D
:1048D6000108B1003108031D712C722C532C0800FD
:1048E6002000A1002100111A792C7A2C7F2C20009F
:1048F600210823009A00962C7A080319832C842C0D
:10490600962C7B08403E8600033087002000210855
:1049160081007B08013E1F39A0002008FB00210012
:1049260011120130FA022100111608008831002008
:10493600A431A431F124A431A131EB21A431903169
:104946000020A431A131BC21A431A3314223A431DA
:10495600A331B523A431A231B922A431A231D32285
:10496600A4318731C527A431A1317421A431A031E6
:10497600FB20A431A1316921A4310800C82C0130E3
:10498600A0070130A1070030A23D200021088400C5
:10499600220885000008A30020088600033087004F
:1049A60001082306031DD82CD92CE22C20088600EA
:1049B600033087000108031DE12CE22CC22C2008DD
:1049C600860003308700210884002208850000083D
:1049D6000102A000A101031CA1030800023022006D
:1049E6008C008E01093021008C0009308E00303099
:1049F60023008C008E0124008C0109308E002500D6
:104A06008C018E01373026008C003F308E003F30FF
:104A160027008C003F308E0013303C00A900103078
:104A2600A800A4011D303D0094001D3095001430EF
:104A36009100270091019201930197019801990134
:104A460008002000A40002302402031C2B2D2C2D6C
:104A56002D2D632D0630A0002408A2313322A53166
:104A6600A03E8600013087000108200023060319B6
:104A76003D2D3E2D632D0630A0002408A2313322A1
:104A8600A531A03E86000130870020002308810062
:104A96000630A0002408A2313322A531A23E8600AA
:104AA600013087000030C03FC13F20002308031DAE
:104AB6005D2D5E2D632DA0012408A3319823A53119
:104AC600080020006F1C682D692D722D3608AC0079
:104AD6003508AE003408AD00A4314F24A5312000BE
:104AE600B81F762D772D792DB701B801BA01BB0114
:104AF6008D2D20302000A3000030A4003508A6002C
:104B06003408A500A731A227A53101302000BA0735
:104B16000030BB3D3B08803AB9003808803A39027C
:104B2600031D972D37083A02031C9A2D9B2D7C2DC9
:104B360020006F189F2DA02DA92D3608AC00350832
:104B4600AE003408AD00A4314F24A5310800203052
:104B56002000A6000B0D0B0D0139A5003100151321
:104B660015159516EA2D210831009200200020081F
:104B76003100910001302000A0070030A13D22083D
:104B860086008701403FA300413FA400240831006E
:104B96009400200022088600870101083100930056
:104BA60002302000A2072608031DDA2DDB2DDD2D9D
:104BB600310095128B137D08310096007C08960013
:104BC60095142000250C031C8B1303188B1701303A
:104BD6002000A602260A031DF12DF22DB62D310066
:104BE6001511150808007935A03E860002308700A9
:104BF6000030C03FC13F23009D1C022E032E152E00
:104C06007935A03E860002308700011522004A0849
:104C16004B0403190F2E102E152E4B088A004A0836
:104C26000A00A63123001D1D192E1A2E2C2E7935A9
:104C3600A03E860002308700811422004C084D04F5
:104C46000319262E272E2C2E4D088A004C080A0002
:104C5600A63123001908F0007908013E1F39F1003A
:104C660071087806031D382E392E3A2E462E7908FD
:104C7600203E860003308700700881007108F90025
:104C860001302200E807080001302000A3020030AE
:104C9600A43B230A031D532E240A031D532E542E10
:104CA600612EA001A101972E0130A0070130A107B6
:104CB6000030A23D0130A3020030A43B200886004C
:104CC6000330870001080319692E6A2E892E2108F0
:104CD60084002208850012000319722E732E892E75
:104CE600230824040319782E792E892E210884009E
:104CF600220885000008A5002008860003308700EA
:104D0600010825060319882E892E572E20088600AD
:104D1600033087002108840022088500000801026C
:104D2600A000A101031CA10308002000A501A31FE8
:104D36009D2E9E2EA52EA209A309A20A0319A30A37
:104D46000130A500A11FA82EA92EAE2EA009A109EB
:104D5600A00A0319A10A200821040319B32EB42EB0
:104D6600DB2E0130A400BE2E0130A035A10D890B2B
:104D7600B82E0130A407A11FC12EC22EB72E2108BE
:104D86002302031DC82E20082202031CCB2ECC2E84
:104D9600D02E2008A2022108A33B0130A136A00C88
:104DA600890BD12E0130A402031DDA2EDB2EC22E72
:104DB60025080319DF2EE02EE52EA209A309A20A73
:104DC6000319A30A2308A1002208A0000800200056
:104DD600A501A11FEF2EF02EF72EA009A109A00A0A
:104DE6000319A10A0130A500A31FFA2EFB2E022FDC
:104DF600A209A309A20A0319A30A0130A506A6015E
:104E0600A701200821040319092F0A2F372F013083
:104E1600A400142F0130A035A10D890B0E2F0130EF
:104E2600A407A11F172F182F0D2F0130A635A70D88
:104E3600890B192F21082302031D232F2008220284
:104E4600031C262F272F2C2F2008A2022108A33B64
:104E560026140130A136A00C890B2D2F0130A40297
:104E6600031D362F372F182F250803193B2F3C2FEC
:104E7600412FA609A709A60A0319A70A2708A10010
:104E86002608A00008002000AC01AD012608860017
:104E96008701403FA800413FA9002808840029084F
:104EA600850012002A3A031D592F5A2F892F2608EA
:104EB600860087010130810741310318810A2708DE
:104EC6008600870101088400850102308107003FC2
:104ED600AC00013FAD009D2F2D08A1002C08A000BD
:104EE6000A30A2000030A300A4312F24A7312000ED
:104EF6002B082007AC000030213DAD0026088600B7
:104F060087010130810741310318810A260886008E
:104F16008701403FA800413FA900280884002908CE
:104F260085000008D03EAB000A302B02031C9C2FE4
:104F36009D2F6F2F2D08A7002C08A6000800200023
:104F4600250826040319A82FA92FAF2F2508260404
:104F5600031DAE2FAF2FB42F2308A131CB21A731CC
:104F6600FF2F250886002608870049311600010410
:104F76000319BE2FBF2FDF2F2508860026088700BE
:104F86004931403FA700413FA80025088600260872
:104F960087004231403FA900413FAA002A08803AD3
:104FA600AB002808803A2B02031DDB2F27082902B5
:104FB6000318DE2FDF2FFF2F200025088600260886
:104FC600870042312508840026088500003FA70097
:104FD600013FA800403F27078400413F283D850048
:104FE6002308800025088600260887004231013004
:104FF600810741310318810A080020342034203407
:1050060020342034203420342034203420344534D5
:10501600783461346D3470346C3465343A34203409
:1050260053344234433454344C34203452344534AB
:105036004C3420343134203432342034203420347B
:105046002D342034523465346C3465346134733411
:10505600653420343134203461346E346434203481
:1050660032342034533477346934743463346834D6
:105076002E340D340A3400342034203420342034C5
:1050860020342034203420342034203445347834FD
:1050960061346D3470346C3465343A3420345334AE
:1050A6004234433454344C34203443344F344E3435
:1050B60020343134203432342034203420342D341A
:1050C600203443346F346E346E3465346334743450
:1050D60020343134203461346E3464342034323434
:1050E60020345334773469347434633468342E345A
:1050F6000D340A34003450346F347234743420342E
:10510600253464343A342034483475346E34673484
:105116002034753470342034643475347234693410
:105126006E3467342034743461346C346B342E340A
:10513600203450346F34723474342034253464345B
:1051460020346934733420346E346F347734203429
:105156004134553454344F34203441344E3453346E
:105166005734453452342E340D340A340034203446
:105176002034203420342034203420342034203489
:1051860020344534783461346D3470346C3465348D
:105196003A34203453344234433454344C34203477
:1051A600463455344C344C345F34523445345334DD
:1051B60045345434203420342D342034523465346C
:1051C6007334653474342034533477346934743426
:1051D6006334683462346F346134723464342E3428
:1051E6000D340A34003453344134563445345F3474
:1051F600533445345434543449344E344734533498
:10520600203420343A3420345334613476346534CF
:105216002034633475347234723465346E347434C5
:105226002034733465347434743469346E346734BA
:105236007334203474346F3420344E3456344D3441
:105246002034533474346F347234613467346534C3
:105256002E340D340A340034533445345434203457
:1052660048344C34203420343A34203453346534B2
:105276007434203470346F347234743420344834C7
:105286004F3454344C3449344E34453420346E341F
:1052960075346D3462346534723420342834753490
:1052A6007034203474346F3420343134363420343E
:1052B60064346934673469347434733429340D348E
:1052C6000A3400342034203420342034203420346E
:1052D6002034203420342034553473346134673418
:1052E60065343A3420345334453454342034483405
:1052F6004C3420343C3470346F34723474343A3461
:1053060031342D34253464343E3420343C346E3408
:1053160075346D3462346534723420346F347234CB
:1053260020344F34463446343E340D340A34003487
:1053360050346F34723474342034253464343A343F
:105346002034483475346E34673420347534703400
:10535600203464347534723469346E3467342034DE
:10536600743461346C346B342E34203450346F34DE
:1053760072347434203425346434203469347334FC
:1053860020346E346F3477342034423455345334F9
:1053960059342E340D340A340034533442344334F1
:1053A60054344C342034203420343A3420344D34B0
:1053B60061346E34753461346C346C347934203431
:1053C6004F344E342F344F34463446342F3446341B
:1053D60055344C344C345F345234453453344534AC
:1053E6005434203453347734693474346334683431
:1053F60062346F346134723464342E340D340A34BA
:10540600003450346F3472347434203425346434A8
:105416003A342034433461346C346C346534723439
:105426002034613462346F347234743465346434D5
:105436002E34203450346F3472347434203425348E
:1054460064342034733474346F3470347034653497
:1054560064342034723469346E34673469346E349B
:1054660067342E340D340A3400342034203420348A
:105476002034203420342034203420342034553451
:1054860073346134673465343A34203453344534E4
:105496005434203445345834543420343C34703435
:1054A6006F34723474343A3431342D3425346434E0
:1054B6003E3420343C346534783474343A343134F0
:1054C60030342D34393439343E340D340A34003412
:1054D6002034203420342034203420342034203426
:1054E60020342034553473346134673465342034C1
:1054F6003A34203453344234433454344C34203414
:1055060043344F344E342F34523445344C342034E3
:105516003C3470346F347234743431343E34203455
:105526003C3470346F347234743432343E340D3457
:105536000A34003450346F347234743420342534D1
:1055460064343A3420345034723465346634693401
:10555600783420346434693461346C3465346434AA
:1055660020342D343E342034453478347434653454
:1055760072346E3461346C342034493450342034FF
:10558600433461346C346C3420344D346F346434B9
:1055960065340D340A3400345334453454342034DD
:1055A60045345834543420343A3420345334653432
:1055B6007434203465347834743465346E3473341A
:1055C60069346F346E3428346E3475346D34623415
:1055D600653472342934203466346F34723420349E
:1055E6006534613463346834203470346F34723413
:1055F60074342E340D340A340034203420342034EC
:1056060020342034203420342034203420345534BF
:1056160073346134673465343A3420345334453452
:105626005434203441344134203420343C347034F2
:105636006F34723474343A3431342D34253464344E
:105646003E3420343C344F344E342F344F344634B9
:1056560046343E340D340A34003450346F347234D8
:1056660074342034253464343A34203449346E3466
:10567600763461346C346934643420346E34753471
:105686006D3462346534723420346F3472342034AD
:1056960049345034203455346E34693474342034EB
:1056A6002534643420342D343E3420344234553489
:1056B600533459340D340A34003450346F34723450
:1056C60074342034253464343A34203452346F34FC
:1056D6007534743469346E346734203474346F34FA
:1056E600203449345034203455346E34693474349B
:1056F6002034283450346F347234743420342534D2
:10570600643429342E3420344E3475346D34623486
:10571600653472343A342034003420342034203452
:10572600203420342034203420342034203455349E
:1057360073346134673465343A3420345334453431
:1057460054342034543459345034453420343C34A1
:1057560070346F34723474343E3420343C345334F1
:105766004C34493443342F34493450343E340D34A8
:105776000A34003450346F3472347434203425348F
:1057860064342034283449345034203455346E344B
:105796006934743429343A342034533465346E34DD
:1057A600643469346E34673420346434693467345D
:1057B6006934743420345B34253464345D342034E5
:1057C6002E342E342E340D340A34003453347534CA
:1057D600633463346534733473343A342034503468
:1057E6006F34723474342034253464342034733482
:1057F60074346134743465342034733465347434E9
:10580600203474346F3420344134553454344F3496
:10581600203441344E3453345734453452340D34E5
:105826000A340034553473346134673465343A3499
:105836002034533445345434203454345934503499
:10584600453420343C3470346F34723474343A3412
:1058560031342D34253464343E3420343C345334CE
:105866004C344934433420346F3472342034493450
:1058760050343E340D340A34003450346F347234AC
:1058860074342034253464343A3420344334613457
:105896006C346C3465346434203450346F34723470
:1058A600743420342534643420342D343E3420348A
:1058B6004134553454344F34203441344E34533407
:1058C600573445345234653464340D340A34003464
:1058D600553473346134673465343A342034533480
:1058E6004234433454344C342034523445344C34EA
:1058F60020343C346C3469346E34653431343E348F
:1059060020343C346C3469346E34653432343E347D
:105916002034283431342D342534643429340D347C
:105926000A340034553473346134673465343A3498
:10593600203453344234433454344C3420344334C6
:105946004F344E3420343C346C3469346E34653410
:1059560031343E3420343C346C3469346E3465342E
:1059660032343E342034283431342D3425346434F2
:1059760029340D340A340034533445345434203435
:1059860041344134203420343A342034533465349D
:105996007434203470346F34723474342034743474
:1059A6006F3420344134553454344F342034413428
:1059B6004E34533457344534523420346D346F34B6
:1059C600643465342E340D340A34003444344F3490
:1059D6005F34463455344C344C345F345234453499
:1059E600533445345434203420343A342034523439
:1059F6006534733465347434203450344234583446
:105A060043346F34723465342034703472346F34F6
:105A16006734723461346D342E340D340A340034F4
:105A26004534783465346334753474346534643499
:105A36003A342034533477346934743463346834F4
:105A460043346F346E34743472346F346C342834A7
:105A5600663461346C34733465342C342034253424
:105A660064342C3420342534643429340D340A3417
:105A760000344534783465346334753474346534AD
:105A860064343A34203453347734693474346334A8
:105A9600683443346F346E34743472346F346C3417
:105AA600283474347234753465342C3420342534F7
:105AB60064342C3420342534643429340D340A34C7
:105AC6000034533475346334633465347334733457
:105AD6003A342034533465347434743469346E344F
:105AE6006734733420347334613476346534643403
:105AF600203474346F3420344E3456344D342034CC
:105B060046346C346134733468342E340D340A34BC
:105B16000034533475346334633465347334733406
:105B26003A342034453478347434653472346E34FF
:105B360061346C34203450347234653466346934DC
:105B460078342034733465347434203474346F34C8
:105B5600203427342534643427340D340A34003491
:105B660050346F34723474342034253464343A3407
:105B7600203441346E34733477346534723465348A
:105B86006434203450346F34723474342034253401
:105B9600643420342D343E342034543441344C346F
:105BA6004B3449344E3447340D340A3400345034BF
:105BB6006F34723474342034253464343A342034E7
:105BC60049345034203455346E34693474342034B6
:105BD60061346E34733477346534723465346434C6
:105BE60020342D343E342034543441344C344B3438
:105BF60049344E3447340D340A34003450346F344B
:105C0600723474342034253464343A3420344434C1
:105C1600693461346C3469346E34673420346334E7
:105C26006F346D3470346C346534743465342034B8
:105C36002D343E34203452344F34553454344934A0
:105C46004E3447340D340A340034533475346334D7
:105C560063346534733473343A34203450346F34D7
:105C66007234743420342534643420346534783402
:105C7600743465346E34733469346F346E3420345E
:105C8600733465347434203474346F3420342534DA
:105C960064340D340A340034533475346334633455
:105CA6006534733473343A34203450346F34723478
:105CB60074342034253464342034743479347034A4
