:1000000080314D28023008007E1480310030860097
:10001000003087000B1F0D280E284B282100111ED1
:10002000122813281F282000111E172818281F28FF
:1000300021005E088A005D080A0080314B282100FB
:10004000911E2328242830282000911E28282928A2
:10005000302821005C088A005B080A0080314B28A8
:100060002100921C342835283E282000921C392873
:100070003A283E28A331FD2380314B282100911CD2
:10008000422843284B282000911C472848284B2809
:10009000A331EE2380317E10090080314F28823059
:1000A0008400A330850021001200EB001200EC0058
:1000B0001200ED001200EE001200EF00F801F9014D
:1000C000FA01FB01FC01FD012000EF01C7308400B3
:1000D0000030850024308731FA27803120308400B9
:1000E0000130850038308731FA278031A030840014
:1000F0000130850040308731FA278031203084007C
:100100000230850040308731FA278031A0308400EA
:100110000230850040308731FA278031203084005A
:100120000330850040308731FA278031A0308400C9
:100130000330850040308731FA2780317E1020005F
:100140009331DB2B2000A301A30A21003108A73142
:100150007A27803121003208033E86000130870073
:1001600081013208043E8600013087008101320897
:100170008600013087000130810022302000E1003C
:10018000B130E20021003108013E2000E3000030E0
:1001900003180130E400A43149248031792F210073
:1001A0003208023E8600013087000103031DD92872
:1001B000DA28792F320A8600013087000108031DF2
:1001C000E228E328792F2000A30121003108A7317C
:1001D0007A27803121003208033E860001308700F3
:1001E0000130810058302000EC000230ED00210089
:1001F0003208153E86000130870020006C08C03FA1
:100200006D08C13F210032088600013087000230AE
:1002100081009C302000E100AE30E2002100310876
:10022000013E2000E300003003180130E400A43157
:1002300049248031792F21003208023E86000130A6
:1002400087000103031D252926294629320A860035
:10025000013087000108031D2E292F294629320865
:10026000033E8600013087000130810758302000AE
:10027000EC000230ED0021003208153E860001300E
:10028000870020006C08C03F6D08C13F2100320A82
:100290008600013087000103031D4F2950292A2AB7
:1002A0003208153E86000130870016000104031D48
:1002B0005A295B292A2A3208033E8600013087002A
:1002C00001080319642965292A2A3208033E860099
:1002D000013087000A30010603196F29702981292E
:1002E0003208033E86000130870001082000EC0040
:1002F000ED016C082100A00020006D082100A10084
:100300008329A001A1012008A7003208043E86002D
:1003100001308700010832072000EC006C08053E20
:100320008600013087002100270881003208043E42
:10033000860001308700013081073208033E8600C5
:1003400001308700810112302000E100B230E2006C
:1003500021003108013E2000E30000300318013085
:10036000E400210027082000EC00ED016C08E50006
:100370006D08E600A4314924803121003208043E92
:100380008600013087000103031DC729C829EB2916
:100390006E0A0319CC29CD29EB2927086E06031D07
:1003A000D229D329EB2932081C3E86000130870070
:1003B0000130810099302000E100AA30E2002100E4
:1003C0003108013E2000E300003003180130E40052
:1003D000A43149248031210032081C3E86000130BE
:1003E000870001080319F529F629192A3208043E65
:1003F00086000130870010300102031C002A012A08
:10040000082A3208860001308700033081002A2A3A
:10041000B8302000EC000B30ED0021003208173E10
:1004200086000130870020006C08C03F6D08C13F86
:100430002A2A3208043E8600013087000230010279
:10044000031C232A242A2A2A320886000130870026
:10045000033081002100320A860001308700010349
:10046000031D332A342A792F3208153E86000130C5
:10047000870016000104031D3E2A3F2A792F320807
:10048000033E8600013087000108031D482A492ADF
:10049000792F32081C3E86000130870001080319BD
:1004A000522A532A792F3208043E860001308700F1
:1004B00002300102031C5D2A5E2A792F3208173EA2
:1004C00086000130870016000104031D682A692A8E
:1004D000792F27302000E100AE30E2002100310802
:1004E000013E2000E300003003180130E400A43195
:1004F0004924803121003208860001308700033012
:100500008100792F210032081C3E860001308700CF
:10051000010803198C2A8D2AA62BFF30AE00AC01EE
:10052000BB2A05302000A00021002C08A431A02403
:100530008031513E8600013087000103031DA12A4E
:10054000A22AB82A21002C082000EC000530EC3546
:10055000890BA72A6C08A03E86000130870001089D
:10056000031DB32AB42AB82A21002C08AE00C12AE0
:1005700001302100AC076D082C02031CC02AC12ADF
:10058000912A2E0A0319C52AC62A852B32081B3E3A
:100590008600013087002E0881002E082000EC0024
:1005A0000530EC35890BD12A6C08BB3E8600013042
:1005B00087002100310881002000A30121003108BB
:1005C000A7317A2780312100320886000130870068
:1005D000043081002E082000EC000530EC35890B3A
:1005E000EE2A6C08BD3E8600013087000130810094
:1005F00021002E082000EC000530EC35890BFD2A87
:100600006C08BE3E860001308700810121002E0863
:100610002000EC000530EC35890B0B2B6C08BF3E3D
:1006200086000130870081016430EC000030ED006D
:1006300021002E082000EE000530EE35890B1D2B21
:100640006E08B73E8600013087006C08C03F6D0819
:10065000C13F21002E082000EC000530EC35890B4D
:100660002E2B6C08A03E8600013087000A308100E6
:100670005C30E100AB30E20021003108013E200097
:10068000E300003003180130E40021002E08013E91
:100690002000E500003003180130E600A4314924B1
:1006A000803101302100A600712BA0302000E10034
:1006B000B530E2002100260832072000EC006C086B
:1006C000053E8600013087000108ED00EE016D084F
:1006D000E3006E08E400A431492480310130210098
:1006E000A6073208043E8600013087000108260272
:1006F000031C7B2B7C2B552B58302000E100B530A0
:10070000E200A43149248031792F03302000A30076
:1007100021003108A7317A27803121003208860074
:100720000130870007308100F5302000E100B13052
:10073000E20021003108013E2000E30000300318F0
:100740000130E400A43149248031792F3208063E7B
:100750008600013087000A302000A0002100320806
:10076000053E8400013085000008A431A0248031BA
:1007700001072100A500FF30AF00AA01D72B0530EB
:100780002000A00021002A08A431A02480314E3E80
:10079000860001308700010821002506031DD12BAA
:1007A000D22BD52B2A08AF00DD2B0130AA076D080C
:1007B0002A02031CDC2BDD2BBF2B2F0A0319E12B94
:1007C000E22BF92B2F0831060319E72BE82BF92B25
:1007D00005302000A00021002F08A431A024803182
:1007E000513E8600013087000103031DF82BF92BD1
:1007F000232C03302000A30021003108A7317A27E1
:1008000080312100320886000130870007308100E6
:100810002C302000E100AB30E20021003108013E25
:100820002000E300003003180130E4002100250817
:100830002000EC00ED016C08E5006D08E600A43135
:1008400049248031792F21002F082000EC00053049
:10085000EC35890B282C6C08A03E860001308700FF
:100860000108031D342C352C8C2C210032081B3E32
:100870008600013087002F0881002F082000EC003F
:100880000530EC35890B412C6C08BB3E86000130ED
:10089000870021003108810002302000A3002100E0
:1008A0003108A7317A2780312100320886000130D3
:1008B0008700043081002000A301A30A21002F0833
:1008C0009A311F22803121002F082000EC000530D2
:1008D000EC35890B682C6C08A03E8600013087003F
:1008E00005308100C230E100AE30E2002100310865
:1008F000013E2000E300003003180130E400210035
:100900002F08013E2000E500003003180130E6000A
:10091000A43149248031792F21002F082000EC00D8
:100920000530EC35890B912C6C08A03E8600013017
:10093000870009300106031D9E2C9F2CF32C2100FB
:1009400032081B3E8600013087002F0881002F08E7
:100950002000EC000530EC35890BAB2C6C08BB3E5D
:100960008600013087002100310881002000A301AA
:1009700021003108A7317A27803121003208860012
:10098000013087000630810032081B3E86000130AE
:1009900087000108A4003108013E2000AB002100BF
:1009A0002408013E2000AC0001309031002080314D
:1009B0003C302000E100AC30E20021003108013E73
:1009C0002000E300003003180130E40021002F086C
:1009D000013E2000E500003003180130E600A4319C
:1009E00049248031792F0330A30021003108A73139
:1009F0007A278031210032088600013087000730D5
:100A0000810055302000E100B030E20021003108C3
:100A1000013E2000E300003003180130E400210013
:100A20002F08013E2000E500003003180130E600E9
:100A3000A43149248031792F21003208023E8600FA
:100A4000013087000108031D262D272D792F320A3A
:100A50008600013087000103031D2F2D302D792FD3
:100A60002000A301210031089A311F22803121008A
:100A700032081B3E8600013087000108AB002000D1
:100A8000A30121002B08A7317A27803121003108EA
:100A9000013E2000AB0021002B08013E2000AC00ED
:100AA0000130903100208031210032088600013071
:100AB0008700063081002B082000EC000530EC3563
:100AC000890B5F2D6C08A03E860001308700063040
:100AD0008100D930E100AD30E20021003108013E53
:100AE0002000E300003003180130E40021002B084F
:100AF000013E2000E500003003180130E600A4317B
:100B000049248031792F21003208173E86000130B8
:100B1000870016000104031D8E2D8F2D792F3208BA
:100B20001B3E8600013087000108AD002D0A031925
:100B30009A2D9B2DAD2D2D082000EC000530EC35B5
:100B4000890B9F2D6C08A03E860001308700043081
:100B500001060319AC2DAD2DBB2D2000A3012100F2
:100B600031089A311F22803121003208860001307D
:100B700087008101792F210032081F3E8600013055
:100B800087000108031DC52DC62D4A2E32081D3EC3
:100B90008600013087002D082000EC000530EC3580
:100BA000890BCF2D6C08A43E84000130850000081D
:100BB00001020318DC2DDD2D332E210032081D3EED
:100BC0008600013087002D082000EC000530EC3550
:100BD000890BE72DA5306C07ED006D080107860035
:100BE0000130870001082100A80028080319F92D09
:100BF000FA2D062E28082000EC00ED016C082100DB
:100C0000A20020006D082100A3000A2E0A30A200D5
:100C10000030A30032081E3E860001308700220803
:100C2000810032081F3E86000130870001308100BC
:100C3000B9302000E100AB30E20021003108013E74
:100C40002000E300003003180130E40021002808F0
:100C50002000EC00ED016C08E5006D08E600A43111
:100C6000492480314A2E2100320886000130870055
:100C70000B3081002000A301210031089A311F228E
:100C8000803102302000A30021002D08A7317A27EF
:100C90008031792F210032081F3E86000130870005
:100CA0000103031D542E552E762E2000A301A30A06
:100CB000210031089A311F22803114302000EC00CD
:100CC0000030ED0021003208173E86000130870019
:100CD00020006C08C03F6D08C13F210032081F3E54
:100CE00086000130870002308100792F32081F3ED4
:100CF00086000130870002300106031D802E812E00
:100D0000792F2000A301210031089A311F22803160
:100D1000210032081E3E860001308700013081022A
:100D200032081E3E86000130870001080319992E03
:100D30009A2EB32E14302000EC000030ED0021007C
:100D40003208173E86000130870020006C08C03F43
:100D50006D08C13F210032081F3E86000130870028
:100D600001308100792F2C302000EC000130ED00A3
:100D700021003208173E86000130870020006C08F1
:100D8000C03F6D08C13F210032081F3E8600013080
:100D90008700810132081D3E860001308700013046
:100DA0008107792F21003208023E8600013087003A
:100DB0000108031DDC2EDD2E792F320A860001305A
:100DC00087000103031DE52EE62E792F32081B3E16
:100DD0008600013087000108A9002000A30121003E
:100DE0002908A7317A27803121003108013E2000EF
:100DF000AB0021002908013E2000AC0001309031F9
:100E00000020803121003208860001308700063042
:100E1000810029082000EC000530EC35890B0D2FEE
:100E20006C08A03E8600013087000630810000304B
:100E3000E100AE30E20021003108013E2000E30075
:100E4000003003180130E400A43149248031792FA7
:100E500021003208173E8600013087001600010489
:100E6000031D332F342F792F2000A30121003108D7
:100E7000A7317A27803121003208860001308700AF
:100E80008101792F21003208860001308700010896
:100E90002000EC00ED016D08003A0319502F792F66
:100EA0006C08003A0319862F013A0319CF28033A38
:100EB00003191B29013A0319822A073A0319792FCA
:100EC000013A03191C2D033A0319792F013A03192A
:100ED000792F0F3A0319792F013A0319792F033A21
:100EE0000319832D013A0319D22E073A0319282F2B
:100EF000792F21003208023E860001308700320A35
:100F000084000130850000088100080091318A29A1
:100F1000F301F22F7308F0000530F035890B8D2FA7
:100F20007008B53E860001308700160001040319E1
:100F30009A2F9B2FAC2F7308F0000530F035890BEA
:100F40009E2F7008B53E8600013087000130810277
:100F500041310030813B7F317308F0000530F035BE
:100F6000890BAF2F7008B73E86000130870016004E
:100F700001040319BC2FBD2FCE2F7308F0000530DC
:100F8000F035890BC02F7008B73E8600013087000E
:100F90000130810241310030813B7F317308F00024
:100FA0000530F035890BD12F7008B93E860001302D
:100FB0008700160001040319DE2FDF2FF02F7308BE
:100FC000F0000530F035890BE22F7008B93E86003D
:100FD000013087000130810241310030813B7F3197
:100FE0000130F30721006D087302031CF82FF92F5D
:100FF0008A2F0800640080010131890BFB2F003427
:10100000200010100B140030A0000030A100A3310C
:10101000C623883108002000A3010630A000230861
:10102000A431A0248831403E860001308700810130
:1010300006302000A0002308A431A0248831413EBE
:10104000860001308700810106302000A0002308BF
:10105000A431A0248831423E860001308700003050
:10106000C03FC13F06302000A0002308A431A024C7
:101070008831443E8600013087008101063020001F
:10108000A0002308A431A0248831453E8600013009
:10109000870081012000A0012308A531BA258831ED
:1010A0002000A0012308A5319D25883101302000B2
:1010B000A30702302302031C5E285F280D282200AC
:1010C0008E100E120C1132302000A0001230A10040
:1010D000A33190238831080020006C08860003307B
:1010E00087000108031D752876287728FF2F5830C0
:1010F000E100B530E200A4314924883120006C08B9
:10110000A0007430A100B530A200A631E3268831DA
:10111000200020082104031D8E288F28D1296C303F
:10112000E100B330E2005030E300B530E400A43118
:101130004924883121006E0A031D9F28A028A92870
:10114000AD302000E100B330E200A4314924883101
:10115000BC2856302000E100B330E20021006E08C8
:10116000A000A10120082000E300210021082000A8
:10117000E400A43149248831D8302000E100B230A5
:10118000E200A431492488312100B901C229053087
:101190002000A00021003908A431A0248831513E4C
:1011A0008600013087000103031DD728D828E528D1
:1011B000A8302000A0000030A1007930A200B53096
:1011C000A300A63131268831F128A8302000A000E4
:1011D0000030A1006530A200B530A300A631312651
:1011E000883142302000E100B130E20021003908AE
:1011F000013E2000E300003003180130E400053018
:10120000A00021003908A431A02488314E3E860078
:101210000130870001082100A000A1012008200062
:10122000E500210021082000E600A830E70000309A
:10123000E80021003908A2000530A235890B1D29DC
:101240002208A03E86000130870001089A318D22D5
:10125000883120002108EA002008E900A43149244F
:10126000883121003908A0000530A035890B3529C7
:101270002008BB3E860001308700010A031941297E
:1012800042295E29EA302000E100B330E20021006B
:101290003908A0000530A035890B4B292008BB3E3A
:1012A0008600013087000108013E2000E300003085
:1012B00003180130E400A4314924883121003908A1
:1012C000A0000530A035890B62292008A13E8600C8
:1012D000013087000108031D6E296F2974294A30E7
:1012E000AC00B530AD0078293D30AC00B530AD0074
:1012F0007C302000E100B430E20021002D08200005
:10130000E40021002C082000E300A43149248831A6
:1013100005302000A00021003908A431A024883124
:10132000503E860001308700010A03199829992947
:10133000B7291F302000E100B430E2000530A000E2
:1013400021003908A431A0248831503E86000130A4
:10135000870001082100A000A10120082000E3006F
:10136000210021082000E400A431492488315830AC
:101370002000E100B530E200A43149248831013079
:101380002100B9076D083902031CC729C829C728DD
:10139000F2302000E100B230E200A431492488316B
:1013A000FF2F6C08A000AF30A100B430A2000830BD
:1013B000A3000030A4009831662088312000200866
:1013C0002104031DE429E529722A6C08083E8600E1
:1013D000033087000108CF3E2100B0006D083002C5
:1013E0000318F329F429562A20006C08093E8600C8
:1013F0000330870020300106031DFF29002A562AEA
:101400006C080A3E86000330870030300102031C5E
:101410000A2A0B2A562A6C080A3E860003308700E7
:101420003A3001020318152A162A562A6C080B3E78
:101430008600033087000A30A0006C080A3E840052
:10144000033085000008A431A02488310107F03E54
:101450002100AE0005302000A00021003008A4319A
:10146000A02488314E3E86000130870021002E08DE
:1014700081004E302000E100AE30E2002100300853
:10148000013E2000E300003003180130E400210099
:101490002E08A000A10120082000E500210021085D
:1014A0002000E600A43149248831FF2F2630200097
:1014B000E100B330E200A431492488313E302000FD
:1014C000E100AA30E20021006D08A000A10120087F
:1014D0002000E300210021082000E400A431492479
:1014E0008831FF2F6C08A000CA30A100B430A200E0
:1014F0000730A3000030A400983166208831200016
:1015000020082104031D852A862A442B6C08073EE7
:101510008600033087000108CF3E2100B800B101EA
:1015200020006C08093EA0009A30A100B530A2004E
:101530000230A3000030A4009831662088312000DA
:1015400020082104031DA52AA62AAA2A0230210068
:10155000B100C22A6C08093EA0008730A100B53056
:10156000A2000330A3000030A40098316620883127
:10157000200020082104031DBE2ABF2AC22A0130F0
:101580002100B10021006D0838020318C82AC92AB9
:10159000282B31080319CD2ACE2A282B3103031D0D
:1015A000D22AD32AF12A3808A0000530A035890BA9
:1015B000D62A2008A03E86000130870081015830DD
:1015C0002000E100AF30E20021003808013E200099
:1015D000E300003003180130E400A43149248831CD
:1015E000FF2F02303106031DF62AF72A162B380882
:1015F000A0000530A035890BFA2A2008A03E8600FD
:101600000130870009308100E5302000E100AB3077
:10161000E20021003808013E2000E30000300318FA
:101620000130E400A43149248831FF2F2F302000FD
:10163000E100B230E20021003808013E2000E30062
:10164000003003180130E400A43149248831FF2F11
:1016500026302000E100B330E200A4314924883173
:1016600033302000E100AF30E20021006D08A0001F
:10167000A10120082000E300210021082000E4004F
:10168000A43149248831FF2F6C08A0003F30A1000D
:10169000B430A200A631E3268831200020082104BE
:1016A000031D532B542B692B3F30E100B330E20074
:1016B000A4314924883129302100A1009630A000AE
:1016C0007F30890B612BA00B612BA10B612B0100DB
:1016D000FF2F6C08A0003630A100B530A200063004
:1016E000A3000030A4009831662088312000200833
:1016F0002104031D7C2B7D2B082D6C08063EA000C9
:101700006030A100B530A2000430A3000030A40076
:10171000983166208831200020082104031D912B78
:10172000922B2A2C6C080A3E8600033087000108A1
:10173000D03E2100B20020006C080C3E8600033031
:1017400087000108D03E2100B30020006C080B3E4A
:1017500086000330870020300106031DB02BB12B1B
:101760000F2C9D30E100B130E20021003208A000D2
:10177000A10120082000E300210021082000E4004E
:1017800021003308A200A30122082000E500210067
:1017900023082000E60021003308A400A501240846
:1017A0002000E700210025082000E8002100320881
:1017B000A600A70126082000E90021002708200034
:1017C000EA00A43149248831210032082000AB000E
:1017D000210033082000AC00013090310020883116
:1017E0008A302000E100AD30E20021003208A00084
:1017F000A10120082000E300210021082000E400CE
:1018000021003308A200A30122082000E5002100E6
:1018100023082000E600A43149248831FF2F8530B9
:10182000E100B230E200A431492488319130200037
:10183000E100AC30E20021006D08A000A101200809
:101840002000E300210021082000E400A431492405
:101850008831FF2F6C08063EA0005B30A100B53038
:10186000A2000430A3000030A40098316620883123
:10187000200020082104031D3E2C3F2CD72C6C088F
:101880000A3E8600033087000108D03E2100B400E4
:1018900020006C080C3E8600033087000108D03E13
:1018A0002100B50020006C080B3E86000330870045
:1018B00020300106031D5D2C5E2CBC2C7F30E10026
:1018C000B130E20021003408A000A101200820006E
:1018D000E300210021082000E40021003508A200D7
:1018E000A30122082000E500210023082000E600D3
:1018F00021003508A400A50124082000E7002100EC
:1019000025082000E80021003408A600A7012608C9
:101910002000E900210027082000EA00A431492422
:101920008831210034082000AB0021003508200058
:10193000AC0000309031002088310F302000E100F1
:10194000AD30E20021003408A000A10120082000F1
:10195000E300210021082000E40021003508A20056
:10196000A30122082000E500210023082000E60052
:10197000A43149248831FF2F8530E100B230E200E4
:10198000A4314924883167302000E100AC30E20006
:1019900021006D08A000A10120082000E300210023
:1019A00021082000E400A43149248831FF2F6C086D
:1019B000063EA0004230A100B430A200A631E326CA
:1019C0008831200020082104031DE72CE82CF82C86
:1019D0002F30A100B530A200A431E02488319B3023
:1019E0002000E100B030E200A43149248831FF2F0B
:1019F0003230E100B030E200A43149248831BE30F9
:101A00002000E100B030E200A43149248831FF2FEA
:101A10006C08A000D230A100B430A2000730A300AF
:101A20000030A4009831662088312000200821046D
:101A3000031D1B2D1C2DD52D6C08073E8600033081
:101A400087000108CF3E2100B6006D08360203185A
:101A50002A2D2B2DC12D20006C08083E8600033056
:101A6000870020300106031D362D372DC12D6C084F
:101A7000093EA0008730A100B530A2000330A300CA
:101A80000030A4009831662088312000200821040D
:101A9000031D4B2D4C2D6B2D0530A0002100360869
:101AA000A431A0248831503E860001308700FF30E9
:101AB0008100EA302000E100AF30E200210036086A
:101AC000013E2000E300003003180130E400A4319F
:101AD00049248831FF2F6C08093E860003308700B7
:101AE00030300102031C752D762DFF2F6C08093E46
:101AF0008600033087003A3001020318802D812DC3
:101B0000FF2F6C080A3E8600033087000A30A000D1
:101B10006C08093E8400033085000008A431A0242D
:101B200088310107F03E2100AF0005302000A00001
:101B300021003608A431A0248831503E86000130AF
:101B4000870021002F08810061302000E100AD30C6
:101B5000E20021003608013E2000E30000300318B7
:101B60000130E40021002F08A000A101200820007E
:101B7000E500210021082000E600A4314924883135
:101B8000FF2F00302000E100A930E20021006D08A5
:101B9000A000A10120082000E3002100210820006E
:101BA000E400A43149248831FF2F6C08A0003030B4
:101BB000A100B430A200A631E3268831200020081D
:101BC0002104031DE42DE52DF12D9B3108238831DF
:101BD0000E302000E100AF30E200A431492488310A
:101BE000FF2F6C08A000B830A100B430A20008306C
:101BF000A3000030A400983166208831200020081E
:101C00002104031D042E052E612E6C08083EA00041
:101C10008730A100B530A2000330A3000030A4003B
:101C2000983166208831200020082104031D192ED8
:101C30001A2E262EFF302100EE00BD302000E100DC
:101C4000B230E200A43149248831FF2F6C08083EED
:101C500086000330870030300102031C302E312E05
:101C6000592E6C08083E8600033087003A30010286
:101C700003183B2E3C2E592E6C08083E860003307C
:101C800087000108D03E2100EE00B2302000E100C4
:101C9000AD30E20021006E08A000A1012008200064
:101CA000E300210021082000E400A4314924883108
:101CB000FF2F6130E100B130E200A43149248831C6
:101CC000FF2F6C08A0008730A100B430A2000930BB
:101CD000A3000030A400983166208831200020083D
:101CE0002104031D742E752E0B2F6C08093E8600EF
:101CF000033087000108CF3E2100B7006D0837028E
:101D00000318832E842EF72E20006C080A3E8600CE
:101D10000330870020300106031D8F2E902EF72EF2
:101D20006C080B3EA0006530A100B530A200043065
:101D3000A3000030A40098316620883120002008DC
:101D40002104031DA42EA52EC32E0530A0002100C2
:101D50003708A431A0248831513E86000130870025
:101D60008101C6302000E100AF30E20021003708D9
:101D7000013E2000E300003003180130E400A431EC
:101D800049248831FF2F6C080B3EA0009D30A10034
:101D9000B530A2000230A3000030A40098316620C4
:101DA0008831200020082104031DD72ED82EF72EBD
:101DB0000530A00021003708A431A0248831513E0D
:101DC0008600013087000130810075302000E1007D
:101DD000AE30E20021003708013E2000E300003071
:101DE00003180130E400A43149248831FF2F113059
:101DF0002000E100AC30E20021006D08A000A1014C
:101E000020082000E300210021082000E400A43184
:101E100049248831FF2F6C08A0006F30A100B53035
:101E2000A200A631E32688312000200821040319EE
:101E30001A2F1B2F2B2F6C08A000A330A100B53048
:101E4000A200A631E3268831200020082104031DCA
:101E50002A2F2B2FF42FFD30E100B330E200A43104
:101E600049248831A2302000E100AF30E200A431E3
:101E700049248831CB302000E100AA30E200A431AF
:101E80004924883134302000E100AA30E2002100EA
:101E90006D08A000A10120082000E3002100210816
:101EA0002000E400A43149248831BB302000E10047
:101EB000AC30E200A43149248831FC302000E1003C
:101EC000AA30E20021006D08A000A1012008200036
:101ED000E300210021082000E400A43149248831D6
:101EE0000E302000E100B030E200A43149248831F6
:101EF000F6302000E100A830E20021006D08A000CB
:101F0000A10120082000E300210021082000E400B6
:101F1000A43149248831E8302000E100AE30E200ED
:101F2000A43149248831E0302000E100B030E200E3
:101F3000A4314924883178302000E100B030E2003B
:101F4000A431492488318C302000E100AB30E2001C
:101F5000A4314924883198302000E100A930E20002
:101F6000A4314924883167302000E100AA30E20022
:101F7000A431492488313F302000E100A830E2003C
:101F8000A4314924883100302000E100A830E2006B
:101F9000A43149248831BA302000E100A830E200A1
:101FA000A4314924883158302000E100B530E200E6
:101FB000A4314924883164302000E100A930E200D6
:101FC000A43149248831E5302000E100AC30E20042
:101FD000A43149248831FB302000E100B230E20016
:101FE000A43149248831FF2F8230E100B330E20070
:101FF0006C08E3000330E400A43149248831080070
:102000002000AF002F03031D062807280A284330AD
:10201000B0000C285230B0000D30B500B6010A30C7
:10202000A3000030A4002B08AD00AE012D08A500D0
:102030002E08A60099310921903120002308303E56
:10204000B1000A30A3000030A4002B08AD00AE019F
:102050002D08A5002E08A6009831B7209031200049
:102060002308303EB2000A30A3000030A4002C0840
:10207000AD00AE012D08A5002E08A600993109215A
:10208000903120002308303EB3000A30A300003016
:10209000A4002C08AD00AE012D08A5002E08A60056
:1020A0009831B720903120002308303EB400303002
:1020B000A1000030A200A431E02490310B302000B8
:1020C000AD006230890B6228AD0B622800000A3037
:1020D0002000A3000030A4002C08AD00AE012D08A4
:1020E000A5002E08A600993109219031200023086F
:1020F000303EB1000A30A3000030A4002C08AD002F
:10210000AE012D08A5002E08A6009831B720903109
:1021100020002308303EB2000A30A3000030A400A3
:102120002B08AD00AE012D08A5002E08A6009931A0
:102130000921903120002308303EB3000A30A3006B
:102140000030A4002B08AD00AE012D08A5002E081C
:10215000A6009831B720903120002308303EB4000B
:102160003030A1000030A200A431E02490310B30C7
:102170002000AD006230890BBB28AD0BBB280000EE
:102180000800320886000130870006300106031D72
:10219000CA28CB2852293108013E2000AB0021007B
:1021A0003008013E2000AC0000309031002090311A
:1021B000210030082000EC000530EC35890BDD28CB
:1021C0006C08A03E86000130870009300106031923
:1021D000EA28EB282A290330A30021003008A73180
:1021E0007A279031210030082000EC000530EC35D2
:1021F000890BF7286C08A03E860001308700073065
:102200008100210030082000EC000530EC35890BFE
:1022100006296C08BB3E860001308700FF30810034
:102220002F30E100A930E20021003108013E2000FA
:10223000E300003003180130E40021003008013EC3
:102240002000E500003003180130E600A4314924E5
:1022500090315229210030082000EC000530EC3587
:10226000890B2F296C08BB3E860001308700FF30A8
:1022700081007E30E100A830E20021003108013EFB
:102280002000E300003003180130E4002100300892
:10229000013E2000E500003003180130E600A431C3
:1022A000492490312000A30121003108A7317A2769
:1022B00090312000A301210031089A311F22903172
:1022C0002100320886000130870009300106031919
:1022D0006A296C298731422F320886000130870035
:1022E000810132081B3E860001308700FF308100EB
:1022F000A1302000E100B230E20021003108013EAF
:102300002000E300003003180130E400A431492428
:1023100090316A2921003208023E86000130870090
:102320000108031D942996298731792F320A8600E6
:10233000013087000103031D9E299F29942932083B
:102340001C3E860001308700810105302000A0007E
:1023500021003108A431A0249031503E8600013084
:102360008700010A0319B529B7298031A228210065
:102370003208053E8600013087000A302000A300A5
:102380000030A4000530A00021003108A431A024B1
:102390009031503E84000130850000082000EC00A0
:1023A000ED016C08A5006D08A60099310921903156
:1023B00020002308810021003208063E86000130FB
:1023C00087000A302000A3000030A4000530A000E0
:1023D00021003108A431A0249031503E8400013006
:1023E000850000082000EC00ED016C08A5006D08D8
:1023F000A6009831B72090312000230881002100E9
:102400003208043E86000130870010308100320817
:102410008600013087000330810000302000E10099
:10242000AA30E20021003108013E2000E300003024
:1024300003180130E4000530A00021003108A43168
:10244000A0249031503E8600013087000108200012
:10245000EC00ED016C08E5006D08E600A4314924AC
:1024600090319429F7010630F0007708A4318D24CB
:102470009231403E86000130870001080319412A4D
:10248000422A1F2B0630F0007708A4318D249231A8
:10249000423E860001308700013081074131031838
:1024A000810A022BF001F00A7708A53165259231E7
:1024B0001F2B0630F0007708A4318D249231423E64
:1024C000860001308700403FF500413FF6000330B1
:1024D0007602E8300319750203186F2A702A8E2AD3
:1024E000203021006F02031C762A772A7E2AF00111
:1024F000F00A7708A53165259231832AF001770823
:10250000A5316525923101302100EF026F08031DCE
:102510008A2A8B2A1F2B3E30EF001F2B0630F0003B
:102520007708A4318D249231423E86000130870025
:10253000403FF500413FF6000B307602B8300319FA
:1025400075020318A42AA52AAB2AF0017708A53141
:10255000652592311F2B0630F0007708A4318D24B9
:102560009231423E8600013087000030C03FC13FBB
:102570001F2B0630F0007708A4318D249231423EA3
:10258000860001308700403FF500413FF6000130F2
:102590007602F430031975020318CF2AD02AD72AFD
:1025A000F001F00A7708A531652592311F2B06301E
:1025B000F0007708A4318D249231423E860001302C
:1025C0008700403FF500413FF60003307602E830D7
:1025D000031975020318ED2AEE2AF42AF001770890
:1025E000A531652592311F2B0630F0007708A43104
:1025F0008D249231423E8600013087000030C03F7A
:10260000C13F1F2B0630F0007708A4318D24923192
:10261000403E8600013087000108F500F60176088B
:10262000003A0319142B1F2B7508013A0319522A7B
:10263000033A0319592A013A0319B92A1F2B063004
:10264000F0007708A4318D249231413E860001309C
:102650008700010803192D2B2E2BD22B0630F000FA
:102660007708A4318D249231423E860001308700E4
:102670000130810741310318810A0630F0007708E4
:10268000A4318D249231423E860001308700403FC4
:10269000F500413FF60003307602E8300319750279
:1026A0000318532B542BA82B0630F0007708A431C5
:1026B0008D249231443E860001308700013081072D
:1026C0000630F0007708A4318D249231443E860014
:1026D0000130870019300102031C6F2B702BD22BA5
:1026E0000630F0007708A4318D249231443E8600F4
:1026F0000130870081010630F0007708A4318D2475
:102700009231453E8600013087000630F0007708A0
:10271000A4318D249231453E8400013085000008AB
:102720000319932B952B0130962B00308100063036
:10273000F0007708A4318D249231453E86000130A7
:1027400087000108F3007708A53149259231D22B83
:102750000630F0007708A4318D249231423E860085
:1027600001308700403FF500413FF6000B30760214
:10277000B830031975020318BE2BBF2BC52BF3010C
:102780007708A53149259231D22B0630F000770821
:10279000A4318D249231423E860001308700003002
:1027A000C03FC13F0130F70702307702031CD92B2D
:1027B000DA2B332A080015302100BB004B30BA0059
:1027C000BE30890BE12BBA0BE12BBB0BE12B0000D8
:1027D000A631BB26933188302000A0000730A1002D
:1027E000A331CF2393318B170B1756302000E10014
:1027F000B530E200A43149249331D6302000E10005
:10280000B330E200A4314924933188310B20933155
:102810008031022093312100ED00C2302000E10020
:10282000B330E20021006D08BA00BB013A08200075
:10283000E30021003B082000E400A4314924933147
:102840007D302000E100AF30E200A4314924933113
:102850008B302000E100B530E200A43149249331EF
:102860002F302000A100B530A200A431E024933124
:1028700015302100BB004B30BA00BE30890B3E2C16
:10288000BA0B3E2CBB0B3E2C00008E302000E1002A
:10289000B530E200A431492493312F302000A1004B
:1028A000B530A200A431E024933115302100BB00E3
:1028B0004B30BA00BE30890B5B2CBA0B5B2CBB0BC8
:1028C0005B2C000091302000E100B530E200A43123
:1028D000492493312F302000A100B530A200A4314B
:1028E000E024933115302100BB004B30BA00BE30DC
:1028F000890B782CBA0B782CBB0B782C0000943009
:102900002000E100B530E200A431492493312F309A
:102910002000A100B530A200A431E024933115308D
:102920002100BB004B30BA00BE30890B952CBA0B8E
:10293000952CBB0B952C000097302000E100B530A2
:10294000E200A431492493312F302000A100B5309A
:10295000A200A431E024933115302100BB004B309C
:10296000BA00BE30890BB22CBA0BB22CBB0BB22C06
:10297000000069302000E100B430E200A4314924B5
:10298000933169302000E100B230E200A4314924E3
:10299000933101302100C300122D0130C4000A2DF3
:1029A0006400210043082000AB00210044082000FF
:1029B000AC0001309031002093315A302000E1000A
:1029C000B430E20021004308BA00BB013A082000FD
:1029D000E30021003B082000E40021004408BC0083
:1029E000BD013C082000E50021003D082000E60074
:1029F000A4314924933103302100BB000830BA00D0
:102A00007730890B012DBA0B012DBB0B012D023044
:102A10002100C40744086D0203180F2D102DD02C7F
:102A20000130C30743086D020318172D182DCD2C54
:102A30000130C300602D0130C400582D6400210016
:102A400043082000AB00210044082000AC00003007
:102A50009031002093314D302000E100B430E2008D
:102A600021004308BA00BB013A082000E30021001E
:102A70003B082000E40021004408BC00BD013C08E4
:102A80002000E50021003D082000E600A431492493
:102A9000933103302100BB000830BA007730890B36
:102AA0004F2DBA0B4F2DBB0B4F2D02302100C40709
:102AB00044086D0203185D2D5E2D1E2D0130C307E5
:102AC00043086D020318652D662D1B2DBB302000B9
:102AD000E100B130E200A431492493314C302000B0
:102AE000E100B230E200A431492493312100C50154
:102AF000F12D4508BA000530BA35890B7C2D3A080E
:102B0000A03E86000130870081014508BA000530EB
:102B1000BA35890B882D3A08A13E8600013087001E
:102B20004508A431B4249331810021004508BA003E
:102B30000530BA35890B992D3A08A23E860001303E
:102B400087004508BB000530BB35890BA42D3B0829
:102B5000A13E840001308500000881004508BA00CC
:102B60000530BA35890BB12D3A08A33E86000130F5
:102B7000870081014508BA000530BA35890BBD2DA3
:102B80003A08A43E86000130870081014508BA005A
:102B90000530BA35890BC92D3A08B53E860001309B
:102BA00087000030C03FC13F4508BA000530BA3544
:102BB000890BD72D3A08B73E8600013087000030D8
:102BC000C03FC13F4508BA000530BA35890BE52D35
:102BD0003A08BB3E860001308700FF30810001309B
:102BE000C5076D084502031CF62DF72D792D05301C
:102BF0002100BB000F30BA00F130890BFD2DBA0B5C
:102C0000FD2DBB0BFD2D66302000E100B430E2004D
:102C1000A4314924933101302000E100B130E200B9
:102C2000A431492493312100C101592EA53020003F
:102C3000E100B430E20021004108013E2000E30041
:102C4000003003180130E400A431492493312100FD
:102C50004108BA000530BA35890B2B2E3A08A13E3F
:102C60008600013087000108031D372E382E412EC3
:102C700028302000E100B530E200A431492493312E
:102C8000562E4108BA000530BA35890B442E3A0851
:102C9000A03E8600013087000830810021302000EE
:102CA000E100B530E200A431492493310130210024
:102CB000C1076D084102031C5E2E5F2E162E3830B0
:102CC0002000E100AD30E200A431492493319C3171
:102CD000E92493312100C001972E98302000E100B3
:102CE000B330E20021004008013E2000E300003044
:102CF00003180130E4000530A00021004008A43191
:102D0000A02493314E3E8600013087000108210047
:102D1000BA00BB013A082000E50021003B08200072
:102D2000E600A4314924933101302100C0076D0829
:102D30004002031C9C2E9D2E6D2E0C302000E100C5
:102D4000B330E200A431492493312100C201E92EBD
:102D500005302000A00021004208A431A0249331B6
:102D6000513E8600013087000103031DB82EB92EA5
:102D7000E62E0E302000E100B430E20021004208CF
:102D8000013E2000E300003003180130E400A431CC
:102D90004924933103302000A30021004208A731C9
:102DA0007A27933115302100BB004B30BA00BE307A
:102DB000890BD82EBA0BD82EBB0BD82E00002000C2
:102DC000A30121004208A7317A2793310130210065
:102DD000C2076D084202031CEE2EEF2EA82E5830BB
:102DE0002000E100B530E200A43149249331D8300D
:102DF0002000E100B130E200A431492493316400A5
:102E00002100BF010A2F3F089D31A12593310130D8
:102E10002100BF076D083F02031C0F2F102F032F47
:102E2000A33187239331003A0319172F182FFF2E50
:102E3000A531132593312100C6006908031D212FF8
:102E4000222F2B2F1B304606031D272F282F2B2F19
:102E50000130E900FF2E6903031D2F2F302F3C2F77
:102E60005B304606031D352F362F392F0230E9001F
:102E7000FF2E2100E901FF2E02306906031D412FBC
:102E8000422F7E2F41304606031D472F482F392FF2
:102E9000BE01552F83302000E100B530E200A4319F
:102EA0004924933101302100BE076A083E02031C09
:102EB0005A2F5B2F4A2F20302000A0000330A100A2
:102EC000A030A2000330A300A63131269331203078
:102ED0002000A000A431CA24933120002008210042
:102EE000EA0084302000E100B430E2002030E3004A
:102EF0000330E400A43149249331392F0D304606C4
:102F00000319832F842F8A2F0A304606031D892F29
:102F10008A2FBF2F4608A6319426933121006A08D4
:102F2000203E86000330870081016A080319992F2B
:102F30009A2FA62FA0302000A0000330A10020303F
:102F4000A2000330A300A6313126933120302000A7
:102F5000EC0088316C20933158302000E100B5300E
:102F6000E200A4314924933144302000E100B5301F
:102F7000E200A431492493312100EA01FF2E0830F8
:102F800046060319C42FC52FCB2F7F304606031DDD
:102F9000CA2FCB2FDB2F6A080319CF2FD02FFF2E7C
:102FA0000130EA0283302000E100B530E200A431B4
:102FB00049249331FF2E3F306A020318E02FE12F9E
:102FC000FF2E4608A6319426933161302100460237
:102FD000031CEB2FEC2FF42F7B3046020318F12F4C
:102FE000F22FF42F2030C6026A08203E86000330FC
:102FF0008700460881000130EA07FF2E80314D2806
:1030000008002000A00043302006031D08280928DE
:103010000C2822000C15142852302006031D1128FC
:103020001228142822000C1108007A35203E860050
:10303000023087000030C03FC13F23009D1C212883
:10304000222834287A35203E860002308700011578
:10305000210049084A0403192E282F2834284A0839
:103060008A0049080A00983123001D1D3828392894
:103070004B287A35203E86000230870081142100DB
:103080004B084C040319452846284B284C088A0055
:103090004B080A00983123001908F0007A08013E15
:1030A0001F39F10071087906031D5728582859283F
:1030B00065287A08A03E86000230870070088100EB
:1030C0007108FA0001302100E707080001302000F4
:1030D000A3020030A43B230A031D7228240A031D07
:1030E000722873288028A001A101B6280130A0070A
:1030F0000130A1070030A23D0130A3020030A43B03
:1031000020088600033087000108031988288928D1
:10311000A82821088400220885001200031991289C
:103120009228A82823082404031997289828A82857
:1031300021088400220885000008A50020088600D8
:1031400003308700010825060319A728A828762838
:1031500020088600033087002108840022088500AB
:1031600000080102A000A101031CA1030800200027
:10317000A801A61FBC28BD28C428A509A609A50A20
:103180000319A60A0130A800A41FC728C828CD2803
:10319000A309A409A30A0319A40A230824040319F0
:1031A000D228D328FA280130A700DD280130A33522
:1031B000A40D890BD7280130A707A41FE028E12818
:1031C000D62824082602031DE72823082502031C0D
:1031D000EA28EB28EF282308A5022408A63B0130A3
:1031E000A436A30C890BF0280130A702031DF9288F
:1031F000FA28E12828080319FE28FF280429A50930
:10320000A609A50A0319A60A2608A4002508A300F2
:1032100008002000A801A41F0E290F291629A309C0
:10322000A409A30A0319A40A0130A800A61F19299A
:103230001A292129A509A609A50A0319A60A0130F8
:10324000A806A901AA012308240403192829292969
:1032500056290130A70033290130A335A40D890B6D
:103260002D290130A707A41F362937292C29013021
:10327000A935AA0D890B382924082602031D4229E5
:1032800023082502031C452946294B292308A502AA
:103290002408A63B29140130A436A30C890B4C2921
:1032A0000130A702031D552956293729280803197B
:1032B0005A295B296029A909AA09A90A0319AA0A96
:1032C0002A08A4002908A30008002000AC01AD01D1
:1032D000260886008701403FA800413FA900280832
:1032E00084002908850012002A3A031D78297929CB
:1032F000A82926088600870101308107413103187B
:10330000810A2708860087010108840085010230B0
:103310008107003FAC00013FAD00BC292D08A10092
:103320002C08A0000A30A2000030A300A6315026CD
:10333000993120002B082007AC000030213DAD0062
:103340002608860087010130810741310318810A70
:10335000260886008701403FA800413FA9002808B1
:103360008400290885000008D03EAB000A302B02FB
:10337000031CBB29BC298E292D08A7002C08A600F8
:1033800008002000250826040319C729C829CE29CA
:1033900025082604031DCD29CE29D3292308A431CD
:1033A000392499311E2A25088600260887004931CC
:1033B000160001040319DD29DE29FE2925088600EF
:1033C000260887004931403FA700413FA800250853
:1033D0008600260887004231403FA900413FAA00ED
:1033E0002A08803AAB002808803A2B02031DFA29EC
:1033F000270829020318FD29FE291E2A2000250876
:1034000086002608870042312508840026088500AA
:10341000003FA700013FA800403F27078400413F2D
:10342000283D85002308800025088600260887009F
:1034300042310130810741310318810A0800200020
:10344000A40002302402031C262A272A282A8C2AB8
:103450000630A0002408A431A0249A31413E860001
:10346000013087000108200023060319382A392A71
:103470008C2A0630A0002408A431A0249A31413EB1
:103480008600013087002000230881000630A0005C
:103490002408A431A0249A31423E860001308700DE
:1034A0000030C03FC13F06302000A0002408A431F6
:1034B000A0249A31443E8600013087008101063005
:1034C0002000A0002408A431A0249A31453E8600A3
:1034D000013087008101200023080319702A712A16
:1034E0007C2A2408031D752A762A792A22008E1444
:1034F0008C2A22000E168C2A2408031D802A812A79
:10350000842A22008E10862A22000E122000A0019A
:103510002408A5319D259A3108002000A400D62A50
:103520006A30A000B530A100072BC130A000B43034
:10353000A100072BEA30A000B430A100072BFA301D
:10354000A000B430A100072BF230A000B430A100DD
:10355000072BDA30A000B430A100072BE230A00026
:10356000B430A100072B7E30A000B530A100072B9E
:103570000230A000B530A100072B1230A000B530FA
:10358000A100072B9130A000B430A100072B9B3085
:10359000A000B430A100072B7130A000B430A1000E
:1035A000072B0A30A000B530A100072B2408A20089
:1035B000A3012308003A0319DE2AD12A2208003A7F
:1035C0000319902A013A0319952A033A03199A2AF2
:1035D000013A03199F2A073A0319A42A013A031949
:1035E000A92A033A0319AE2A013A0319B32A0F3A5A
:1035F0000319B82A013A0319BD2A033A0319C22A4A
:10360000013A0319C72A073A0319CC2AD12A08001C
:10361000310095180C2B0D2B082B1517013091003C
:1036200070309200940121006E0831009300200058
:1036300003108B1F1C2B1D2B1E2B03148B1331000F
:10364000151555309600AA30960095149518292B1B
:103650002A2B262B15112000031C2F2B302B312B4E
:103660008B174E30A000A101A20131009518392B13
:103670003A2B352B151720002108033E310091000D
:10368000703092009401200020082107860001304C
:103690008700010831009300200003108B1F512B7D
:1036A000522B532B03148B133100151555309600F4
:1036B000AA309600951495185E2B5F2B5B2B151185
:1036C0002000031C642B652B662B8B170130A10790
:1036D0000030A23D003022020A3003192102031CEF
:1036E000722B732B352B31009518772B782B732B7E
:1036F0001517023091007030920094015A309300F7
:10370000200003108B1F852B862B872B03148B1314
:103710003100151555309600AA309600951495186D
:10372000922B932B8F2B15112000031C982B992B78
:103730009A2B8B17080020002F08B7002E08B60020
:1037400036083704031DA52BA62BAA2B1A30B6006A
:10375000B530B700B801B901B12B0130B80700305E
:10376000B93D3608380784003708393D8500120016
:10377000031DBB2BBC2BAD2B3908B3003808B2009E
:10378000210048082000B500210047082000B400AF
:103790007818CB2BCC2B042CDE2B20302000A30060
:1037A0000030A4002D08A6002C08A5009931C121E5
:1037B0009B3101302000B8070030B93D3908803A0C
:1037C000B0003508803A3002031DE82B3408380277
:1037D000031CEB2BEC2BCD2B042C36088400370874
:1037E00085000008B000B1013008A3003108A40032
:1037F0002D08A6002C08A5009931C1219B3101306C
:103800002000B6070030B73DFF302000B207FF3080
:10381000B33D320A031D102C330A031D102C112C4A
:10382000ED2B781C142C152C352C272C2030200047
:10383000A3000030A4002D08A6002C08A500993193
:10384000C1219B3101302000B8070030B93D390853
:10385000803AB0003508803A3002031D312C34081C
:103860003802031C342C352C162C080001302000A3
:10387000C300BF1B3C2C3E2C01303F2C0030C60047
:10388000210048082000C500210047082000C4008E
:10389000460803194C2C4D2C612CFF30C407FF3017
:1038A000C53D4608031D552C562C5B2C2B30C10002
:1038B0000030C2005F2C2D30C1000030C200410832
:1038C000C6001F30C7000030C8002500DF019E2C55
:1038D000FF302000C707FF30C83D4708C03E8600C4
:1038E000023087000A30A3000030A4003F08A60081
:1038F0003E08A5009831B7209C3120002408AA007A
:103900002308A900A4317B249C3120002908303EE3
:103910008100C301FF30C407FF30C53D0A30A3005A
:103920000030A4003F08A6003E08A50099310921F7
:103930009C3120002408BF002308BE002000480856
:10394000803AC00080304002031DA82C013047029D
:10395000031CAB2CAC2CC92C20003E083F04031DDB
:10396000B22CB32C682C4308031DB72CB82C682C40
:103970004508803AC00080304002031DC12C013050
:103980004402031CC42CC52CC92CF818C82CC92C03
:10399000682C200046080319CE2CCF2CDA2CFF30DF
:1039A000C707FF30C83D4708C03E86000230870089
:1039B000460881003D08B5003C08B4004708C03EF9
:1039C000B6004508B8004408B700A731BA279C31B3
:1039D0000800310015170230910070309200151464
:1039E0005A301306031DF52CF62C512D15170130F6
:1039F000910070309200151413082100EE004E3033
:103A00002000A400A601A7013100151720002608F8
:103A1000033E3100910070309200151420002408FC
:103A2000260786000130870031001308810001302D
:103A30002000A6070030A73D003027020A300319F6
:103A40002602031C242D252D042DA501482D05300B
:103A5000A0002508A431A0249C314F3E86000130EF
:103A6000870009300106031D362D372D452D200016
:103A70002508A3000530A335890B3B2D2308A03E64
:103A80008600013087000930810001302000A50741
:103A900021006D0820002502031C4F2D502D272DDD
:103AA000A02DFF302100EE002000A8010530A0006D
:103AB0002808A431A0249C314E3E860001308700A6
:103AC000200028080B3E81000530A0002808A43102
:103AD000A0249C314F3E86000130870081010530D3
:103AE0002000A0002808A431A0249C31503E86006C
:103AF00001308700FF30810005302000A000280839
:103B0000A431A0249C31513E860001308700810100
:103B100005302000A0002808A431A0249C31523E8A
:103B2000860001308700810101302000A8070230A3
:103B30002802031C9C2D9D2D562D9B3108239C3162
:103B400008002100B10031082000EC000530EC3500
:103B5000890BA72D6C08A03E2100B200320A860016
:103B6000013087003108A431B4249D318100210047
:103B7000320A8600013087000108031DC02DC22DC6
:103B80008731422F3208023E860001308700010350
:103B9000031DCB2DCC2DDC2DE8302000EC000330B4
:103BA000ED0021003208193E860001308700200018
:103BB0006C08C03F6D08C13F21003208193E8600E5
:103BC0000130870016000104031DE72DE82DC02DEC
:103BD000320886000130870001080319F02DF12D0D
:103BE000C02D320886000130870005300106031918
:103BF000FA2DFB2DC02D32088600013087000A30D7
:103C000001060319042E052EC02D3208860001304E
:103C100087000B30010603190E2E0F2EC02D32081F
:103C20008600013087000C3001060319182E192E6A
:103C3000C02D32081B3E860001308700010A03199F
:103C4000222E242E9131522932081B3E860001304B
:103C500087000108B0003208860001308700043078
:103C60000106031D342E362E9031C1282000A301F9
:103C7000210030089A311F229D3105302000A0001C
:103C800021003008A431A0249D31513E860001302E
:103C900087000103031D4D2E4E2E7C2E0330200085
:103CA000A30021003008A7317A279D31F43020008D
:103CB000EC000130ED00210030082000EE0005305E
:103CC000EE35890B602E6E08B73E86000130870006
:103CD0006C08C03F6D08C13F210030082000EC0097
:103CE0000530EC35890B712E6C08A03E8600013042
:103CF00087000C3081008A2E210030082000EC0063
:103D00000530EC35890B812E6C08A03E8600013011
:103D100087008101210030082000EC000530EC35DF
:103D2000890B8F2E6C08BB3E860001308700FF3068
:103D30008100CC30E100A930E20021003108013ED1
:103D40002000E300003003180130E40021003008B7
:103D5000013E2000E500003003180130E600A431E8
:103D600049249D31222E20004B0886008701403FC8
:103D7000CE00413FCF004E0884004F08850012005E
:103D8000253A031DC42EC52EE52F4B08860087015A
:103D90000130810741310318810A2100C701C801A0
:103DA0000030F800FF302200CC00FF30CD002000B2
:103DB000D801FC2E78144B0886008701013081075A
:103DC00041310318810AFC2EF814DB2E0130D80093
:103DD000FC2E4B0886008701403FCE00413FCF00BC
:103DE0004E0884004F08850000082D3A0319DA2E8A
:103DF0001D3A0319E42EE62E58080319002F012F4F
:103E0000E92E781C042F052F072FFD30F8054B08ED
:103E1000A6004C08A700993165219E312000270893
:103E20002100C800200026082100C700C81F192F44
:103E30001A2F202F7814C709C809C70A0319C80AFE
:103E400020004B0886008701403FD600413FD70045
:103E500056088400570885001200643A0319312F70
:103E6000322F3C2F56088400570885001200693A0B
:103E7000031D3B2F3C2F622F4C0886004D08870006
:103E800001088400850102308107003FD200013F14
:103E9000D3005608013ECE000030573DCF004B08FE
:103EA000860087014E08C03F4F08C13F4A08BD0049
:103EB0004908BC005308BF005208BE009C3136249C
:103EC0009E31FF2FD8014B0886008701403FCE006E
:103ED000413FCF004E0884004F0885001200733A1E
:103EE000031D732F742F7F2F4B088600870101302D
:103EF000810741310318810A0130D800C12F4B08D6
:103F000086008701403FCE00413FCF004E0884002D
:103F10004F08850012006C3A031D8F2F902FC12F80
:103F20004B0886008701403FCE00413FCF00013063
:103F30004E0784004F080318013E850012006C3ABA
:103F4000031DA32FA42FC12F4B0886008701403FDC
:103F5000CE00413FCF0002304E0784004F080318C7
:103F6000013E85001200733A031DB72FB82FC12FF1
:103F70004B08860087010330810741310318810A0D
:103F80007C2F58080319C52FC62FDB2F4A08AD0018
:103F90004908AC004C0886004D08870001088400E1
:103FA000850102308107003FAE00013FAF009B3129
:103FB0009B239E31FF2F20004B0886008701013094
:103FC000810741310318810AFF2F4B0886008701C2
:103FD000403FCE00413FCF004E0884004F0885008F
:103FE0000008D000D1015008A3005108A4004A08DD
:103FF000A6004908A5009931C1219E31DB2F080098
:1046D6000800080031009511080023001D121D1660
:1046E6000800A3316D23A33108003E00100E890C8B
:1046F600013908003E001A0E890C013908005034B1
:10470600B5340834FF343E3421006708031D8C2B72
:104716008E2B01308F2B003008002000210821004D
:10472600D600200020082100D500080020006F08D0
:10473600031D9E2BA02B0130A12B0030080020006A
:1047460021082100E600200020082100E5000800DD
:10475600200021082100E400200020082100E300B9
:104766000800200021082100E20020002008210086
:10477600E1000800200021082100E00020002008B8
:104786002100DF000800200021082100DA002000B7
:1047960020082100D9000800200021082100D800A7
:1047A600200020082100D700080060303200990060
:1047B6009B019D0107309F009E019C010800290076
:1047C6009F019A01990198019D019C011A309B0055
:1047D60080309E0008002100570858040319F42B66
:1047E600F52BFA2B58088A0057080A00A331200037
:1047F600911008002100550856040319032C042CB7
:10480600092C56088A0055080A00A4312000921087
:1048160008002000200821040319122C132C1A2C3E
:1048260021082100CC00200020082100CB00080030
:104836002000200821040319212C222C292C2108D0
:104846002100CA00200020082100C9000800BB3052
:1048560028009D009C0100302100D3000030D400C8
:1048660020009213073028009E0008002000A200B6
:10487600A3319923A431003A0319422C432C3B2C33
:1048860020002208A6319426A431080063302000B7
:10489600EB000030D900DA006208DC006108DB00BA
:1048A6006B30DD00A6311226A43108007C302000D2
:1048B6009E009D016C302100D7002330D8002000D7
:1048C600911021009114073020009F0008007C30D1
:1048D60028009600950100302100D5001830D6003A
:1048E600200092102100921407302800970008003B
:1048F6002000AA1B7F2C802C812C8C2C2909AB0034
:104906002A09AC00AB0A0319AC0A2B08A9002C082B
:10491600AA000800F200F101721C922C932C952C2F
:104926007008F1070310F00D0310F20C7208031D56
:104936009D2C9E2C8F2C710808002000A200A1013E
:10494600221CA62CA72CA92C2008A1070310A00D19
:104956000310A20C2208031DB12CB22CA32C210893
:1049660008002000A000C12CA3317823A431C92C53
:10497600A3317D23A431C92C0030C92C2008003A6C
:104986000319B72C013A0319BB2CBF2C08002000D1
:104996002008A200D02C0130A00720088600033092
:1049A60087000108031DD82CD92CCE2C2208200202
:1049B600A000A101A01BA1030800EE2C2108840081
:1049C60022088500000898310120A431013020001A
:1049D600A1070030A23D200021088400220885009E
:1049E6001200031DF72CF82CE12C08003E00A5014F
:1049F6002330A600A701A801A9010230AA000830A9
:104A0600AB00AC01AD018530A40000302000A00051
:104A16000030A100A331B423A431200013110800F3
:104A26007908A03E86000230870001082000A10018
:104A36007908013E1F39A0002008F90021009112D3
:104A460067080319272D282D2A2D0130E702911614
:104A56002000210808003E00AF012330B0000130DD
:104A6600B100B201B3010230B4000830B500B6019E
:104A7600B7018530AE0000302000A0000030A10054
:104A8600A331BD23A531200093110800F40074085A
:104A9600031D4E2D4F2D5A2D73080319532D542DDA
:104AA600572D22000E15642D22000E11642D730859
:104AB60003195E2D5F2D622D22008E16642D2200B5
:104AC6008E120800F1007108031D6A2D6B2D762DDC
:104AD600700803196F2D702D732D21008C12802DF7
:104AE60021008C16802D700803197A2D7B2D7E2DC2
:104AF60021000C12802D21000C16080002303E0009
:104B06009100233092000630930094019501023003
:104B16009600143097009801990185309000003076
:104B26002000A0000030A100A331A223A53120005F
:104B3600131008002000A1002108031DA32DA42D99
:104B4600AF2D20080319A82DA92DAC2D22000E1576
:104B5600B92D22000E11B92D20080319B32DB42D3D
:104B6600B72D22008E16B92D22008E1208002000C5
:104B7600A1002108031DC02DC12DCC2D200803192D
:104B8600C52DC62DC92D21008C12D62D21008C16BF
:104B9600D62D20080319D02DD12DD42D21000C128D
:104BA600D62D21000C16080002303E009B00233053
:104BB6009C0007309D0007309E009F010230A00038
:104BC6001430A100A201A30185309A000030200014
:104BD600A0000030A100A331AB23A5312000931023
:104BE6000800203020006F020318FA2DFB2D0F2E2F
:104BF60021006808203E8600013087000108230056
:104C06009A0021006808013E1F39F0007008E8008C
:104C160001302000EF07112E21001112080020009C
:104C26005C08E0005B08DF00242E5A08CA00590819
:104C3600C9005F30CB005D08CC00CD019E31B326A4
:104C4600A63120005F088400600885001200031D5D
:104C56002D2E2E2E182ED901DA010800200021084B
:104C6600A7002008A6002708870026088600A60AAF
:104C76000319A70A2308A5002208A400A20A0319FB
:104C8600A30A24088400250885000008C03F890877
:104C9600031D4E2E4F2E362E08002000A401A5011E
:104CA600201C562E572E5B2E2208A4072308A53D4E
:104CB6000130A235A30D890B5C2E0130A136A00C64
:104CC600890B612E20082104031D6A2E6B2E532E9C
:104CD6002508A1002408A00008002000B201B301A5
:104CE600872E3108AF00B0012F08A3003008A400BA
:104CF6002E08A6002D08A5009931C121A631013044
:104D06002000B2070030B33D2C083207860002307F
:104D160087000108B1003108031D922E932E742ED0
:104D260008002000A1002100111A9A2E9B2EA02E09
:104D36002000210823009A00B82E20006F080319CE
:104D4600A52EA62EB82E7B08203E860001308700B1
:104D5600210881007B08013E1F39A0002008FB00C6
:104D66002100111201302000EF0221001116080067
:104D7600A331D823A631A7311327A631A43159244C
:104D8600A631A4316A24A631A4312A24A631A5313C
:104D96008125A631A531D725A631A431F924A6311E
:104DA600A5312E25A631A7314627A631A331E22308
:104DB600A631A3317423A63188310020A63108001C
:104DC600EA2E0130A0070130A1070030A23D2000E5
:104DD60021088400220885000008A3002008860018
:104DE6000330870001082306031DFA2EFB2E042F2D
:104DF60020088600033087000108031D032F042FB7
:104E0600E42E20088600033087002108840022084B
:104E1600850000080102A000A101031CA1030800EF
:104E2600023022008C008E01093021008C000930EE
:104E36008E00303023008C008E0124008C01093056
:104E46008E0025008C018E01373026008C003F3005
:104E56008E003F3027008C003F308E0013303C0020
:104E6600A9001030A800A4011D303D0094001D309B
:104E7600950014309100270091019201930197014A
:104E8600980199010800210091121530DB001830B5
:104E9600DC001112F430DD002530DE00483023003E
:104EA6009F0090309D0026309E0040309B000330CE
:104EB6009C006B302000A0002330A100A4310C24FC
:104EC600A73170302000A0002330A100A4311B249C
:104ED600A7312100D101D201FB01E80120302000D9
:104EE600EF00FA01F9012100E70191160800200000
:104EF600A40002302402031C812F822F832FB92F96
:104F06000630A0002408A431A024A731403E860024
:104F1600013087000108200023060319932F942FE0
:104F2600B92F0630A0002408A431A024A731403EA2
:104F36008600013087002000230881000630A0008B
:104F46002408A431A024A731423E86000130870000
:104F56000030C03FC13F20002308031DB32FB42FEC
:104F6600B92FA0012408A531BA25A7310800781C5D
:104F7600BD2FBE2FC82F20003608AC003508AE0066
:104F86003408AD00A6317026A7312000B81FCC2FFB
:104F9600CD2FCF2FB701B801BA01BB01E32F2030C7
:104FA6002000A3000030A4003508A6003408A500A0
:104FB6009931C121A73101302000BA070030BB3D2D
:104FC6003B08803AB9003808803A3902031DED2FB4
:104FD60037083A02031CF02FF12FD22F7818F42F3E
:104FE600F52FFF2F20003608AC003508AE00340838
:104FF600AD00A6317026A7310800203420342034B5
:1050060020342034203420342034203420344534D5
:10501600783461346D3470346C3465343A34203409
:1050260053344234433454344C34203452344534AB
:105036004C3420343134203432342034203420347B
:105046002D342034523465346C3465346134733411
:10505600653420343134203461346E346434203481
:1050660032342034533477346934743463346834D6
:105076002E340D340A3400342034203420342034C5
:1050860020342034203420342034203445347834FD
:1050960061346D3470346C3465343A3420345334AE
:1050A6004234433454344C34203443344F344E3435
:1050B60020343134203432342034203420342D341A
:1050C600203443346F346E346E3465346334743450
:1050D60020343134203461346E3464342034323434
:1050E60020345334773469347434633468342E345A
:1050F6000D340A34003450346F347234743420342E
:10510600253464343A342034483475346E34673484
:105116002034753470342034643475347234693410
:105126006E3467342034743461346C346B342E340A
:10513600203450346F34723474342034253464345B
:1051460020346934733420346E346F347734203429
:105156004134553454344F34203441344E3453346E
:105166005734453452342E340D340A340034203446
:105176002034203420342034203420342034203489
:1051860020344534783461346D3470346C3465348D
:105196003A34203453344234433454344C34203477
:1051A600463455344C344C345F34523445345334DD
:1051B60045345434203420342D342034523465346C
:1051C6007334653474342034533477346934743426
:1051D6006334683462346F346134723464342E3428
:1051E6000D340A3400342034203420342034203462
:1051F6002034203420342034203455347334613440
:10520600673465343A3420345334453454342034C6
:1052160048344C3420343C3470346F347234743433
:105226003A3431342D34253464343E3420343C341D
:105236006534783474343A34313430342D34393476
:10524600393420346F34723420344F344634463483
:105256003E340D340A34003450346F3472347434AE
:105266002034253464343A342034483475346E346A
:1052760067342034753470342034643475347234B1
:1052860069346E3467342034743461346C346B346E
:105296002E34203450346F34723474342034253430
:1052A600643420346934733420346E346F34773484
:1052B600203442345534533459342E340D340A34A0
:1052C600003453344134563445345F3454344F3407
:1052D6005F3445344534503452344F344D342034E1
:1052E6003A342034533461347634653420346334AC
:1052F60075347234723465346E34743420347334D5
:1053060065347434743469346E34673473342034D9
:1053160074346F34203445344534503452344F3469
:105326004D342E340D340A3400345334423443346D
:1053360054344C342034203420343A3420344D3420
:1053460061346E34753461346C346C3479342034A1
:105356004F344E342F344F34463446342F3446348B
:1053660055344C344C345F3452344534533445341C
:1053760054342034533477346934743463346834A1
:1053860062346F346134723464342E340D340A342A
:10539600003450346F347234743420342534643419
:1053A6003A342034433461346C346C3465347234AA
:1053B6002034613462346F34723474346534643446
:1053C6002E34203450346F347234743420342534FF
:1053D60064342034733474346F3470347034653408
:1053E60064342034723469346E34673469346E340C
:1053F60067342E340D340A34003450346F3472342A
:1054060074342034253464343A3420344F346634CA
:1054160066342D3448346F346F346B3420342D3475
:105426003E34203448344F3454344C3449344E34AA
:105436004534203474346F3420344534783474342D
:1054460020342534643420342D343E342034523410
:105456004F345534543449344E3447340D340A34B9
:1054660000342034203420342034203420342034B6
:105476002034203420345534733461346734653431
:105486003A34203453344534543420344534583473
:10549600543420343C3470346F34723474343A34B7
:1054A60031342D34253464343E3420343C34653470
:1054B600783474343A34313430342D343934393420
:1054C6003E340D340A340034203420342034203461
:1054D600203420342034203420342034553473349E
:1054E60061346734653420343A34203453344234DA
:1054F600433454344C34203443344F344E342F34F4
:10550600523445344C3420343C3470346F34723465
:10551600743431343E3420343C3470346F34723455
:10552600743432343E340D340A34003450346F341B
:10553600723474342034253464343A34203450348C
:1055460072346534663469347834203464346934AA
:1055560061346C346534643420342D343E34203464
:10556600453478347434653472346E3461346C3452
:105576002034493450342034433461346C346C3430
:1055860020344D346F34643465340D340A340034B9
:105596005334453454342034453458345434203448
:1055A6003A342034533465347434203465347834D2
:1055B600743465346E34733469346F346E3428341D
:1055C6006E3475346D346234653472342934203463
:1055D60066346F347234203465346134633468342D
:1055E600203470346F34723474342E340D340A34EB
:1055F6000034203420342034203420342034203425
:10560600203420342034553473346134673465349F
:105616003A342034533445345434203441344134FC
:10562600203420343C3470346F34723474343A3459
:1056360031342D34253464343E3420343C344F34F4
:105646004E342F344F34463446343E340D340A3407
:10565600003450346F347234743420342534643456
:105666003A34203449346E34763461346C346934D7
:10567600643420346E3475346D3462346534723477
:1056860020346F3472342034493450342034553445
:105696006E346934743420342534643420342D3423
:1056A6003E34203442345534533459340D340A349C
:1056B600003450346F3472347434203425346434F6
:1056C6003A34203452346F347534743469346E3459
:1056D6006734203474346F342034493450342034E1
:1056E60055346E34693474342034283450346F346D
:1056F6007234743420342534643429342E342034FE
:105706004E3475346D346234653472343A34203430
:105716000034203420342034203420342034203403
:10572600203420342034553473346134673465347E
:105736003A342034533445345434203454345934B0
:105746005034453420343C3470346F3472347434FD
:105756003E3420343C3453344C34493443342F34AF
:10576600493450343E340D340A34003450346F34E6
:105776007234743420342534643420342834493463
:105786005034203455346E346934743429343A3400
:105796002034533465346E34643469346E3467347B
:1057A60020346434693467346934743420345B34A7
:1057B600253464345D3420342E342E342E340D34A6
:1057C6000A340034533475346334633465347334C3
:1057D60073343A34203450346F3472347434203491
:1057E6002534643420347334743461347434653449
:1057F6002034733465347434203474346F34203474
:105806004134553454344F34203441344E345334B7
:105816005734453452340D340A3400345534733415
:105826006134673465343A3420345334453454345F
:105836002034543459345034453420343C34703494
:105846006F34723474343A3431342D34253464343C
:105856003E3420343C3453344C34493443342034BD
:105866006F3472342034493450343E340D340A34A3
:10587600003450346F347234743420342534643434
:105886003A342034433461346C346C3465346434D3
:10589600203450346F3472347434203425346434F4
:1058A60020342D343E3420344134553454344F346E
:1058B600203441344E3453345734453452346534ED
:1058C60064340D340A340034553473346134673427
:1058D60065343A34203453344234433454344C34EB
:1058E6002034523445344C3420343C346C346934DE
:1058F6006E34653431343E3420343C346C3469348F
:105906006E34653432343E342034283431342D3408
:105916002534643429340D340A3400345534733450
:105926006134673465343A34203453344234433472
:1059360054344C34203443344F344E3420343C34C5
:105946006C3469346E34653431343E3420343C343E
:105956006C3469346E34653432343E342034283441
:1059660031342D342534643429340D340A3400346A
:1059760053344534543420344134413420342034B3
:105986003A342034533465347434203470346F34EC
:1059960072347434203474346F34203441345534C2
:1059A60054344F34203441344E3453345734453410
:1059B600523420346D346F34643465342E340D34EF
:1059C6000A34003444344F345F34463455344C344E
:1059D6004C345F34523445345334453454342034D3
:1059E60020343A3420345234653473346534743494
:1059F600203450344234583443346F34723465346E
:105A06002034703472346F346734723461346D34D8
:105A16002E340D340A340034453478346534633416
:105A260075347434653464343A34203453347734FA
:105A3600693474346334683443346F346E34743484
:105A460072346F346C342834663461346C34733495
:105A560065342C342034253464342C3420342534F5
:105A6600643429340D340A34003450344234583402
:105A760043346F34723465343A3420344C346F34E2
:105A86006134643469346E34673420347334653475
:105A96007434743469346E34673473342034663441
:105AA60072346F346D3420344534453450345234B6
:105AB6004F344D342E340D340A3400345334753497
:105AC600633463346534733473343A342034503475
:105AD6006F3472347434203425346434203468349A
:105AE6006F3474346C3469346E34653420347334F2
:105AF60065347434203474346F3420344534783447
:105B060074342034253464340D340A340034453476
:105B160078346534633475347434653464343A34B3
:105B260020345334773469347434633468344334FA
:105B36006F346E34743472346F346C342834743485
:105B46007234753465342C342034253464342C3462
:105B560020342534643429340D340A340034533463
:105B66007534633463346534733473343A342034AF
:105B7600453478347434653472346E3461346C343C
:105B860020345034723465346634693478342034C1
:105B9600733465347434203474346F3420342734C9
:105BA6002534643427340D340A34003450346F34C9
:105BB600723474342034253464343A342034413415
:105BC6006E34733477346534723465346434203417
:105BD60050346F34723474342034253464342034B1
:105BE6002D343E342034543441344C344B3449340F
:105BF6004E3447340D340A34003450346F34723422
:105C060074342034253464343A34203449345034DE
:105C1600203455346E3469347434203461346E342F
:105C260073347734653472346534643420342D34F7
:105C36003E342034543441344C344B3449344E349D
:105C460047340D340A34003450346F3472347434AB
:105C56002034253464343A3420344434693461348D
:105C66006C3469346E346734203463346F346D3485
:105C760070346C3465347434653420342D343E34D9
:105C8600203452344F345534543449344E34473426
:105C96000D340A3400345334753463346334653454
:105CA600733473343A34203450346F347234743469
:105CB60020342534643420346534783474346534BF
:105CC6006E34733469346F346E342034733465340F
:105CD6007434203474346F342034253464340D34F1
:105CE6000A3400345334753463346334653473349E
:105CF60073343A34203450346F347234743420346C
:105D06002534643420347434793470346534203462
:105D1600733465347434203474346F342034493425
:105D26005034203455346E34693474340D340A34A6
:105D3600003450346F34723474342034253464346F
:105D46003A3420344434693461346C3469346E3402
:105D56006734203473347434613472347434653483
:105D6600643420342D343E342034443449344134B0
:105D76004C3449344E3447340D340A3400345034EC
:105D86006F34723474342034253464343A34203415
:105D9600433461346C346C3469346E346734203483
:105DA60050346F34723474342034253464342034DF
:105DB6002D343E342034433441344C344C3449344D
:105DC6004E3447340D340A34003453344534543495
:105DD600203450344634583420343A342034533442
:105DE60065347434203470347234653466346934FE
:105DF6007834203466346F34723420344934503465
:105E060020344434693461346C3469346E34673414
:105E16000D340A34003453347534633463346534D2
:105E2600733473343A3420345334653474347434EC
:105E360069346E34673473342034733461347634A1
:105E460065346434203474346F3420344534453436
:105E5600503452344F344D342E340D340A34003419
:105E6600553473346134673465343A3420345334EA
:105E76004534543420344134413420343C34703475
:105E86006F34723474343A3431342D3425346434F6
:105E96003E3420343C344F344E342F344F34463461
:105EA60046343E340D340A34003453347534633486
:105EB60063346534733473343A34203450346F3475
:105EC6007234743420342534643420347334743496
:105ED6006134743465342034733465347434203456
:105EE60074346F342034493444344C3445340D34DE
:105EF6000A34003450344234583443346F347234E4
:105F060065343A34203449346E346934743469342F
:105F160061346C3469347A3469346E3467342034CD
:105F260053347734693474346334683462346F3488
:105F36006134723464342E342E342E3400345334A7
:105F460054344134543420342034203420343A3408
:105F5600203444346934733470346C3461347934A5
:105F66002034633475347234723465346E34743468
:105F760020345334743461347434753473342E34A9
:105F86000D340A3400345334753463346334653461
:105F9600733473343A34203450346F347234743476
:105FA60020342534643420347434793470346534C0
:105FB6002034733465347434203474346F342034AC
:105FC60053344C34493443340D340A340034533496
:105FD6007534633463346534733473343A3420343B
:105FE60050346F347234743420342534643420349D
:105FF60068346F3474346C3469346E3465342034E8
:10600600643469347334613462346C3465346434B2
:106016000D340A340034533445345434203448346F
:106026004C34203420343A342034533465347434B8
:10603600203470346F3472347434203448344F341E
:1060460054344C3449344E34453420346E3475342B
:106056006D346234653472340D340A340034453498
:10606600723472346F3472343A34203455346E34A8
:106076006B346E346F3477346E3420345334423498
:10608600433454344C3420347334753462346334BA
:106096006F346D346D3461346E3464342E340D34A3
:1060A6000A34003450346F34723474342034253456
:1060B60064343A34203450346F34723474342034B7
:1060C60025346434203469347334203462347534AE
:1060D6007334793420342D343E34203442345534EC
:1060E600533459340D340A3400345334453454345B
:1060F600203454345934503445343A3420345334EB
:1061060065347434203450346F347234743420342B
:10611600683461347234643477346134723465348B
:10612600203474347934703465340D340A340034D0
:106136004534783465346334753474346534643482
:106146003A342034533477346934743463346834DD
:1061560062346F34613472346434203446347534B6
:106166006C346C342034523465347334653474348E
:106176000D340A34003441347634613469346C3475
:10618600613462346C3465343A34203443344F34E9
:106196004E342C342034523445344C342C34203490
:1061A600463455344C344C345F34523445345334CD
