:1000000080314D28023008007E1480310030860097
:10001000003087000B1F0D280E284B282100111ED1
:10002000122813281F282000111E172818281F28FF
:1000300022005F088A005E080A0080314B282100F8
:10004000911E2328242830282000911E28282928A2
:10005000302822005D088A005C080A0080314B28A5
:100060002100921C342835283E282000921C392873
:100070003A283E28A031292080314B282100911CAC
:10008000422843284B282000911C472848284B2809
:10009000A0311A2080317E10090080314F282100C4
:1000A000903101208031EF002200B7319B27803151
:1000B000EB00B7319C278031EC00B7319D278031B0
:1000C000ED00B7319E278031EE00F801F901FA0109
:1000D000FB01FC01FD012000EF012100EE014A308F
:1000E0008400013085002130B731AA278031A0304B
:1000F0008400013085005030B731AA27803120308C
:100100008400023085004A30B731AA278031A03000
:100110008400023085004030B731AA27803120307A
:100120008400033085004030B731AA278031A030E9
:100130008400033085004030B731AA278031203059
:100140008400043085004030B731AA2780317E100A
:10015000200093316E2B56302000E100B530E200D4
:100160002100260834072000EC006C08053E8600BC
:10017000013087000108ED00EE016D08E3006E0814
:10018000E400A0317520803101302100A607340839
:10019000043E86000130870001082602031CD12896
:1001A000D228AB281A302000E100AE30E200A031A6
:1001B00075208031B62F2000A301A30A2100330847
:1001C000A4312F24803121003408033E8600013001
:1001D000870081013408043E8600013087008101D8
:1001E000340886000130870001308100193020007A
:1001F000E100B130E20021003308013E2000E300BD
:10020000003003180130E400A03175208031B62F92
:1002100021003408023E8600013087000103031DDF
:1002200012291329B62F340A8600013087000108ED
:10023000031D1B291C29B62F2000A3012100330810
:10024000A4312F24803121003408033E8600013080
:1002500087000130810058302000EC000230ED00B2
:1002600021003408153E86000130870020006C080C
:10027000C03F6D08C13F210034088600013087006F
:10028000023081009C302000E100AE30E20021000D
:100290003308013E2000E300003003180130E40081
:1002A000A03175208031B62F21003408023E86002F
:1002B000013087000103031D5E295F297F29340A6D
:1002C0008600013087000108031D672968297F29FE
:1002D0003408033E86000130870001308107583022
:1002E0002000EC000230ED0021003408153E8600AD
:1002F0000130870020006C08C03F6D08C13F21001D
:10030000340A8600013087000103031D88298929EA
:10031000632A3408153E8600013087001600010468
:10032000031D93299429632A3408033E8600013073
:100330008700010803199D299E29632A3408033E7A
:100340008600013087000A3001060319A829A9296F
:10035000BA293408033E86000130870001082000D6
:10036000EC00ED016C082100A00020006D082100C8
:10037000A100BC29A001A1012008A8003408043E66
:10038000860001308700010834072000EC006C086B
:10039000053E8600013087002100280881003408CE
:1003A000043E860001308700013081073408033E97
:1003B0008600013087008101A2302000E100B230C8
:1003C000E20021003308013E2000E3000030031862
:1003D0000130E400210028082000EC00ED016C0849
:1003E000E5006D08E600A031752080312100340859
:1003F000043E8600013087000103031D002A012A04
:10040000242A6F0A0319052A062A242A28086F06B7
:10041000031D0B2A0C2A242A34081C3E86000130B6
:100420008700013081009D302000E100AA30E20009
:1004300021003308013E2000E300003003180130A2
:10044000E400A03175208031210034081C3E860074
:1004500001308700010803192E2A2F2A522A340856
:10046000043E86000130870010300102031C392A47
:100470003A2A412A3408860001308700033081007F
:10048000632AB8302000EC000B30ED002100340866
:10049000173E86000130870020006C08C03F6D08C1
:1004A000C13F632A3408043E8600013087000230D1
:1004B0000102031C5C2A5D2A632A3408860001308D
:1004C0008700033081002100340A86000130870054
:1004D0000103031D6C2A6D2AB62F3408153E8600D1
:1004E0000130870016000104031D772A782AB62FF1
:1004F0003408033E8600013087000108031D812A6D
:10050000822AB62F34081C3E86000130870001087D
:1005100003198B2A8C2AB62F3408043E860001303A
:10052000870002300102031C962A972AB62F34084E
:10053000173E86000130870016000104031DA12A22
:10054000A22AB62F01302000E100AE30E2002100E7
:100550003308013E2000E300003003180130E400BE
:10056000A0317520803121003408860001308700D9
:1005700003308100B62F210034081C3E8600013074
:10058000870001080319C52AC62AE12BFF30B000F5
:10059000AE01F42A15302000A00021002E08A03161
:1005A000DE208031223E8600023087000103031DD9
:1005B000DA2ADB2AF12A21002E082000EC0005307F
:1005C000EC35890BE02A6C08B03E860001308700CC
:1005D0000108031DEC2AED2AF12A21002E08B000A3
:1005E000FC2A01302100AE0722006D0821002E02F6
:1005F000031CFB2AFC2ACA2A300A0319002B012BF0
:10060000C02B34081B3E8600013087003008810073
:1006100030082000EC000530EC35890B0C2B6C0801
:10062000CB3E860001308700210033088100200086
:10063000A30121003308A4312F2480312100340884
:100640008600013087000430810030082000EC0073
:100650000530EC35890B292B6C08CD3E8600013026
:10066000870001308100210030082000EC000530B7
:10067000EC35890B382B6C08CE3E860001308700A4
:100680008101210030082000EC000530EC35890B99
:10069000462B6C08CF3E8600013087008101643014
:1006A000EC000030ED00210030082000EE000530A5
:1006B000EE35890B582B6E08C73E86000130870047
:1006C0006C08C03F6D08C13F210030082000EC00DD
:1006D0000530EC35890B692B6C08B03E8600013083
:1006E00087000A3081006030E100AB30E200210079
:1006F0003308013E2000E300003003180130E4001D
:1007000021003008013E2000E500003003180130D0
:10071000E600A0317520803101302100A700AC2B0C
:1007200056302000E100B530E200210027083407F0
:100730002000EC006C08053E8600013087000108AF
:10074000ED00EE016D08E3006E08E400A0317520B5
:10075000803101302100A7073408043E86000130B3
:10076000870001082702031CB62BB72B902B88307B
:100770002000E100B830E200A03175208031B62FB2
:1007800003302000A30021003308A4312F2480313E
:100790002100340886000130870007308100853051
:1007A0002000E100B230E20021003308013E2000C9
:1007B000E300003003180130E400A03175208031DF
:1007C000B62F3408063E8600013087000A3020002C
:1007D000A00021003408053E840001308500000897
:1007E000A031DE20803101072100A500FF30B100DB
:1007F000AC01122C15302000A00021002C08A031E3
:10080000DE208031203E8600023087000108210072
:100810002506031D0C2C0D2C102C2C08B1001A2CB5
:100820000130AC0722006D0821002C02031C192C9A
:100830001A2CFA2B310A03191E2C1F2C362C3108C6
:1008400033060319242C252C362C15302000A0004B
:1008500021003108A031DE208031223E86000230A6
:1008600087000103031D352C362C602C033020003B
:10087000A30021003308A4312F2480312100340843
:100880008600013087000730810030302000E10011
:10089000AB30E20021003308013E2000E3000030CD
:1008A00003180130E400210025082000EC00ED01D0
:1008B0006C08E5006D08E600A03175208031B62F88
:1008C000210031082000EC000530EC35890B652C47
:1008D0006C08B03E8600013087000108031D712CB2
:1008E000722CC92C210034081B3E86000130870081
:1008F0003108810031082000EC000530EC35890B0F
:100900007E2C6C08CB3E8600013087002100330826
:10091000810002302000A30021003308A4312F24DD
:1009200080312100340886000130870004308100C6
:100930002000A301A30A21003108A631AD26803191
:10094000210031082000EC000530EC35890BA52C86
:100950006C08B03E86000130870005308100C2304F
:10096000E100AE30E20021003308013E2000E30048
:10097000003003180130E40021003108013E20005E
:10098000E500003003180130E600A0317520803109
:10099000B62F210031082000EC000530EC35890B22
:1009A000CE2C6C08B03E860001308700093001066D
:1009B000031DDB2CDC2C302D210034081B3E86006F
:1009C000013087003108810031082000EC0005303B
:1009D000EC35890BE82C6C08CB3E86000130870093
:1009E0002100330881002000A30121003308A43135
:1009F0002F24803121003408860001308700063022
:100A0000810034081B3E8600013087000108A400E5
:100A10003308013E2000A80021002408013E2000E8
:100A2000A90001309B313723803140302000E100A4
:100A3000AC30E20021003308013E2000E30000302A
:100A400003180130E40021003108013E2000E500D8
:100A5000003003180130E600A03175208031B62F38
:100A60000330A30021003308A4312F24803121005A
:100A7000340886000130870007308100E73020000D
:100A8000E100AF30E20021003308013E2000E30026
:100A9000003003180130E40021003108013E20003D
:100AA000E500003003180130E600A03175208031E8
:100AB000B62F21003408023E86000130870001086D
:100AC000031D632D642DB62F340A86000130870084
:100AD0000103031D6C2D6D2DB62F2000A3012100F5
:100AE0003308A631AD268031210034081B3E860034
:100AF000013087000108AD002000A30121002D086E
:100B0000A4312F24803121003308013E2000A800A9
:100B100021002D08013E2000A90001309B31372320
:100B200080312100340886000130870006308100C2
:100B30002D082000EC000530EC35890B9C2D6C084D
:100B4000B03E86000130870006308100B330E100FE
:100B5000AD30E20021003308013E2000E300003008
:100B600003180130E40021002D08013E2000E500BB
:100B7000003003180130E600A03175208031B62F17
:100B800021003408173E860001308700160001045A
:100B9000031DCB2DCC2DB62F34081B3E8600013013
:100BA00087000108AF002F0A0319D72DD82DEA2D91
:100BB0002F082000EC000530EC35890BDC2D6C088B
:100BC000B03E860001308700043001060319E92D8C
:100BD000EA2DF82D2000A30121003308A631AD260F
:100BE0008031210034088600013087008101B62F52
:100BF000210034081F3E8600013087000108031DD4
:100C0000022E032E872E34081D3E860001308700F9
:100C10002F082000EC000530EC35890B0C2E6C08F9
:100C2000B43E840001308500000801020318192E2B
:100C30001A2E702E210034081D3E860001308700D8
:100C40002F082000EC000530EC35890B242EB53040
:100C50006C07ED006D080107860001308700010870
:100C60002100A90029080319362E372E432E290802
:100C70002000EC00ED016C082100A20020006D08AE
:100C80002100A300472E0A30A2000030A300340840
:100C90001E3E8600013087002208810034081F3E76
:100CA00086000130870001308100BD302000E10066
:100CB000AB30E20021003308013E2000E3000030A9
:100CC00003180130E400210029082000EC00ED01A8
:100CD0006C08E5006D08E600A03175208031872E94
:100CE000210034088600013087000B30810020008D
:100CF000A30121003308A631AD2680310230200047
:100D0000A30021002F08A4312F248031B62F210009
:100D100034081F3E8600013087000103031D912E19
:100D2000922EB32E2000A301A30A21003308A6317E
:100D3000AD26803114302000EC000030ED002100A1
:100D40003408173E86000130870020006C08C03F41
:100D50006D08C13F210034081F3E86000130870026
:100D600002308100B62F34081F3E86000130870014
:100D700002300106031DBD2EBE2EB62F2000A3019A
:100D800021003308A631AD268031210034081E3EF3
:100D90008600013087000130810234081E3E860043
:100DA0000130870001080319D62ED72EF02E1430FB
:100DB0002000EC000030ED0021003408173E8600D2
:100DC0000130870020006C08C03F6D08C13F210042
:100DD00034081F3E86000130870001308100B62FA5
:100DE0002C302000EC000130ED0021003408173ECB
:100DF00086000130870020006C08C03F6D08C13FAD
:100E0000210034081F3E860001308700810134082C
:100E10001D3E86000130870001308107B62F21007A
:100E20003408023E8600013087000108031D192F97
:100E30001A2FB62F340A8600013087000103031DE4
:100E4000222F232FB62F34081B3E86000130870047
:100E50000108AA002000A30121002A08A4312F24A0
:100E6000803121003308013E2000A80021002A081B
:100E7000013E2000A90001309B3137238031210041
:100E80003408860001308700063081002A082000DF
:100E9000EC000530EC35890B4A2F6C08B03E86001B
:100EA0000130870006308100DA30E100AD30E20029
:100EB00021003308013E2000E30000300318013018
:100EC000E400A03175208031B62F21003408173E90
:100ED00086000130870016000104031D702F712F5A
:100EE000B62F2000A30121003308A4312F24803124
:100EF000210034088600013087008101B62F2100CF
:100F0000340886000130870001082000EC00ED0164
:100F10006D08003A03198D2FB62F6C08003A03199B
:100F2000C32F013A03190829033A03195429013A36
:100F30000319BB2A073A0319B62F013A0319592D91
:100F4000033A0319B62F013A0319B62F0F3A0319C2
:100F5000B62F013A0319B62F033A0319C02D013AEF
:100F600003190F2F073A0319652FB62F21003408F4
:100F7000023E860001308700340A8400013085007B
:100F80000008810008009D31BA2D2000A401A501B0
:100F9000200821040319CD2FCE2FFB2F0130A600EE
:100FA000D82F0130A035A10D890BD22F0130A60713
:100FB000A11FDB2FDC2FD12F0130A435A50D890B0C
:100FC000DD2F21082302031DE72F20082202031C26
:100FD000EA2FEB2FF02F2008A2022108A33B2414B4
:100FE0000130A136A00C890BF12F0130A602031DA0
:100FF000FA2FFB2FDC2F2508A1002408A0000800F1
:101000006030320099009B019D0107309F009E01D6
:101010009C0108002000A3010630A0002308A03195
:10102000DE208831A03E8600013087008101063035
:101030002000A0002308A031DE208831A13E8600D8
:1010400001308700810106302000A0002308A03174
:10105000DE208831A23E8600013087000030C03F8C
:10106000C13F06302000A0002308A031DE208831D7
:10107000A43E860001308700810106302000A000D8
:101080002308A031DE208831A53E8600013087008C
:1010900081012000A0012308A231582288312000BC
:1010A000A0012308A2313B22883101302000A30790
:1010B00002302302031C5D285E280C2822008E10BB
:1010C0000E120C11C5302000A0001130A100B73164
:1010D000C127883108002100B30033082000EC004C
:1010E0000530EC35890B71286C08B03E2100B40046
:1010F000340A8600013087003308A1311B21883172
:1011000081002100340A8600013087000108031D98
:101110008A288C2887317F2F3408023E86000130D0
:1011200087000103031D95289628A628E830200093
:10113000EC000330ED0021003408193E8600013038
:10114000870020006C08C03F6D08C13F21003408B3
:10115000193E86000130870016000104031DB128E6
:10116000B2288A2834088600013087000108031954
:10117000BA28BB288A283408860001308700053049
:1011800001060319C428C5288A28340886000130BE
:1011900087000A3001060319CE28CF288A28340890
:1011A0008600013087000B3001060319D828D928A2
:1011B0008A2834088600013087000C3001060319A4
:1011C000E228E3288A2834081B3E86000130870085
:1011D000010A0319EC28EE289D31822D34081B3EAC
:1011E0008600013087000108B20034088600013013
:1011F000870004300106031DFE2800299C31F12CD4
:101200002000A30121003208A631AD268831153017
:101210002000A00021003208A031DE208831223ECB
:101220008600023087000103031D1729182946296B
:1012300003302000A30021003208A4312F2488317C
:10124000F4302000EC000130ED00210032082000D5
:10125000EE000530EE35890B2A296E08C73E860060
:10126000013087006C08C03F6D08C13F2100320883
:101270002000EC000530EC35890B3B296C08B03EB2
:101280008600013087000C3081005429210032088B
:101290002000EC000530EC35890B4B296C08B03E82
:1012A0008600013087008101210032082000EC0017
:1012B0000530EC35890B59296C08CB3E860001308E
:1012C0008700FF3081000430E100AA30E2002100F5
:1012D0003308013E2000E300003003180130E40031
:1012E00021003208013E2000E500003003180130E3
:1012F000E600A03175208831EC286C08A0009630FB
:10130000A100B530A2000830A3000030A400A53130
:1013100052258931200020082104031D902991299C
:101320001E2A6C08083E8600033087000108CF3E65
:101330002200B1006D08310203189F29A029022A5A
:1013400020006C08093E860003308700203001062B
:10135000031DAB29AC29022A6C080A3E8600033023
:10136000870030300102031CB629B729022A6C0815
:101370000A3E8600033087003A3001020318C12973
:10138000C229022A6C080B3E8600033087000A300F
:10139000A0006C080A3E8400033085000008A031DC
:1013A000DE2089310107F03E2200AE00153020001A
:1013B000A00022003108A031DE208931203E8600C5
:1013C0000230870022002E08810028302000E10032
:1013D000AE30E20022003108013E2000E300003080
:1013E00003180130E40022002E08A000A10120080B
:1013F0002000E500220021082000E600A031752031
:101400008931FF2FCB302000E100B330E200A03162
:101410007520893142302000E100AA30E20022002C
:101420006D08A000A10120082000E300220021088F
:101430002000E400A03175208931FF2F6C08A00046
:101440000030A100B830A2000730A3000030A40093
:10145000A53152258931200020082104031D312A9D
:10146000322ADE2A6C08073E860003308700010816
:10147000CF3E2200B700B20120006C08093EA00058
:10148000BB30A100B830A2000230A3000030A4009D
:10149000A53152258931200020082104031D512A3D
:1014A000522A562A02302200B2006E2A6C08093EE7
:1014B000A000B730A100B830A2000330A300003074
:1014C000A400A53152258931200020082104031DE4
:1014D0006A2A6B2A6E2A01302200B20022006D08AF
:1014E00037020318742A752AC22A32080319792A86
:1014F0007A2AC22A3203031D7E2A7F2A9D2A3708B0
:10150000A0000530A035890B822A2008B03E860055
:1015100001308700810133302000E100AF30E2006C
:1015200022003708013E2000E3000030031801309C
:10153000E400A03175208931FF2F02303206031DEF
:10154000A22AA32AFF2F3708A0000530A035890B57
:10155000A62A2008B03E86000130870009308100AD
:10156000E9302000E100AB30E20022003708013E04
:101570002000E300003003180130E400A0317520A2
:101580008931FF2FCB302000E100B330E200A031E1
:10159000752089310E302000E100AF30E2002200DA
:1015A0006D08A000A10120082000E300220021080E
:1015B0002000E400A03175208931FF2F6C08A000C5
:1015C0001130A100B530A200A33161238931200080
:1015D00020082104031DED2AEE2A032B1430E1001C
:1015E000B430E200A0317520893129302200A100F9
:1015F0009630A0007F30890BFB2AA00BFB2AA10BA1
:10160000FB2A0100FF2F6C08A0006C30A100B8304D
:10161000A2000630A3000030A400A5315225893174
:10162000200020082104031D162B172BA22C6C0868
:10163000063EA0009030A100B830A2000430A30004
:101640000030A400A5315225893120002008210452
:10165000031D2B2B2C2BC42B6C080A3E8600033059
:1016600087000108D03E2200B30020006C080C3E29
:101670008600033087000108D03E2200B40020001D
:101680006C080B3E86000330870020300106031DE6
:101690004A2B4B2BA92BF230E100B130E2002200A3
:1016A0003308A000A10120082000E3002200210847
:1016B0002000E40022003408A200A3012208200038
:1016C000E500220023082000E60022003408A400E0
:1016D000A50124082000E700220025082000E800DA
:1016E00022003308A600A70126082000E9002200F6
:1016F00027082000EA00A031752089312200330834
:101700002000A800220034082000A90001309B31ED
:10171000372389313C302000E100AD30E200220067
:101720003308A000A10120082000E30022002108C6
:101730002000E40022003408A200A30122082000B7
:10174000E500220023082000E600A0317520893141
:10175000FF2FDB30E100B230E200A031752089318B
:1017600095302000E100AC30E20022006D08A000BE
:10177000A10120082000E300220021082000E4004D
:10178000A03175208931FF2F6C08063EA0008B30F8
:10179000A100B830A2000430A3000030A400A5319D
:1017A00052258931200020082104031DD82BD92B74
:1017B000712C6C080A3E8600033087000108D03E79
:1017C0002200B50020006C080C3E86000330870024
:1017D0000108D03E2200B60020006C080B3E8600B7
:1017E0000330870020300106031DF72BF82B562C01
:1017F000D430E100B130E20022003508A000A101A0
:1018000020082000E300220021082000E40022003C
:101810003608A200A30122082000E50022002308C8
:101820002000E60022003608A400A50124082000BC
:10183000E700220025082000E80022003508A60065
:10184000A70126082000E900220027082000EA005E
:10185000A03175208931220035082000A80022001F
:1018600036082000A90000309B313723893113301E
:101870002000E100AD30E20022003508A000A10107
:1018800020082000E300220021082000E4002200BC
:101890003608A200A30122082000E5002200230848
:1018A0002000E600A03175208931FF2FDB30E100F8
:1018B000B230E200A031752089316B302000E100A8
:1018C000AC30E20022006D08A000A1012008200039
:1018D000E300220021082000E400A03175208931B6
:1018E000FF2F6C08063EA0001430A100B530A20006
:1018F000A33161238931200020082104031D812C9C
:10190000822C922C6530A100B830A200A131602158
:1019100089312D302000E100B030E200A031752087
:101920008931FF2FC430E100AF30E200A0317520D3
:10193000893173302000E100B030E200A031752021
:101940008931FF2F6C08A0000830A100B830A20038
:101950000730A3000030A400A531522589312000B2
:1019600020082104031DB52CB62CC42D6C08073E9D
:101970008600033087000108CF3E2200B9006D08C1
:1019800039020318C42CC52CB02D20006C08083E69
:1019900086000330870020300106031DD02CD12C97
:1019A000B02D6C08093EA000B730A100B830A200ED
:1019B0000330A3000030A400A53152258931200056
:1019C00020082104031DE52CE62C042D1530A00071
:1019D00022003908A031DE208931233E8600023002
:1019E00087008101A0302000E100AF30E20022003A
:1019F0003908013E2000E300003003180130E40004
:101A0000A03175208931FF2F2200BA01262D153013
:101A10002000A00022003908A031DE208931243EB8
:101A200022003A07A00020088600023087003A080A
:101A300020006C072200A1002108093E8400033029
:101A400085000008D03E81000130BA073A08200026
:101A50006C072200A0002008093E860003308700A2
:101A600030300102031C352D362D4C2D3A08200054
:101A70006C072200A0002008093E86000330870082
:101A80003A3001020318452D462D4C2D10303A02F4
:101A9000031C4B2D4C2D072D3A080319502D512DA9
:101AA000A72D15302000A00022003908A031DE202B
:101AB0008931233E86000230870022003A088100E7
:101AC000F8302000E100B030E20022003908013E89
:101AD0002000E300003003180130E400A03175203D
:101AE00089312200B001982D56302000E100B53038
:101AF000E2001530A00022003908A031DE20893133
:101B0000243E22003007A000200886000230870013
:101B10000108A100A20121082000E3002200220800
:101B20002000E400A0317520893101302200B00787
:101B30003A083002031C9D2D9E2D742D8830200004
:101B4000E100B830E200A03175208931FF2F393033
:101B50002000E100B130E200A03175208931FF2F73
:101B60006F302000E100A930E20022006D08A000E3
:101B7000A10120082000E300220021082000E40049
:101B8000A03175208931FF2F6C08A000F430A1002E
:101B9000B430A200A3316123893120002008210440
:101BA0000319D32DD42DE42D6C08A0000330A1001F
:101BB000B530A200A331612389312000200821041F
:101BC000031DE32DE42DF02D99315321893164302B
:101BD0002000E100AD30E200A03175208931FF2FF7
:101BE0006C08A0009F30A100B530A2000830A3000F
:101BF0000030A400A531522589312000200821049D
:101C0000031D032E042E612E6C08083EA000B73081
:101C1000A100B830A2000330A3000030A400A53119
:101C200052258931200020082104031D182E192E69
:101C3000252EFF302100EF002F302000E100B330CF
:101C4000E200A03175208931FF2F6C08083E860024
:101C50000330870030300102031C2F2E302E592E06
:101C60006C08083E8600033087003A3001020318F2
:101C70003A2E3B2E592E6C08083E86000330870012
:101C80000108D03E2100EF008C302000E100AD3093
:101C9000E20021006F082200A000A101200820001E
:101CA000E300220021082000E400A03175208931E2
:101CB000FF2FB630E100B130E200A031752089314C
:101CC000FF2F6C08A0006430A100B530A2000930DD
:101CD000A3000030A400A53152258931200020083E
:101CE0002104031D742E752E0B2F6C08093E8600EF
:101CF000033087000108CF3E2200B8006D0838028B
:101D00000318832E842EF72E20006C080A3E8600CE
:101D10000330870020300106031D8F2E902EF72EF2
:101D20006C080B3EA0009530A100B830A200043032
:101D3000A3000030A400A5315225893120002008DD
:101D40002104031DA42EA52EC32E1530A0002200B1
:101D50003808A031DE208931223E8600023087001B
:101D600081017C302000E100AF30E2002200380821
:101D7000013E2000E300003003180130E400A031F0
:101D800075208931FF2F6C080B3EA000BE30A100EA
:101D9000B830A2000230A3000030A400A5315225C3
:101DA0008931200020082104031DD72ED82EF72EBC
:101DB0001530A00022003808A031DE208931223EF3
:101DC000860002308700013081004F302000E100A2
:101DD000AE30E20022003808013E2000E30000306F
:101DE00003180130E400A03175208931FF2F153030
:101DF0002000E100AC30E20022006D08A000A1014B
:101E000020082000E300220021082000E400A03187
:101E100075208931FF2F6C08A0009F30A100B830D9
:101E2000A200A33161238931200020082104031975
:101E30001A2F1B2F2B2F6C08A000C330A100B83025
:101E4000A200A33161238931200020082104031D51
:101E50002A2F2B2FF42FD230E100B430E200A03132
:101E60007520893158302000E100AF30E200A03108
:101E700075208931CF302000E100AA30E200A03186
:101E80007520893138302000E100AA30E2002200BC
:101E90006D08A000A10120082000E3002200210815
:101EA0002000E400A03175208931BF302000E1001E
:101EB000AC30E200A0317520893100302000E10013
:101EC000AB30E20022006D08A000A1012008200034
:101ED000E300220021082000E400A03175208931B0
:101EE0002F302000E100A930E200A03175208931B7
:101EF00065302000E100A930E20022006D08A0005A
:101F0000A10120082000E300220021082000E400B5
:101F1000A03175208931E8302000E100AE30E200C8
:101F2000A0317520893195302000E100B030E20009
:101F3000A031752089310A302000E100B030E20084
:101F4000A0317520893190302000E100AB30E200F3
:101F5000A03175208931D0302000E100A930E200A5
:101F6000A031752089316B302000E100AA30E200F9
:101F7000A031752089313F302000E100A830E20017
:101F8000A0317520893100302000E100A830E20046
:101F9000A03175208931BA302000E100A830E2007C
:101FA000A0317520893188302000E100B830E2008E
:101FB000A03175208931F6302000E100A830E20020
:101FC000A03175208931E9302000E100AC30E20019
:101FD000A031752089316D302000E100B330E2007E
:101FE000A03175208931FF2F6D30E100B430E2005F
:101FF0006C08E3000330E400A0317520893108004B
:102000000800FF342000A401A501201C082809288D
:102010000D282208A4072308A53D0130A235A30DF1
:10202000890B0E280130A136A00C890B132820083B
:102030002104031D1C281D2805282508A1002408AB
:10204000A000080020004B0886008701403FCE001A
:10205000413FCF004E0884004F0885001200253A0A
:10206000031D33283428AA294B0886008701013034
:10207000810741310318810A2200CA01CB010030D7
:102080002000EF00FF302300AC00FF30AD00200047
:10209000D6016C286F144B08860087010130810738
:1020A00041310318810A6C28EF144B280130D60007
:1020B0006C284B0886008701403FCE00413FCF008F
:1020C0004E0884004F08850000082D3A03194A285D
:1020D0001D3A0319542856285608031970287128E8
:1020E00059286F1C742875287728FD30EF054B0898
:1020F000A6004C08A700A6315126903120002708E1
:102100002200CB00200026082200CA00CB1F89280D
:102110008A28922820006F142200CA09CB09CA0A13
:102120000319CB0A20004B0886008701403FD700E7
:10213000413FD80057088400580885001200643ACF
:102140000319A328A428AE2857088400580885003E
:102150001200693A031DAD28AE28D4284C08860029
:102160004D08870001088400850102308107003F87
:10217000D200013FD3005708013ECE000030583D49
:10218000CF004B08860087014E08C03F4F08C13F73
:102190004A08BD004908BC005308BF005208BE00F1
:1021A0009A3184229031C429570884005808850048
:1021B0001200783A0319DD28DE28E8285708840041
:1021C000580885001200753A031DE728E8282729DA
:1021D0004C0886004D088700010884008501023004
:1021E0008107003FD200013FD3005708013ECE00D7
:1021F0000030583DCF004B08860087014E08C03F95
:102200004F08C13F1B294A08BD004908BC005308BC
:10221000BF005208BE00A7318D279031C4294A085B
:10222000BD004908BC005308BF005208BE009831E9
:1022300063209031C429570884005808850000089D
:10224000753A031903290D3A03190F292729D601D5
:102250004B0886008701403FCE00413FCF004E082B
:1022600084004F0885001200733A031D382939296C
:1022700044294B088600870101308107413103184A
:10228000810A0130D60086294B0886008701403F2D
:10229000CE00413FCF004E0884004F088500120059
:1022A0006C3A031D5429552986294B08860087015D
:1022B000403FCE00413FCF0001304E0784004F0821
:1022C0000318013E850012006C3A031D6829692934
:1022D00086294B0886008701403FCE00413FCF0052
:1022E00002304E0784004F080318013E850012009B
:1022F000733A031D7C297D2986294B0886008701B6
:102300000330810741310318810A41295608031916
:102310008A298B29A0294A08AD004908AC004C083D
:1023200086004D088700010884008501023081077E
:10233000003FAE00013FAF009931E9219031C4293F
:1023400020004B08860087010130810741310318C6
:10235000810AC4294B0886008701403FCE00413FD7
:10236000CF004E0884004F0885000008D000D1013E
:102370005008A3005108A4004A08A6004908A50077
:10238000983105209031A0290800F7010630F000AF
:102390007708A031CB209131A03E86000130870024
:1023A00001080319D429D529B22A0630F00077088C
:1023B000A031CB209131A23E860001308700013050
:1023C000810741310318810A952AF001F00A770844
:1023D000A131E6219131B22A0630F0007708A03110
:1023E000CB209131A23E860001308700403FF500AE
:1023F000413FF60003307602E830031975020318F6
:10240000022A032A212A203022006E02031C092AF4
:102410000A2A112AF001F00A7708A131E621913148
:10242000162AF0017708A131E6219131013022000E
:10243000EE026E08031D1D2A1E2AB22A3E30EE004F
:10244000B22A0630F0007708A031CB209131A23EAD
:10245000860001308700403FF500413FF6000B3019
:102460007602B830031975020318372A382A3E2A33
:10247000F0017708A131E6219131B22A0630F0004F
:102480007708A031CB209131A23E86000130870031
:102490000030C03FC13FB22A0630F0007708A031BB
:1024A000CB209131A23E860001308700403FF500ED
:1024B000413FF60001307602F4300319750203182B
:1024C000622A632A6A2AF001F00A7708A131E6211C
:1024D0009131B22A0630F0007708A031CB2091313B
:1024E000A23E860001308700403FF500413FF600E4
:1024F00003307602E830031975020318802A812A16
:10250000872AF0017708A131E6219131B22A0630FD
:10251000F0007708A031CB209131A23E8600013037
:1025200087000030C03FC13FB22A0630F000770874
:10253000A031CB209131A03E8600013087000108F8
:10254000F500F6017608003A0319A72AB22A7508A1
:10255000013A0319E529033A0319EC29013A031951
:102560004C2AB22A0630F0007708A031CB209131F6
:10257000A13E86000130870001080319C02AC12A44
:10258000652B0630F0007708A031CB209131A23EB8
:102590008600013087000130810741310318810A2C
:1025A0000630F0007708A031CB209131A23E8600A2
:1025B00001308700403FF500413FF60003307602CE
:1025C000E830031975020318E62AE72A3B2B063088
:1025D000F0007708A031CB209131A43E8600013075
:1025E0008700013081070630F0007708A031CB204A
:1025F0009131A43E86000130870019300102031C8E
:10260000022B032B652B0630F0007708A031CB207E
:102610009131A43E86000130870081010630F00030
:102620007708A031CB209131A53E8600013087008C
:102630000630F0007708A031CB209131A53E840010
:102640000130850000080319262B282B0130292B87
:10265000003081000630F0007708A031CB209131A6
:10266000A53E8600013087000108F3007708A131FC
:10267000CA219131652B0630F0007708A031CB20BC
:102680009131A23E860001308700403FF500413F76
:10269000F6000B307602B830031975020318512B7F
:1026A000522B582BF3017708A131CA219131652BA8
:1026B0000630F0007708A031CB209131A23E860091
:1026C000013087000030C03FC13F0130F7070230C2
:1026D0007702031C6C2B6D2BC629080015302100D6
:1026E000EB004B30EA00BE30890B742BEA0B742BE5
:1026F000EB0B742B0000A3313923933106302000FB
:10270000A0008030A100A1310621933120002108D2
:102710002200BD00200020082200BC00073020005D
:10272000A0008030A100A1310621933120002108B2
:102730002200BF00200020082200BE001B30200025
:10274000A0002730A100B731F72793318B170B1763
:1027500086302000E100B830E200A03175209331CE
:10276000B2302000E100B330E200C030E300B4300A
:10277000E400A03175209331E4302000E100B33053
:10278000E20022003D082000E40022003C08200076
:10279000E30022003F082000E60022003E0820005F
:1027A000E500A031752093312E302000E100B230D9
:1027B000E2002C30E300B530E400A830E500B5308D
:1027C000E6001C30E7000C30E800A03175209331A2
:1027D000FC302000E100B330E2000030E300403084
:1027E000E400A0317520933178302000E100B13051
:1027F000E200C030E3003F30E400A03175209331A7
:102800007E302000E100B330E2004030E3000030D1
:10281000E400A0317520933188310A209331803152
:10282000022093312200ED0013302000E100B3308C
:10283000E20022006D082100EA00EB016A08200096
:10284000E30021006B082000E400A03175209331E3
:1028500050302000E100B030E200A031752093310B
:1028600065302000A100B830A200A1316021933171
:1028700005302100EB000F30EA00F130890B3E2CCF
:10288000EA0B3E2CEB0B3E2C2200C001662C65307F
:102890002000A100B830A200A131602193310530A1
:1028A0002100EB000F30EA00F130890B552CEA0BC8
:1028B000552CEB0B552CC1302000E100B830E20064
:1028C000A0317520933102302200C00740086D020C
:1028D00003186B2C6C2C472C3B302000E100B530EA
:1028E000E200A03175209331BF302000E100B2300A
:1028F000E200A0317520933101302200C600C72CC0
:102900000130C700BF2C6400220046082000A80048
:10291000220047082000A90001309B313723933162
:1029200082302000E100B530E2002200460821009C
:10293000EA00EB016A082000E30021006B08200098
:10294000E400220047082100EC00ED016C082000A3
:10295000E50021006D082000E600A03175209331CC
:1029600003302100EB000830EA007730890BB62CE9
:10297000EA0BB62CEB0BB62C02302200C707470837
:102980006D020318C42CC52C832C0130C6074608E1
:102990006D020318CC2CCD2C802C88302000E10057
:1029A000B830E200A0317520933101302200C6001A
:1029B000202D0130C700182D640022004608200099
:1029C000A800220047082000A90000309B313723CF
:1029D00093314E302000E100B530E200220046087D
:1029E0002100EA00EB016A082000E30021006B08E7
:1029F0002000E400220047082100EC00ED016C08F3
:102A00002000E50021006D082000E600A0317520BF
:102A1000933103302100EB000830EA007730890B56
:102A20000F2DEA0B0F2DEB0B0F2D02302200C707E5
:102A300047086D0203181D2D1E2DDC2C0130C60722
:102A400046086D020318252D262DD92C883020002C
:102A5000E100B830E200A031752093314B30200006
:102A6000E100B230E200A031752093311030200037
:102A7000E100B230E200A031752093312200C8019C
:102A8000CB2D48082100EA000530EA35890B452D99
:102A90006A08B03E860001308700810122004808A4
:102AA0002100EA000530EA35890B532D6A08B13E52
:102AB00086000130870022004808A1311B21933194
:102AC0008100220048082100EA000530EA35890B20
:102AD000662D6A08B23E8600013087002200480851
:102AE0002100EB000530EB35890B732D6B08B13EEF
:102AF0008400013085000008810022004808210080
:102B0000EA000530EA35890B822D6A08B33E86005B
:102B1000013087008101220048082100EA000530C9
:102B2000EA35890B902D6A08B43E86000130870093
:102B30008101220048082100EA000530EA35890BAE
:102B40009E2D6A08C53E8600013087000030C03FD8
:102B5000C13F220048082100EA000530EA35890B10
:102B6000AE2D6A08C73E8600013087000030C03FA6
:102B7000C13F220048082100EA000530EA35890BF0
:102B8000BE2D6A08CB3E860001308700FF308100F1
:102B900001302200C8076D084802031CD02DD12D3A
:102BA000412D05302100EB000F30EA00F130890B98
:102BB000D72DEA0BD72DEB0BD72D38302000E100B5
:102BC000B530E200A03175209331B6302000E1002D
:102BD000B030E200A031752093312200C301362EBF
:102BE0008C302000E100B530E20022004308013EB5
:102BF0002000E300003003180130E400A03175200C
:102C00009331220043082100EA000530EA35890BA0
:102C1000062E6A08B13E8600013087000108031DB8
:102C2000122E132E1C2E5E302000E100B830E20080
:102C3000A03175209331332E220043082100EA0091
:102C40000530EA35890B212E6A08B03E8600013036
:102C500087000830810057302000E100B830E200E2
:102C6000A0317520933101302200C3076D08430263
:102C7000031C3B2E3C2EF02D76302000E100AE30C0
:102C8000E200A031752093319B31F823933122006B
:102C9000C401972E15302000A00022004408A03166
:102CA000DE209331223E8600023087000103031D9F
:102CB0005A2E5B2E6D2E2B302000E100B430E20046
:102CC00022004408013E2000E300003003180130D8
:102CD000E400A03175209331942E83302000E10070
:102CE000B430E20022004408013E2000E30000303E
:102CF00003180130E4001530A00022004408A03180
:102D0000DE209331203E860002308700010821003A
:102D1000EA00EB016A082000E50021006B082000B2
:102D2000E600A0317520933101302200C4076D0800
:102D30004402031C9C2E9D2E4A2E98302000E10058
:102D4000B330E200A031752093312200C501E92E95
:102D500015302000A00022004508A031DE2093316C
:102D6000223E8600023087000103031DB82EB92ED3
:102D7000E62EE3302000E100B430E20022004508F6
:102D8000013E2000E300003003180130E400A031D0
:102D90007520933103302000A30022004508A431A0
:102DA0002F24933115302100EB004B30EA00BE3068
:102DB000890BD82EEA0BD82EEB0BD82E0000200062
:102DC000A30122004508A4312F24933101302200B1
:102DD000C5076D084502031CEE2EEF2EA82E883085
:102DE0002000E100B830E200A03175209331683056
:102DF0002000E100B230E200A03175209331640080
:102E00002200C2010A2F420888316B209331013021
:102E10002200C2076D084202031C0F2F102F032F40
:102E2000B731B8279331003A0319172F182FFF2E07
:102E3000A2311E2293312200C9006908031D212FEF
:102E4000222F2B2F1B304906031D272F282F2B2F16
:102E50000130E900FF2E6903031D2F2F302F3C2F77
:102E60005B304906031D352F362F392F0230E9001C
:102E7000FF2E2200E901FF2E02306906031D412FBB
:102E8000422F7E2F41304906031D472F482F392FEF
:102E9000C101552FB3302000E100B830E200A0316D
:102EA0007520933101302200C1076A084102031CDA
:102EB0005A2F5B2F4A2FA0302000A0000330A10022
:102EC0002030A2000430A300A231D0229331A030E0
:102ED0002000A000A13131219331200020082200E0
:102EE000EA0061302000E100B530E200A030E300EC
:102EF0000330E400A03175209331392F0D3049069D
:102F00000319832F842F8A2F0A304906031D892F26
:102F10008A2FBF2F4908A3311323933122006A0857
:102F2000A03E86000330870081016A080319992FAB
:102F30009A2FA62F20302000A0000430A100A0303E
:102F4000A2000330A300A231D0229331A030200090
:102F5000EC009E317426933188302000E100B830B7
:102F6000E200A031752093317A302000E100B830C2
:102F7000E200A031752093312200EA01FF2E0830D3
:102F800049060319C42FC52FCB2F7F304906031DD7
:102F9000CA2FCB2FDB2F6A080319CF2FD02FFF2E7C
:102FA0000130EA02B3302000E100B830E200A03185
:102FB00075209331FF2E3F306A020318E02FE12F76
:102FC000FF2E4908A33113239331613022004902B7
:102FD000031CEB2FEC2FF42F7B3049020318F12F49
:102FE000F22FF42F2030C9026A08A03E8600033079
:102FF0008700490881000130EA07FF2E80314D2803
:103000003E001A0E890C013908002000250826040C
:1030100003190B280C28122825082604031D112843
:10302000122817282308A031652098316228250826
:10303000860026088700493116000104031921285B
:103040002228422825088600260887004931403F6B
:10305000A700413FA80025088600260887004231C6
:10306000403FA900413FAA002A08803AAB00280847
:10307000803A2B02031D3E28270829020318412805
:103080004228622820002508860026088700423151
:103090002508840026088500003FA700013FA800FE
:1030A000403F27078400413F283D850023088000DA
:1030B000250886002608870042310130810741310A
:1030C0000318810A080001302000C10022004B08CB
:1030D0002000C30022004A082000C2001F30C500A3
:1030E0000030C6002400E9019C28FF30C507FF30EE
:1030F000C63D3E080F39C4000A3044020318812837
:10310000822885283030C40787285730C4074508EF
:103110004A3E86000230870044088100C101FF302A
:10312000C207FF30C33D3E0E0F39BE003F0EF039DF
:10313000BE043F0E0F39BF0020004608803AC00091
:1031400080304002031DA62802304502031CA92836
:10315000AA28C82820003E083F04031DB028B12833
:1031600075284108031DB528B62875284308803AFC
:10317000C00080304002031DBF2801304202031C02
:10318000C228C328C8282000EF18C728C8287528D7
:1031900020003D08B5003C08B40045084A3EB60092
:1031A0004308B8004208B700A4316F2498310800E2
:1031B0002000A40021299A30A000B830A100522993
:1031C000B130A000B530A10052292030A000B830A5
:1031D000A10052293030A000B830A1005229283077
:1031E000A000B830A10052291030A000B830A100D2
:1031F00052291830A000B830A1005229AE30A000EA
:10320000B830A10052293830A000B830A1005229AE
:103210004830A000B830A10052296E30A000B5306F
:10322000A10052297830A000B530A10052294330C6
:10323000A000B530A10052294030A000B830A10054
:1032400052292408A200A3012308003A03192929BE
:103250001C292208003A0319DB28013A0319E02847
:10326000033A0319E528013A0319EA28073A031932
:10327000EF28013A0319F428033A0319F928013A0F
:103280000319FE280F3A03190329013A03190829E3
:10329000033A03190D29013A03191229073A0319B0
:1032A00017291C2908002C302100E0000030E10023
:1032B000C030E4003F30E500E801E901553020006E
:1032C000A000AA30A100B731A4279931DD29E60179
:1032D000E701FF30E30068086904031D70297129C4
:1032E00074296F08E3009E2968036904031D792986
:1032F0007A297D295A30E3009E296808FE3E200085
:10330000A700FF302100693D2000A80000302802FE
:103310002A300319270203188E298F299E2920306D
:103320002100E200680862072000A7002708FE3E8F
:1033300086000230870001082100E30021006308B5
:103340002000A700A80121006635A03E8600870165
:1033500020002708C03F2808C13F01302100E807AE
:103360000030E93D0130E6070030E73D00306702FC
:10337000203003196602031CBE29BF2969298B135B
:1033800065082000A100210064082000A000A231EF
:1033900092229931210065082000A10021006408D3
:1033A0002000A000A030A200A431B52499318B17D1
:1033B00020302100E4070030E53D2100610869026A
:1033C000031DE42960086802031CE729E82967292E
:1033D000080020002F08B7002E08B6003608370472
:1033E000031DF329F429F8295030B600B830B7008E
:1033F000B801B901FF290130B8070030B93D3608DE
:10340000380784003708393D85001200031D092A5A
:103410000A2AFB293908B3003808B20022004B08F9
:103420002000B50022004A082000B4006F18192AB5
:103430001A2A522A2C2A20302000A3000030A4008F
:103440002D08A6002C08A5009831052099310130DF
:103450002000B8070030B93D3908803AB00035087F
:10346000803A3002031D362A34083802031C392AF8
:103470003A2A1B2A522A3608840037088500000899
:10348000B000B1013008A3003108A4002D08A60047
:103490002C08A50098310520993101302000B6078D
:1034A0000030B73DFF302000B207FF30B33D320A95
:1034B000031D5E2A330A031D5E2A5F2A3B2A6F1C06
:1034C000622A632A832A752A20302000A300003054
:1034D000A4002D08A6002C08A500983105209931DC
:1034E00001302000B8070030B93D3908803AB000FB
:1034F0003508803A3002031D7F2A34083802031C45
:10350000822A832A642A080001302000C300BF1BDE
:103510008A2A8C2A01308D2A0030C60022004B08EE
:103520002000C50022004A082000C40046080319F4
:103530009A2A9B2AAF2AFF30C407FF30C53D4608B0
:10354000031DA32AA42AA92A2B30C1000030C200DF
:10355000AD2A2D30C1000030C2004108C6001F3026
:10356000C7000030C8002400E901EB2AFF30C7077C
:10357000FF30C83D47084A3E8600023087000A30C7
:10358000A0000030A1003F08A3003E08A200A53122
:10359000A3259A3120002108A7002008A600A03109
:1035A000B9209A3120002608303E8100C301FF3047
:1035B000C407FF30C53D0A30A0000030A1003F081D
:1035C000A3003E08A200A531F5259A31200021086C
:1035D000BF002008BE0020004808803AC0008030AC
:1035E0004002031DF52A01304702031CF82AF92A7C
:1035F000172B20003E083F04031DFF2A002BB62A8C
:103600004308031D042B052BB62A4508803AC00049
:1036100080304002031D0E2B01304402031C112B8D
:10362000122B172B2000EF18162B172BB62A200071
:10363000460803191C2B1D2B282BFF30C707FF3012
:10364000C83D47084A3E8600023087004608810090
:103650003D08B5003C08B40047084A3EB60045089E
:10366000B8004408B700A4316F249A310800200044
:10367000AC002C03031D3D2B3E2B412B4330AD00F2
:10368000432B5230AD000D30B200B3010A30A00020
:103690000030A1002808AA00AB012A08A2002B08CC
:1036A000A300A531F5259B3120002008303EAE0057
:1036B0000A30A0000030A1002808AA00AB012A08A7
:1036C000A2002B08A300A531A3259B3120002008D0
:1036D000303EAF000A30A0000030A1002908AA0047
:1036E000AB012A08A2002B08A300A531F5259B31C8
:1036F00020002008303EB0000A30A0000030A100B9
:103700002908AA00AB012A08A2002B08A300A531B2
:10371000A3259B3120002008303EB1002D30A100B0
:103720000030A200A13160219B310B302000AA00A3
:103730006230890B992BAA0B992B00000A302000CC
:10374000A0000030A1002908AA00AB012A08A200AD
:103750002B08A300A531F5259B3120002008303E21
:10376000AE000A30A0000030A1002908AA00AB0179
:103770002A08A2002B08A300A531A3259B31200015
:103780002008303EAF000A30A0000030A100280819
:10379000AA00AB012A08A2002B08A300A531F52539
:1037A0009B3120002008303EB0000A30A0000030DD
:1037B000A1002808AA00AB012A08A2002B08A30038
:1037C000A531A3259B3120002008303EB1002D30CB
:1037D000A1000030A200A13160219B310B302000FC
:1037E000AA006230890BF22BAA0BF22B0000080012
:1037F000C0302200A6003F30A700C0302000A0004B
:103800003F30A100A031A7209B31200020082200DA
:10381000A0000130A6070030A73D27082000A10026
:10382000220026082000A000A031A7209B31200004
:1038300020082200A1000130A6070030A73D5A3021
:103840002106031D242C252C7E2C20082100EF00AE
:1038500020302200A200A301A40122082307860031
:103860000230870027082000A1002200260820003F
:10387000A000A031A7209B3120002008810001304A
:103880002200A6070030A73D0130A3070030A43D69
:10389000003024022A3003192302031C502C512C1F
:1038A0002D2CA501772C15302000A0002200250822
:1038B000A031DE209B31213E860002308700093096
:1038C0000106031D642C652C742C220025082000A1
:1038D000EC000530EC35890B6A2C6C08B03E860094
:1038E000013087000930810001302200A5076D08F2
:1038F0002502031C7C2C7D2C532CF02CFF30210046
:10390000EF002200A80115302000A00022002808A6
:10391000A031DE209B31203E86000230870022004D
:1039200028080B3E810015302000A0002200280846
:10393000A031DE209B31213E8600023087008101CC
:1039400015302000A00022002808A031DE209B3185
:10395000223E860002308700810115302000A00041
:1039600022002808A031DE209B31233E8600023051
:103970008700810115302000A00022002808A03116
:10398000DE209B31343E86000230870081011530F5
:103990002000A00022002808A031DE209B31243E18
:1039A0002000A3000030A400A5001030A6000030C5
:1039B000A700A13147219B3101302200A807023026
:1039C0002802031CE42CE52C832C993153219B31D4
:1039D00059302000E100B130E200A03175209B3168
:1039E0000800340886000130870006300106031DF8
:1039F000FA2CFB2C822D3308013E2000A800210068
:103A00003208013E2000A90000309B3137239C3151
:103A1000210032082000EC000530EC35890B0D2D1B
:103A20006C08B03E8600013087000930010603199A
:103A30001A2D1B2D5A2D0330A30021003208A4316A
:103A40002F249C31210032082000EC000530EC3599
:103A5000890B272D6C08B03E8600013087000730A7
:103A60008100210032082000EC000530EC35890B84
:103A7000362D6C08CB3E860001308700FF30810078
:103A80009B30E100A930E20021003308013E200014
:103A9000E300003003180130E40021003208013E49
:103AA0002000E500003003180130E600A031752049
:103AB0009C31822D210032082000EC000530EC35CD
:103AC000890B5F2D6C08CB3E860001308700FF30EC
:103AD00081007E30E100A830E20021003308013E81
:103AE0002000E300003003180130E4002100320818
:103AF000013E2000E500003003180130E600A0314F
:103B000075209C312000A30121003308A4312F240B
:103B10009C312000A30121003308A631AD269C3141
:103B2000210034088600013087000930010603199E
:103B30009A2D9C2D87317F2F340886000130870015
:103B4000810134081B3E860001308700FF30810070
:103B5000F7302000E100B230E20021003308013EDE
:103B60002000E300003003180130E400A03175208C
:103B70009C319A2D21003408023E860001308700D6
:103B80000108031DC42DC62D8731B62F340A8600C7
:103B9000013087000103031DCE2DCF2DC42D340825
:103BA0001C3E860001308700810115302000A000F6
:103BB00021003308A031DE209C31233E86000230F4
:103BC000870001080319E52DE72D8031DB2821004E
:103BD000AB01082E2B0834072000EC006C08053ED2
:103BE0008600013087001530A00021003308A03185
:103BF000DE209C31243E21002B072000ED006D08C3
:103C00008400023085000008810001302100AB07EC
:103C100015302000A00021003308A031DE209C31A7
:103C2000233E860002308700010821002B02031C7E
:103C30001A2E1B2EEA2D3408043E86000130870020
:103C400015302000A00021003308A031DE209C3177
:103C5000233E8400023085000008810021006F0AA5
:103C60000319332E342E472E3408053E86000130CA
:103C7000870001086F06031D3E2E3F2E472E340895
:103C80001C3E86000130870001308100592E340827
:103C9000043E86000130870003300102031C512ED0
:103CA000522E592E34081C3E860001308700013008
:103CB0008100340886000130870003308100D7304E
:103CC0002000E100B030E20021003308013E200076
:103CD000E300003003180130E400A03175209C316E
:103CE0002100A6018031C72820006C08860003301F
:103CF00087000108031D7D2E7E2E802E8F31FF2F21
:103D00008830E100B830E200A03175209E312000FB
:103D10006C08A000A430A100B830A200A331612338
:103D20009E31200020082104031D972E992E8931F1
:103D30007D295730E100B430E200C030E300B430F8
:103D4000E400A03175209E3121006F0A031DA92EC9
:103D5000AA2EB32E98302000E100B430E200A0314A
:103D600075209E31C72E41302000E100B430E200C2
:103D700021006F082200A000A10120082000E3001C
:103D8000220021082000E400A03175209E314A3035
:103D90002000E100B330E200A03175209E31220006
:103DA000BB01F12F15302000A00022003B08A031FC
:103DB000DE209E31223E8600023087000103031D73
:103DC000E22EE32EF02E28302000A0000130A100CA
:103DD000A930A200B830A300A231D0229E31FC2E1F
:103DE00028302000A0000130A1009530A200B8309A
:103DF000A300A231D0229E3197302000E100B130E3
:103E0000E20022003B08013E2000E30000300318DE
:103E10000130E4001530A00022003B08A031DE2074
:103E20009E31203E86000230870001082200A0005B
:103E3000A10120082000E500220021082000E60062
:103E40002830E7000130E80022003B08A2000530DE
:103E5000A235890B282F2208B03E8600013087004A
:103E600001089831D8209E3120002108EA0020085E
:103E7000E900A03175209E3122003B08A0000530EA
:103E8000A035890B402F2008CB3E860001308700EB
:103E9000010A03194C2F4D2F692FAD302000E1008E
:103EA000B430E20022003B08A0000530A035890BA9
:103EB000562F2008CB3E8600013087000108013EC6
:103EC0002000E300003003180130E400A031752029
:103ED0009E3122003B08A0000530A035890B6D2FD4
:103EE0002008B13E8600013087000108031D792FAC
:103EF0007A2F7F2F8030AC00B830AD00832F733025
:103F0000AC00B830AD0059302000E100B530E2001F
:103F100022002D082000E40022002C082000E300ED
:103F2000A03175209E3115302000A00022003B08F2
:103F3000A031DE209E31233E86000230870001083A
:103F40000319A32FA42FE62F1F302000E100B53066
:103F5000E200A03175209E312200AF01D32F5630F0
:103F60002000E100B530E2001530A00022003B083F
:103F7000A031DE209E31243E22002F07A000200821
:103F80008600023087000108A100A201210820005C
:103F9000E300220022082000E400A03175209E31B9
:103FA00001302200AF0715302000A00022003B089E
:103FB000A031DE209E31233E8600023087000108BA
:103FC00022002F02031CE52FE62FAF2F88302000A0
:103FD000E100B830E200A03175209E3101302200AE
:103FE000BB076D083B02031CF62FF72FD22E64305F
:103FF0002000E100B330E200A03175209E317E2E1A
:10400000310095110800200010100B140030A000A2
:104010000030A100B731EE27A031080029009F0130
:104020009A01990198019D019C011A309B008030F2
:104030009E0008002200580859040319202821284E
:10404000262859088A0058080A00A031200091103B
:10405000080022005608570403192F283028352855
:1040600057088A0056080A00A03120009210080064
:1040700020002008210403193E283F284628210853
:104080002200CF00200020082200CE0008002000DF
:104090002008210403194D284E2855282108220004
:1040A000CD00200020082200CC000800BB302800F2
:1040B0009D009C0100302200D4000030D50020007B
:1040C0009213073028009E0008002000A200B7319C
:1040D000B027A031003A03196E286F286728200006
:1040E0002208A3311323A031080063302000EB0025
:1040F0000030D900DA006208DC006108DB006B30B8
:10410000DD00A231B122A03108007C3020009E00E9
:104110009D0192302200D8003730D9002000911044
:1041200021009114073020009F0008007C302800F7
:104130009600950100302200D6001030D7002000F4
:1041400092102100921407302800970008002000E8
:104150002108310092002000200831009100151341
:10416000151414082000A100310013082000A0003D
:1041700008002000A71BBD28BE28BF28CA28260982
:10418000A8002709A900A80A0319A90A2808A60057
:104190002908A7000800F200F101721CD028D128DC
:1041A000D3287008F1070310F00D0310F20C720809
:1041B000031DDB28DC28CD28710808002000A200A0
:1041C000A101221CE428E528E7282008A107031004
:1041D000A00D0310A20C2208031DEF28F028E128EF
:1041E000210808002000A00043302006031DF92804
:1041F000FA28FD2822000C15052952302006031D3F
:1042000002290329052922000C1108002000210899
:10421000310092002000200831009100151715147C
:1042200000000000310014082000A1003100130834
:104230002000A00008002000A0002829B7319F27F7
:10424000A131302998310020A131302900303029A6
:104250002008003A03191E29013A031922292629A8
:10426000080020002008A20037290130A0072008FC
:104270008600033087000108031D3F2940293529A6
:1042800022082002A000A101A01BA1030800200019
:104290002308A80053292808860002308700240834
:1042A00081000130A8070130A6020030A73B260A92
:1042B000031D5E29270A031D5E295F294B2908007B
:1042C0006E2921088400220885000008A031F22010
:1042D000A13101302000A1070030A23D20002108BB
:1042E0008400220885001200031D7729782961299E
:1042F00008003E00A5012330A600A701A801A901DE
:104300000230AA000830AB00AC01AD018530A4003A
:1043100000302000A0000030A100B731DC27A1311F
:104320002000131108003E00AF012330B00001301F
:10433000B100B201B3010230B4000830B500B601DB
:10434000B7018530AE0000302000A0000030A10091
:10435000B731E527A13120009311080020307A02FF
:104360000318B329B429C72921006E08403E8600EE
:1043700003308700010823009A0021006E08013EE7
:104380001F39F0007008EE000130FA07C92921003A
:1043900011120800F4007408031DCF29D029DB296D
:1043A00073080319D429D529D82922000E15E52927
:1043B00022000E11E52973080319DF29E029E329FA
:1043C00022008E16E52922008E120800F1007108E5
:1043D000031DEB29EC29F72970080319F029F129AD
:1043E000F42921008C12012A21008C16012A700860
:1043F0000319FB29FC29FF2921000C12012A2100A5
:104400000C16080002303E00910023309200063066
:1044100093009401950102309600143097009801A2
:1044200099018530900000302000A0000030A100EC
:10443000B731CA27A2312000131008007808203EA7
:1044400086000330870001082000A1007808013EA3
:104450001F39A0002008F8002100911222006808EE
:104460000319332A342A362A0130E8022100911632
:104470002000210808002000A1002108031D412A76
:10448000422A4D2A20080319462A472A4A2A22008E
:104490000E15572A22000E11572A20080319512AF7
:1044A000522A552A22008E16572A22008E12080000
:1044B0002000A1002108031D5E2A5F2A6A2A200825
:1044C0000319632A642A672A21008C12742A2100A6
:1044D0008C16742A200803196E2A6F2A722A21006A
:1044E0000C12742A21000C16080002303E009B00BA
:1044F00023309C0007309D0007309E009F01023052
:10450000A0001430A100A201A30185309A00003060
:104510002000A0000030A100B731D327A231200035
:10452000931008000B0D0B0D01392000A20021088B
:10453000310092002000200831009100151315165B
:1045400015158B137D0896007C08960095142000A5
:10455000220C031C8B1303188B173100151115083F
:10456000080020005C08E0005B08DF00C32A5A084E
:10457000CA005908C9005F30CB005D08CC00CD01EE
:1045800090312220A23120005F088400600885005D
:104590001200031DCC2ACD2AB72AD901DA0108005E
:1045A00020002108A7002008A60027088700260869
:1045B0008600A60A0319A70A2308A5002208A4005A
:1045C000A20A0319A30A240884002508850000080C
:1045D000C03F8908031DED2AEE2AD52A08002000D5
:1045E000B201B301062B3108AF00B0012F08A300C0
:1045F0003008A4002E08A6002D08A500983105203B
:10460000A23101302000B2070030B33D2C08320740
:104610008600023087000108B1003108031D112B0C
:10462000122BF32A08002000A1002100111A192BD7
:104630001A2B1F2B2000210823009A00362B7A0802
:104640000319232B242B362B7B08403E8600033096
:1046500087002000210881007B08013E1F39A0004F
:104660002008FB00210011120130FA02210011166E
:10467000080088310020A331A331C423A331A03125
:104680008520A331A0319620A331A0315620A3313B
:10469000A2310222A331A2317522A331A1317921A5
:1046A000A331A1319321A331A331F723A331A03149
:1046B0000E20A331B7319727A331A0310320A331B6
:1046C0000800682B0130A0070130A1070030A23D8F
:1046D000200021088400220885000008A30020088B
:1046E00086000330870001082306031D782B792BF1
:1046F000822B20088600033087000108031D812BD0
:10470000822B622B2008860003308700210884005A
:104710002208850000080102A000A101031CA103DA
:1047200008002000200821040319972B982BBF2B89
:104730000130A400A22B0130A035A10D890B9C2BC8
:104740000130A407A11FA52BA62B9B2B2108230218
:10475000031DAC2B20082202031CAF2BB02BB42B63
:104760002008A2022108A33B0130A136A00C890B2E
:10477000B52B0130A402031DBE2BBF2BA62B230893
:10478000A1002208A0000800023022008C008E0147
:10479000093021008C0009308E00303023008C005D
:1047A0008E0124008C0109308E0025008C018E01C1
:1047B000373026008C003F308E003F3027008C00C1
:1047C0003F308E0013303C00A9001030A800A40137
:1047D0001D303D0094001D309500143091002700DD
:1047E000910192019301970198019901080021001C
:1047F000911201302200DC002530DD002100111271
:10480000AE302200DE002130DF00483023009F0060
:1048100090309D0026309E0040309B0003309C006D
:1048200091302000A0003730A100A0313820A33102
:1048300093302000A0003730A100A0314720A331E1
:104840002300AE01AF01FB012100EE012030FA0090
:10485000F901F8012200E80121009116080020006A
:10486000A40002302402031C362C372C382C6E2C6A
:104870000630A0002408A031DE20A431A03E86002E
:10488000013087000108200023060319482C492C19
:104890006E2C0630A0002408A031DE20A431A03EFA
:1048A0008600013087002000230881000630A00028
:1048B0002408A031DE20A431A23E8600013087000A
:1048C0000030C03FC13F20002308031D682C692C25
:1048D0006E2CA0012408A2315822A4310800200027
:1048E0006F1C732C742C7D2C3608AC003508AE0080
:1048F0003408AD00A231EF22A4312000B81F812C72
:10490000822C842CB701B801BA01BB01982C20304D
:104910002000A3000030A4003508A6003408A5003C
:1049200098310520A43101302000BA070030BB3D8A
:104930003B08803AB9003808803A3902031DA22C9E
:1049400037083A02031CA52CA62C872C20006F18D0
:10495000AA2CAB2CB42C3608AC003508AE003408B9
:10496000AD00A231EF22A431080020302000A600C3
:104970000B0D0B0D0139A5003100151315159516FA
:10498000F52C210831009200200020083100910010
:1049900001302000A0070030A13D220886008701D9
:1049A000403FA300413FA4002408310094002000B0
:1049B00022088600870101083100930002302000A0
:1049C000A2072608031DE52CE62CE82C31009512E1
:1049D0008B137D08310096007C089600951420000A
:1049E000250C031C8B1303188B1701302000A60223
:1049F000260A031DFC2CFD2CC12C310015111508B5
:104A000008007935A03E8600023087000030C03FA4
:104A1000C13F23009D1C0D2D0E2D202D7935A03E6C
:104A2000860002308700011522004C084D0403194E
:104A30001A2D1B2D202D4D088A004C080A00A53187
:104A400023001D1D242D252D372D7935A03E8600F0
:104A500002308700811422004E084F040319312DC3
:104A6000322D372D4F088A004E080A00A531230049
:104A70001908F0007908013E1F39F1007108780625
:104A8000031D432D442D452D512D7908203E8600D0
:104A900003308700700881007108F900013022009E
:104AA000E807080001302000A3020030A43B230ADD
:104AB000031D5E2D240A031D5E2D5F2D6C2DA001AC
:104AC000A101A22D0130A0070130A1070030A23DB5
:104AD0000130A3020030A43B200886000330870089
:104AE00001080319742D752D942D210884002208C6
:104AF0008500120003197D2D7E2D942D230824049A
:104B00000319832D842D942D21088400220885000B
:104B10000008A5002008860003308700010825064C
:104B20000319932D942D622D2008860003308700F1
:104B3000210884002208850000080102A000A101CC
:104B4000031CA10308002000A501A31FA82DA92D67
:104B5000B02DA209A309A20A0319A30A0130A500D6
:104B6000A11FB32DB42DB92DA009A109A00A0319C5
:104B7000A10A200821040319BE2DBF2DE62D013006
:104B8000A400C92D0130A035A10D890BC32D013022
:104B9000A407A11FCC2DCD2DC22D21082302031D5A
:104BA000D32D20082202031CD62DD72DDB2D200863
:104BB000A2022108A33B0130A136A00C890BDC2DF9
:104BC0000130A402031DE52DE62DCD2D2508031986
:104BD000EA2DEB2DF02DA209A309A20A0319A30ABD
:104BE0002308A1002208A00008002000A501A11FA1
:104BF000FA2DFB2D022EA009A109A00A0319A10A72
:104C00000130A500A31F052E062E0D2EA209A30913
:104C1000A20A0319A30A0130A506A601A7012008CC
:104C200021040319142E152E422E0130A4001F2E2C
:104C30000130A035A10D890B192E0130A407A11F49
:104C4000222E232E182E0130A635A70D890B242ED7
:104C500021082302031D2E2E20082202031C312EC0
:104C6000322E372E2008A2022108A33B2614013041
:104C7000A136A00C890B382E0130A402031D412E51
:104C8000422E232E25080319462E472E4C2EA60908
:104C9000A709A60A0319A70A2708A1002608A00049
:104CA00008002000AC01AD01260886008701403FC6
:104CB000A800413FA90028088400290885001200A7
:104CC0002A3A031D642E652E942E2608860087013D
:104CD0000130810741310318810A270886008701C6
:104CE00001088400850102308107003FAC00013FCC
:104CF000AD00A82E2D08A1002C08A0000A30A200AB
:104D00000030A30090310220A63120002B0820079C
:104D1000AC000030213DAD0026088600870101303F
:104D2000810741310318810A260886008701403F28
:104D3000A800413FA9002808840029088500000830
:104D4000D03EAB000A302B02031CA72EA82E7A2ED1
:104D50002D08A7002C08A60008002000A40002309F
:104D60002402031CB42EB52EB62E1A2F0630A00036
:104D70002408A031DE20A631A13E86000130870044
:104D80000108200023060319C62EC72E1A2F06304D
:104D9000A0002408A031DE20A631A13E860001300B
:104DA00087002000230881000630A0002408A031DD
:104DB000DE20A631A23E8600013087000030C03FD1
:104DC000C13F06302000A0002408A031DE20A6311B
:104DD000A43E860001308700810106302000A0003B
:104DE0002408A031DE20A631A53E860001308700D0
:104DF0008101200023080319FE2EFF2E0A2F24080C
:104E0000031D032F042F072F22008E141A2F2200B8
:104E10000E161A2F2408031D0E2F0F2F122F2200FB
:104E20008E10142F22000E122000A0012408A2319F
:104E30003B22A6310800F301852F7308F0000530EE
:104E4000F035890B202F7008C53E860001308700A1
:104E50001600010403192D2F2E2F3F2F7308F00089
:104E60000530F035890B312F7008C53E86000130C2
:104E700087000130810241310030813B7F3173086E
:104E8000F0000530F035890B422F7008C73E8600D0
:104E9000013087001600010403194F2F502F612F96
:104EA0007308F0000530F035890B532F7008C73EAA
:104EB0008600013087000130810241310030813BA2
:104EC0007F317308F0000530F035890B642F7008CE
:104ED000C93E860001308700160001040319712FB6
:104EE000722F832F7308F0000530F035890B752F72
:104EF0007008C93E860001308700013081024131CF
:104F00000030813B7F310130F30722006D087302CE
:104F1000031C8B2F8C2F1D2F080001302000C10097
:104F200022004B082000C30022004A082000C200D3
:104F30001F30C4000030C5002400E901CC2FFF3031
:104F4000C407FF30C53D44084A3E86000230870052
:104F50000A30A0000030A1003F08A3003E08A200D4
:104F6000A3319123A73120002008303E8100C101E8
:104F7000FF30C207FF30C33D0A30A0000030A1005F
:104F80003F08A3003E08A2008731C527A7312000B3
:104F90002108BF002008BE00200044084504031972
:104FA000D22FD32FF02F3E083F04031DD82FD92F27
:104FB0009F2F4108031DDD2FDE2F9F2F4308803ACE
:104FC000C00080304002031DE72F01304202031C65
:104FD000EA2FEB2FF02F2000EF18EF2FF02F9F2F4D
:104FE00020003D08B5003C08B40044084A3EB60025
:104FF0004308B8004208B700A4316F24A731080065
:105000002034203420342034203420342034203400
:10501000203420344534783461346D3470346C3449
:1050200065343A34203453344234433454344C34A9
:105030002034523445344C3420343134203432342A
:105040002034203420342D342034523465346C34F0
:105050006534613473346534203431342034613440
:105060006E34643420343234203453347734693429
:105070007434633468342E340D340A3400342034EC
:105080002034203420342034203420342034203480
:1050900020344534783461346D3470346C34653484
:1050A0003A34203453344234433454344C3420346E
:1050B00043344F344E3420343134203432342034AD
:1050C000203420342D34203443346F346E346E3425
:1050D00065346334743420343134203461346E34B4
:1050E00064342034323420345334773469347434A3
:1050F000633468342E340D340A34003450346F3441
:10510000723474342034253464343A3420344834CE
:1051100075346E346734203475347034203464341C
:105120007534723469346E346734203474346134C5
:105130006C346B342E34203450346F347234743405
:1051400020342534643420346934733420346E348C
:105150006F34773420344134553454344F34203450
:1051600041344E3453345734453452342E340D3494
:105170000A340034203420342034203420342034C5
:1051800020342034203420344534783461346D3474
:1051900070346C3465343A342034533442344334FC
:1051A00054344C342034463455344C344C345F340D
:1051B00052344534533445345434203420342D345F
:1051C00020345234653473346534743420345334A9
:1051D0007734693474346334683462346F346134DE
:1051E000723464342E340D340A3400345334413470
:1051F000563445345F34533445345434543449348C
:105200004E3447345334203420343A342034533429
:1052100061347634653420346334753472347234D6
:1052200065346E34743420347334653474347434B7
:1052300069346E3467347334203474346F342034FA
:105240004E3456344D342034533474346F34723405
:105250006134673465342E340D340A3400345334E9
:1052600045345434203448344C34203420343A34D7
:105270002034533465347434203470346F347234D1
:105280007434203448344F3454344C3449344E341C
:10529000453420346E3475346D3462346534723480
:1052A0002034283475347034203474346F3420340E
:1052B00031343634203464346934673469347434B6
:1052C000733429340D340A3400342034203420342B
:1052D00020342034203420342034203420345534F9
:1052E00073346134673465343A342034533445348C
:1052F0005434203448344C3420343C3470346F34CB
:10530000723474343A3431342D34253464343E34B8
:1053100020343C346E3475346D3462346534723408
:1053200020346F34723420344F34463446343E34A3
:105330000D340A34003450346F34723474342034F1
:10534000253464343A342034483475346E34673448
:1053500020347534703420346434753472346934D4
:105360006E3467342034743461346C346B342E34CE
:10537000203450346F34723474342034253464341F
:1053800020346934733420346E346F3477342034ED
:1053900042345534533459342E340D340A340034E5
:1053A00053344234433454344C3420342034203485
:1053B0003A3420344D3461346E34753461346C3495
:1053C0006C34793420344F344E342F344F344634D7
:1053D00046342F34463455344C344C345F345234D4
:1053E0004534533445345434203453347734693499
:1053F00074346334683462346F34613472346434C6
:105400002E340D340A34003450346F347234743412
:105410002034253464343A342034433461346C34D9
:105420006C34653472342034613462346F347234D5
:105430007434653464342E34203450346F34723410
:1054400074342034253464342034733474346F3429
:1054500070347034653464342034723469346E349A
:10546000673469346E3467342E340D340A340034B2
:10547000203420342034203420342034203420348C
:1054800020342034553473346134673465343A340D
:10549000203453344534543420344534583454344F
:1054A00020343C3470346F34723474343A343134D0
:1054B0002D34253464343E3420343C34653478341F
:1054C00074343A34313430342D34393439343E3450
:1054D0000D340A3400342034203420342034203475
:1054E0002034203420342034203455347334613453
:1054F0006734653420343A342034533442344334EE
:1055000054344C34203443344F344E342F345234DA
:1055100045344C3420343C3470346F347234743439
:1055200031343E3420343C3470346F34723474344B
:1055300032343E340D340A34003450346F34723413
:1055400074342034253464343A3420345034723482
:1055500065346634693478342034643469346134B1
:105560006C346534643420342D343E342034453476
:1055700078347434653472346E3461346C3420346D
:10558000493450342034433461346C346C34203426
:105590004D346F34643465340D340A34003453347C
:1055A00045345434203445345834543420343A3457
:1055B000203453346534743420346534783474348E
:1055C00065346E34733469346F346E3428346E3419
:1055D00075346D3462346534723429342034663461
:1055E0006F34723420346534613463346834203469
:1055F00070346F34723474342E340D340A34003401
:1056000020342034203420342034203420342034FA
:1056100020342034553473346134673465343A347B
:10562000203453344534543420344134413420340C
:1056300020343C3470346F34723474343A3431343E
:105640002D34253464343E3420343C344F344E34CD
:105650002F344F34463446343E340D340A3400344B
:1056600050346F34723474342034253464343A3412
:10567000203449346E34763461346C3469346434A3
:1056800020346E3475346D346234653472342034B1
:105690006F347234203449345034203455346E34ED
:1056A0006934743420342534643420342D343E3449
:1056B000203442345534533459340D340A340034D0
:1056C00050346F34723474342034253464343A34B2
:1056D000203452346F347534743469346E34673422
:1056E000203474346F3420344934503420345534E9
:1056F0006E34693474342034283450346F34723446
:10570000743420342534643429342E3420344E3417
:1057100075346D346234653472343A342034003474
:1057200020342034203420342034203420342034D9
:1057300020342034553473346134673465343A345A
:105740002034533445345434203454345934503490
:10575000453420343C3470346F34723474343E3405
:1057600020343C3453344C34493443342F3449349A
:1057700050343E340D340A34003450346F347234B3
:10578000743420342534643420342834493450347B
:10579000203455346E346934743429343A34203426
:1057A000533465346E34643469346E346734203471
:1057B0006434693467346934743420345B34253498
:1057C00064345D3420342E342E342E340D340A34B7
:1057D0000034533475346334633465347334733450
:1057E0003A34203450346F347234743420342534D5
:1057F0006434203473347434613474346534203444
:10580000733465347434203474346F342034413448
:10581000553454344F34203441344E345334573497
:10582000453452340D340A34003455347334613401
:10583000673465343A342034533445345434203496
:10584000543459345034453420343C3470346F343B
:10585000723474343A3431342D34253464343E3463
:1058600020343C3453344C344934433420346F3482
:1058700072342034493450343E340D340A34003408
:1058800050346F34723474342034253464343A34F0
:105890002034433461346C346C34653464342034E3
:1058A00050346F34723474342034253464342034EA
:1058B0002D343E3420344134553454344F34203464
:1058C00041344E345334573445345234653464349F
:1058D0000D340A340034553473346134673465341C
:1058E0003A34203453344234433454344C34203426
:1058F000523445344C3420343C346C3469346E3486
:10590000653431343E3420343C346C3469346E3484
:10591000653432343E342034283431342D34253447
:10592000643429340D340A3400345534733461340A
:10593000673465343A342034533442344334543475
:105940004C34203443344F344E3420343C346C34A3
:1059500069346E34653431343E3420343C346C3434
:1059600069346E34653432343E3420342834313472
:105970002D342534643429340D340A34003453343E
:1059800045345434203441344134203420343A34C2
:105990002034533465347434203470346F347234AA
:1059A0007434203474346F342034413455345434D6
:1059B0004F34203441344E34533457344534523408
:1059C00020346D346F34643465342E340D340A342D
:1059D000003444344F345F34463455344C344C3402
:1059E0005F345234453453344534543420342034F5
:1059F0003A3420345234653473346534743420348A
:105A000050344234583443346F3472346534203463
:105A1000703472346F346734723461346D342E34C0
:105A20000D340A34003445347834653463347534C5
:105A30007434653464343A342034533477346934FC
:105A400074346334683443346F346E347434723471
:105A50006F346C342834663461346C347334653498
:105A60002C342034253464342C34203425346434EC
:105A700029340D340A3400344534783465346334C1
:105A800075347434653464343A34203453347734A0
:105A9000693474346334683443346F346E3474342A
:105AA00072346F346C342834743472347534653421
:105AB0002C342034253464342C342034253464349C
:105AC00029340D340A340034533475346334633468
:105AD0006534733473343A34203453346534743455
